:100000000C9496000C94B5000C94B5000C94B500BB
:100010000C94B5000C94B5000C94B5000C94B5008C
:100020000C94B5000C94BF020C94B5000C94B50070
:100030000C94B5000C94B5000C94C3000C94B5005E
:100040000C94B5000C94B5000C945E0E0C94880EC4
:100050000C94B5000C94B5000C94B5000C94B5004C
:100060000C94B5000C94B5000C94B5000C94B5003C
:100070000C94B5000C94B5000C94100F0C943C0F2C
:100080000C94B5000C94B5000C94B5001C0D2B0D10
:100090000E0D2B0D2B0D2B0D2B0D2B0D2B0D2B0DBD
:1000A0002B0D2B0D2B0D2B0D2B0D2B0D2B0D2B0D90
:1000B0002B0D2B0D2B0D2B0D2B0D2B0D2B0D2B0D80
:1000C000D40CE40CEE0C2B0D2B0DFE0C060D2B0DA1
:1000D0002B0D2B0DE00C2B0DC80CD80C2B0DD00CC0
:1000E000DC0CF60CC40C2B0D2B0DCC0C2B0D2B0D9E
:1000F0002B0D2B0D2B0D2B0DB70C2B0D2B0DBA0C27
:10010000D60CE80CF20CBE0CB40C020D0A0D2B0D33
:100110002B0D2B0DE20C2B0DCA0CDA0CB10CD20CF2
:10012000DE0CFA0CC60C2B0D2B0DCE0C11241FBEB1
:10013000CFEFD0E1DEBFCDBF13E0A0E0B1E0E0E261
:10014000FBE200E00BBF02C007900D92AA38B10796
:10015000D9F714E0AAE8B3E001C01D92A63EB107AA
:10016000E1F70E94310D0C948F150C94000083B7B9
:10017000896683BF08958CE085BD80E383BD87B722
:10018000806887BF08951F920F920FB60F921124B7
:100190002F933F934F935F936F937F938F939F938F
:1001A000AF93BF93EF93FF93209176043091770440
:1001B00040E050E060E074E883E090E00E943B158E
:1001C000209530953DBD2CBD8091A4038F5F809319
:1001D000A4038091A40381BF9091A40380916A0439
:1001E000891720F480917A048093A403FF91EF9102
:1001F000BF91AF919F918F917F916F915F914F913F
:100200003F912F910F900FBE0F901F901895E4E62D
:10021000F0E080818E7F8083E5E6F0E080818E7F54
:100220008083D198D998D298DA98D498DC98D398CA
:10023000DB98D59ADD9AD69ADE9AD79ADF9A159AE4
:100240001D98BB9AC398179A1F98169A1E98BE9A23
:10025000C698BD9AC598BF9AC798149A1C980895D5
:10026000CF92DF92EF92FF920F931F93CF93DF9382
:1002700080E090E0FC01ED56FC4F10820196883042
:100280009105C1F700E010E0EE24FF24C0E0D0E0CB
:1002900083E9C82E83E0D82EC00ED11E9E012E0DFC
:1002A0003F1D22563B4FD9018C918C9190E0807F6D
:1002B000907060E170E00E942815FB01D9012C913B
:1002C000F0E0E557FC4F808190E02F7002C09595DB
:1002D00087952A95E2F780FF0CC0F601208181E026
:1002E00090E00C2E02C0880F991F0A94E2F7282B89
:1002F00020832196C830D10589F60F5F1F4F88E013
:1003000090E0E80EF91E0830110509F0BFCFDF912B
:10031000CF911F910F91FF90EF90DF90CF900895B4
:10032000A5E0B0E00E947115802D809378041D9A9D
:100330001E9A08951D9A1E9A0895AAE0B0E00E94A0
:100340007115802D809378041092A5031D988091DB
:100350006D0481FF03C01E981F9A03C01D9A83FD80
:100360001E9A82FF03C0C59AC79A089584FDC59A54
:1003700008951E981F98C798C698C5981C981D98F0
:10038000C398089587B9379A369A3699FECF369A28
:100390003699FECF379824B135B189E190E0AC01B0
:1003A000249FC001259F900D349F900D1124969598
:1003B0008795969587958A5C9840089580916B04FF
:1003C000CC9B05C0826080936B04DE9A04C08D7F55
:1003D00080936B04DE9880916B04CB9B05C0816099
:1003E00080936B04DD9A08958E7F80936B04DD9873
:1003F000089510928A038091630080FF11C080915C
:10040000B2038F5F8093B203813011F0873051F4D3
:1004100093E090938A03873029F49093B20302C04B
:100420001092B203C99B12C09091B1039F5F909349
:10043000B103913011F0973059F484E080938A032E
:10044000973031F483E08093B10302C01092B1037E
:10045000CA9B12C09091B0039F5F9093B0039130FC
:1004600011F0973059F485E080938A03973031F486
:1004700083E08093B00302C01092B00380916B04BC
:10048000CB9B02C0816001C08E7F80936B04809102
:100490006B04CC9B02C0826001C08D7F80936B0493
:1004A000089520E030E0D901AD56BC4F8C91F901A0
:1004B000E556FC4F80838C91D901A65EBF4F082E74
:1004C0000E947E152F5F3F4F2830310561F7089558
:1004D00020E030E0D901A65EBF4F0E947115802D4B
:1004E000F901ED56FC4F8083D901AE5EBF4F0E94EB
:1004F0007115802DF901E357FD4F80832F5F3F4F2A
:100500002830310539F720E030E0D901AE5DBF4F2A
:100510000E947115802DF901E256FB4F80832F5FF9
:100520003F4F2034310589F720E030E0D901AE5942
:10053000BF4F0E947915CF01F901E259FB4F91831A
:1005400080832E5F3F4F2830310581F7AFE0B0E068
:100550000E947115802D80938903A0E1B0E00E9474
:100560007115802D80937D04A1E1B0E00E9471158A
:10057000802D80938703089583E08EBD08951F9298
:100580000F920FB60F9211242F938F939F93809108
:10059000AE039091AF0301969093AF038093AE03A7
:1005A0008436910549F480917904886080937904B8
:1005B0001092AF031092AE038091AC039091AD0303
:1005C00001969093AD038093AC038E55914049F40E
:1005D000809186048260809386041092AD0310920D
:1005E000AC038091AA039091AB0301969093AB0367
:1005F0008093AA03845F914049F4809179048460D8
:10060000809379041092AB031092AA038091A803FF
:100610009091A90301969093A9038093A803885E03
:10062000934049F480917904816080937904109219
:10063000A9031092A8038091A6039091A7030196A5
:100640009093A7038093A6038858934149F480911F
:1006500079048260809379041092A7031092A60314
:100660009F918F912F910F900FBE0F901F90189513
:10067000EF92FF920F931F9333E6E32E34E0F32EB5
:1006800083E080936304A7014F5F5F4F86E0809310
:10069000640497012E5F3F4F82E0809365048701D9
:1006A0000D5F1F4F88E080936604B70180EA0E94C7
:1006B000F4128CE08093670486E28093680486E0FD
:1006C00090E0E80EF91E1092690497010894E10881
:1006D000F108A7010894E108F108B70180EA0E9437
:1006E00057121F910F91FF90EF9008950F931F9352
:1006F00080E091E00E94F50E08E011E0C8010E9440
:10070000F50EC8010E94F50E8FE091E00E94F50EF3
:1007100089E191E00E94F50E1F910F9108958EE1FD
:1007200091E00E94F50E86E291E00E94F50E81E3D1
:1007300091E00E94F50E8BE391E00E94F50E84E4B7
:1007400091E00E94F50E8DE491E00E94F50E89E1A2
:1007500091E00E94F50E08950F931F938C018BE595
:1007600091E00E94F50E8CE20E94E30E82E691E099
:100770000E94F50E000F111F0F581C4FF8018081C9
:1007800091810E94F50E8CE20E94E30E89E191E0D6
:100790000E94F50E1F910F910895882341F4A2E065
:1007A000B0E00E947115802D8A3A09F43BC20E9484
:1007B0005E1086E691E00E9486108AEAA2E0B0E030
:1007C000082E0E947E153AE0A3E0B0E0032E0E94BE
:1007D0007E1588E0A4E0B0E0082E0E947E1580E43B
:1007E00042E150E0DA01082E0E947E1582E44F5F5C
:1007F0005F4FDA01082E0E947E1584E44F5F5F4F41
:10080000DA01082E0E947E1586E44F5F5F4FDA0101
:10081000082E0E947E1588E44F5F5F4FDA01082E94
:100820000E947E158AE44F5F5F4FDA01082E0E9416
:100830007E158CE44F5F5F4FDA01082E0E947E1513
:100840008EE44F5F5F4FDA01082E0E947E1582E032
:10085000A5E0B0E0082E0E947E1524E6A6E0B0E0F8
:10086000022E0E947E159FEFA7E0B0E0092E0E94A5
:100870007E15A8E0B0E0092E0E947E15A9E0B0E048
:10088000022E0E947E1585E0AAE0B0E0082E0E94AC
:100890007E15ABE0B0E0032E0E947E1586EEACE044
:1008A000B0E0082E0E947E15ADE0B0E0092E0E9457
:1008B0007E15AEE0B0E0022E0E947E1522E630E00A
:1008C0008EEC9FEFD9010C010E948A152E5F3F4FDD
:1008D000B0E02A363B07A1F722E0AFE0B0E0022EFD
:1008E0000E947E1584EBA0E1B0E0082E0E947E15E8
:1008F0008EE3A1E1B0E0082E0E947E1583E062E263
:1009000070E0DB01082E0E947E1585E16F5F7F4F4E
:10091000DB01082E0E947E158FEF6F5F7F4FDB019A
:10092000082E0E947E156F5F7F4FDB01082E0E940C
:100930007E156F5F7F4FDB01082E0E947E156F5F73
:100940007F4FDB01082E0E947E156F5F7F4FDB011A
:10095000082E0E947E156F5F7F4FDB01082E0E94DC
:100960007E156F5F7F4FDB01022E0E947E1594E1A2
:100970006F5F7F4FDB01092E0E947E156F5F7F4FF7
:10098000DB01082E0E947E156F5F7F4FDB01082E72
:100990000E947E156F5F7F4FDB01082E0E947E153F
:1009A0006F5F7F4FDB01082E0E947E156F5F7F4FC8
:1009B000DB01082E0E947E156F5F7F4FDB01082E42
:1009C0000E947E1591E06F5F7F4FDB01092E0E9430
:1009D0007E1590E06F5F7F4FDB01092E0E947E1530
:1009E00097E06F5F7F4FDB01092E0E947E1595E037
:1009F0006F5F7F4FDB01092E0E947E1593E16F5FD1
:100A00007F4FDB01092E0E947E1591E16F5F7F4FC2
:100A1000DB01092E0E947E1597E16F5F7F4FDB019E
:100A2000092E0E947E156F5F7F4FDB01082E0E940A
:100A30007E156F5F7F4FDB01022E0E947E156F5F78
:100A40007F4FDB01022E0E947E1596E06F5F7F4F85
:100A5000DB01092E0E947E1594E06F5F7F4FDB0162
:100A6000092E0E947E1592E16F5F7F4FDB01092EF8
:100A70000E947E1590E16F5F7F4FDB01092E0E947F
:100A80007E1596E16F5F7F4FDB01092E0E947E1578
:100A90006F5F7F4FDB01082E0E947E156F5F7F4FD7
:100AA000DB01082E0E947E156F5F7F4FDB01082E51
:100AB0000E947E156F5F7F4FDB01082E0E947E151E
:100AC0006F5F7F4FDB01082E0E947E156F5F7F4FA7
:100AD000DB01082E0E947E156F5F7F4FDB01082E21
:100AE0000E947E156F5F7F4FDB01082E0E947E15EE
:100AF0006F5F7F4FDB01082E0E947E156F5F7F4F77
:100B0000DB01082E0E947E156F5F7F4FDB01082EF0
:100B10000E947E156F5F7F4FDB01082E0E947E15BD
:100B20006F5F7F4FDB01082E0E947E156F5F7F4F46
:100B3000DB01082E0E947E156F5F7F4FDB01082EC0
:100B40000E947E156F5F7F4FDB01082E0E947E158D
:100B50006F5F7F4FDB01082E0E947E156F5F7F4F16
:100B6000DB01082E0E947E156F5F7F4FDB01082E90
:100B70000E947E156F5F7F4FDB01082E0E947E155D
:100B80006F5F7F4FDB01082E0E947E156F5F7F4FE6
:100B9000DB01082E0E947E156F5F7F4FDB01082E60
:100BA0000E947E156F5F7F4FDB01082E0E947E152D
:100BB0006F5F7F4FDB01082E0E947E156F5F7F4FB6
:100BC000DB01082E0E947E156F5F7F4FDB01082E30
:100BD0000E947E156F5F7F4FDB01082E0E947E15FD
:100BE0006F5F7F4FDB01082E0E947E156F5F7F4F86
:100BF000DB01082E0E947E156F5F7F4FDB01082E00
:100C00000E947E156F5F7F4FDB01082E0E947E15CC
:100C10006F5F7F4FDB01082E0E947E1588E090E019
:100C20000E94AC03089582E791E00E94F50E87E0F0
:100C300090E00E94AC030895CF93DF93809162040B
:100C400080FF34C0867009F04EC0C1E0D0E0FE01E4
:100C5000ED56FC4F9081FE01E556FC4F80819817C0
:100C600079F0809162049FEF90935D02857F8460AC
:100C7000809362040E949D0183E090E00E94AC0397
:100C80002196C830D10519F79091930380919B0369
:100C9000981749F1809162048A60809362040E94EF
:100CA000900182E090E00E94AC031DC040E050E063
:100CB00020E030E0F901ED56FC4F8081480F511DD6
:100CC0002F5F3F4F28303105A9F78091B3039091F2
:100CD000B4034817590719F01D9A109288035093CE
:100CE000B4034093B303DF91CF91089580916204E0
:100CF000807F809362048FEF80935D020E94B90130
:100D000086E090E00E94AC030895809162048860C0
:100D10008093620485E090E00E94AC030895809186
:100D2000620480FD0AC0877F809362048FEF809306
:100D30005D0284E090E00E94AC030895EF92FF9280
:100D40000F931F93CF93DF935EE6E52E54E0F52ECD
:100D50000EE714E0C0E0D0E06C2F809187030E9482
:100D60008713F701219131917F012A5C384049E1D5
:100D700050E0BC01649FC001659F900D749F900D71
:100D8000112464E070E00E942815260F371FF80137
:100D9000219331938F012196C430D105E9F6DF917B
:100DA000CF911F910F91FF90EF90089590916B0458
:100DB00090FF1CC080916D0491FF0BC080FD22C08C
:100DC000816080936D041D9889E090E00E94AC03DF
:100DD00008958E7F80936D041D9A62E080E00E94EA
:100DE0004A108EE891E00E948610089580916D046B
:100DF00080FF08C08E7F80936D048AE090E00E949F
:100E0000AC031D9808950E945E108FE991E00E9446
:100E1000861061E081E00E944A1080EB91E00E9420
:100E20008610089580918D020E94381380938B0361
:100E300080918E020E94381380938C0380918F02E0
:100E40000E94381380938D03809190020E94381382
:100E500080938E0310928F0310929003109291034F
:100E6000109292030895EF92FF920F931F9366E6FC
:100E7000E62E64E0F62E970121503040A701425043
:100E80005040B70163507040870180EA0E94AE1164
:100E9000A7014E5F5F4FB7016F5F7F4F83E090E028
:100EA000E80EF91E970180EA0E9444111F910F91EC
:100EB000FF90EF9008950F931F93CF93DF93CDB7DB
:100EC000DEB726970FB6F894DEBF0FBECDBF4AE05F
:100ED00050E08E010F5F1F4FB8010E94E314C8015C
:100EE0000E94861026960FB6F894DEBF0FBECDBFC7
:100EF000DF91CF911F910F9108950F931F93CF937F
:100F0000DF93CDB7DEB726970FB6F894DEBF0FBEDE
:100F1000CDBF4AE050E08E010F5F1F4FB8010E9425
:100F2000E314C8010E94F50E26960FB6F894DEBFB2
:100F30000FBECDBFDF91CF911F910F9108958FEB21
:100F400091E00E94F50E8CE20E94E30E8091620413
:100F5000817090E00E947D078CE20E94E30E8091F8
:100F600062048695817090E00E947D078CE20E9469
:100F7000E30E8091620486958695817090E00E94D0
:100F80007D078CE20E94E30E80915D0290E00E945A
:100F90007D078CE20E94E30E89E191E00E94F50E4C
:100FA000089580915D028F3F39F4A3E0B0E00E9484
:100FB0007115802D80935D020E949F0780915D02D4
:100FC000815080935D028F3F01F580916204982FDC
:100FD000977F9093620480FD0CC09160997F9093FD
:100FE00062040E945102C69A81E090E00E94AC0324
:100FF000089581FF0AC0857F8460809362040E9407
:101000009D0183E090E00E94AC0308954F925F92AF
:101010006F927F928F929F92AF92BF92CF92DF9208
:10102000FF920F931F93CF93DF93AA24BB248824AE
:101030009924E6EC4E2EE1E05E2E79E1672E71E018
:10104000772ECC24DD248601080D191DE801C25637
:10105000DB4F88818881F880C2010E94F50E8CE206
:101060000E94E30EC8010E947D078CE20E94E30EFD
:10107000C5010E947D078CE20E94E30EC6010E941A
:101080007D078CE20E94E30E80E090E00E947D07E5
:101090008CE20E94E30E80E090E0FF2011F081E0FE
:1010A00090E00E947D078CE20E94E30E888190E030
:1010B0000E947D078CE20E94E30EC3010E94F50EA0
:1010C0000894C11CD11C88E0C816D10409F0BBCF1C
:1010D0000894A11CB11C88E090E0880E991E98E04D
:1010E000A916B10409F0ADCFDF91CF911F910F91F7
:1010F000FF90DF90CF90BF90AF909F908F907F90A8
:101100006F905F904F900895AF92BF92CF92DF9211
:10111000FF920F931F93CF93DF93CDB7DEB7269740
:101120000FB6F894DEBF0FBECDBF8C01D62EF42EC5
:10113000109288044AE050E0BE016F5F7F4F0E942A
:10114000E3141016110644F4FF2031F06DEC71E049
:1011500088E894E00E94D814DD2001F1DE011196A8
:10116000FD0101900020E9F73197FE2EFA1A0D2DAE
:1011700010E001501040AFECAA2EA1E0BA2EF8E822
:10118000CF2EF4E0DF2E05C0B501C6010E94D814B1
:10119000F3948F2D90E008171907B4F7BE016F5F25
:1011A0007F4F88E894E00E94D81426960FB6F894F2
:1011B000DEBF0FBECDBFDF91CF911F910F91FF908A
:1011C000DF90CF90BF90AF9008950F931F938091C1
:1011D000640440E062E090E00E94840808E814E0C3
:1011E000C8010E94F50E8EE20E94E30E8091650414
:1011F00040E062E090E00E948408C8010E94F50E81
:101200008EE20E94E30E8091660440E062E090E08E
:101210000E948408C8010E94F50E80E20E94E30E3D
:101220008091670440E062E090E00E948408C80179
:101230000E94F50E8AE30E94E30E8091680440E06C
:1012400062E090E00E948408C8010E94F50E8AE3E3
:101250000E94E30E8091690440E062E090E00E9409
:101260008408C8010E94F50E8CE20E94E30E80E81B
:1012700090E01F910F9108950F931F9381ED91E0DE
:101280000E94F50E8CE20E94E30E0E94E50860E0E9
:10129000809187030E94871309E110E09C01209F41
:1012A000C001219F900D309F900D112464E070E0EB
:1012B0000E942815CB018A5C98400E947D078CE231
:1012C0000E94E30E61E0809187030E9487139C01D6
:1012D000209FC001219F900D309F900D112464E04C
:1012E00070E00E942815CB018A5C98400E947D071F
:1012F0008CE20E94E30E62E0809187030E948713D4
:101300009C01209FC001219F900D309F900D1124C2
:1013100064E070E00E942815CB018A5C98400E942E
:101320007D078CE20E94E30E63E0809187030E94B8
:1013300087139C01209FC001219F900D309F900D2D
:10134000112464E070E00E942815CB018A5C98406B
:101350000E947D078CE20E94E30E89E191E00E94E9
:10136000F50E1F910F910895CF93DF9381ED91E0DA
:101370000E94F50E8CE20E94E30E0E94E508CEE783
:10138000D4E0899199910E947D078CE20E94E30E3E
:1013900084E0C638D807A9F789E191E00E94F50EEC
:1013A000DF91CF910895CF93DF9388ED91E00E9474
:1013B000F50E8CE20E94E30E0E94E5088091620423
:1013C000817090E00E947D078CE20E94E30E809184
:1013D00062048695817090E00E947D078CE20E94F5
:1013E000E30E8091620486958695817090E00E945C
:1013F0007D078CE20E94E30E80916D04817090E085
:101400000E947D078CE20E94E30E80916D04869518
:10141000817090E00E947D078CE20E94E30E809133
:101420006D0486958695817090E00E947D078CE220
:101430000E94E30E80916D04869586958695817055
:1014400090E00E947D078CE20E94E30E80916D0483
:101450008295817090E00E947D078CE20E94E30EED
:1014600080916D0482958695817090E00E947D0741
:101470008CE20E94E30E80E30E94E30E8CE20E9465
:10148000E30EC0E0D0E0FE01ED56FC4F808190E01D
:101490000E947D078CE20E94E30E2196C830D105A0
:1014A00091F789E191E00E94F50EDF91CF910895C7
:1014B0008091860481FFD5C0DD98DE98DF980E9478
:1014C0005E1060E080E00E944A10E0916304F0E06A
:1014D000EE0FFF1FED58FD4F808191810E94861015
:1014E00080E20E9466108091640440E062E090E037
:1014F0000E94840888E894E00E9486108EE20E9490
:1015000066108091650440E062E090E00E948408EB
:1015100088E894E00E94861080E20E94661080E2D3
:101520000E94661080E20E9466108091670440E08D
:1015300062E090E00E94840888E894E00E948610AF
:101540008AE30E9466108091680440E062E090E0C7
:101550000E94840888E894E00E94861061E080E0A0
:101560000E944A108FED91E00E94861080916204E3
:1015700080FF06C086EE91E00E948610DE9A09C0C8
:1015800083FF03C08DEE91E002C087EF91E00E94DF
:10159000861061E086E00E944A108091620481FF1B
:1015A00004C080E092E00E9486108091620482FF75
:1015B0000BC08BE092E00E9486108091B5038823D7
:1015C00011F0DE9A01C0DE9880916D0480FF0AC0A0
:1015D00062E080E00E944A1086E192E00E9486105C
:1015E000DD9A09C062E080E00E944A1086E292E043
:1015F0000E948610DD988091620483FF1BC062E028
:1016000080E00E944A1086E392E00E94861080915A
:101610005D0240E063E090E00E94840888E894E086
:101620000E94861082E492E00E9486108091B503A9
:101630008111DE9A60E08DE00E944A108091B5032E
:10164000882321F01092B5038AE304C081E08093DF
:10165000B50380E20E946610809186048D7F80939E
:10166000860480918A038350823040F48FEF809308
:101670005C028091860488608093860408950E94AD
:10168000580A08950F931F93CF93DF93CDB7DEB71A
:1016900025970FB6F894DEBF0FBECDBF8091C9036A
:1016A000833209F007C120E030E0AE014F5F5F4FA9
:1016B000F901E653FC4F8081FA01E20FF31F8083AA
:1016C0002F5F3F4F2530310599F7CA010E94BA14A8
:1016D0008C0120E030E0AE014F5F5F4FF901E15334
:1016E000FC4F8081FA01E20FF31F80832F5F3F4F91
:1016F0002530310599F7CA010E94BA14BC0181E076
:10170000083F180709F470C081E0093F180760F529
:10171000023D110509F47CC0033D110568F406364D
:10172000110509F48DC00736110509F48CC0053682
:10173000110509F08EC069C081E0053F180709F462
:1017400047C081E0063F180728F40C3D110509F059
:1017500080C07CC081E0063F1807F1F181E0073FBF
:10176000180709F076C03CC082E00436180709F477
:1017700058C082E00536180790F481E00A3F180748
:10178000E1F181E00A3F1807A0F181E00B3F180763
:10179000C1F182E00336180709F05BC03FC082E068
:1017A0000D36180709F443C082E00E36180730F4EE
:1017B00082E00536180709F04CC036C082E00E36CC
:1017C0001807C1F182E00F36180709F042C035C092
:1017D00080EA0E94D71272C080EA0E94BA126EC0DC
:1017E00080EA0E949D126AC0605D80EA0E947312C6
:1017F00065C080EA0E94431261C080EA0E942F12F5
:101800005DC080EA0E941B1259C0A3E0B0E002C094
:10181000A4E0B0E0062E0E947E1550C0A7E0B0E024
:10182000F9CFA8E0B0E0F6CFA9E0B0E0F3CFACE0AC
:10183000B0E0F0CFADE0B0E0EDCFAEE0B0E0EACFA9
:10184000AFE0B0E0E7CFA0E1B0E0E4CFA1E1B0E0ED
:10185000E1CFC801885C9040089720F4D801A65BCE
:10186000B040D8CFF801EC52F140E034F10550F42B
:10187000D801AA50B140062E0E947E15E256FB4FB9
:1018800060831CC0F801E655F440E430F10578F4BB
:10189000D801AA0FBB1FAA54B8400B010E948A1599
:1018A000EE0FFF1FE259FB4F7183608307C087E48F
:1018B00092E002C083E592E00E94F50E25960FB6F5
:1018C000F894DEBF0FBECDBFDF91CF911F910F9176
:1018D0000895982F863211F41092B603E091B60362
:1018E000F0E0E854FC4F90838091B6038F5F8093C3
:1018F000B6038091B603803111F41092B6039A308A
:10190000D1F420E030E008C0F0E0DF01A854BC4F83
:101910008C91E853FC4F8083E22F8091B6032F5FB8
:101920003F4FE81788F38091B6038093B703109276
:10193000B6030E94420B0895CF93DF930E94C80E16
:10194000EC0190FD8BC0FC01BB97E035F10508F080
:1019500082C0EA5BFF4FEE0FFF1F0590F491E02D70
:1019600009940E94850677C00E94760674C00E9482
:101970008F0671C080916C04826003C080916C04FA
:10198000816080936C0467C01E9A65C01E9863C016
:101990001F9A61C01F985FC0C79A5DC0C7985BC09F
:1019A000C69A59C0C69857C0C59A55C0C59853C065
:1019B0001C9A51C01C984FC01D9A4DC01D984BC019
:1019C000C39A49C0C39847C080916D04826003C028
:1019D00080916D048D7F80936D043DC080916D0476
:1019E0008460F9CF80916D048B7FF5CF80916D0479
:1019F0008860F1CF80916D04877FEDCF80916D0479
:101A00008061E9CF80916D048F7EE5CF80916D0478
:101A10008062E1CF80916D048F7DDDCF809187045E
:101A20008F5F8093870480917A04815080937A0439
:101A300080916A0481500DC0809187048150809309
:101A4000870480917A048F5F80937A0480916A047E
:101A50008F5F80936A048C2F0E94690CDF91CF9175
:101A6000089581E0809363048FE1809364048CE0A7
:101A70008093650487E08093660487E18093670420
:101A80008BE3809368048FE2809369040E940701CE
:101A90008CE00E94A0108FE290E00E94AD0E78943E
:101AA00080E00E94CD03CA9B03C081E00E94CD0369
:101AB0000E942C1484E886B983B7896683BF8CE0C2
:101AC00085BD80E383BD87B7806887BF83E08EBD17
:101AD0000E9413060E940307809162048E7F809308
:101AE000620480916D048F618F7D80936D040E94EC
:101AF000680241E060E0809187030E94A31341E007
:101B000061E0809187030E94A31341E062E080912D
:101B100087030E94A31341E063E0809187030E9442
:101B2000A31341E062E0809187030E94261441E004
:101B300062E0809187030E94EC1341E063E08091B2
:101B400087030E94261440E063E0809187030E948F
:101B5000EC130E943F0B0E94F9010E94D6060E94DE
:101B600012070E9430010E941C0680916D0480FFC4
:101B700003C00E949C0C17C080916B04909162047A
:101B800081FF07C090FD0FC093FD0DC00E94850628
:101B90000AC090FF02C00E9476068091620483FF13
:101BA00002C00E948F068091790483FF22C0809139
:101BB000620481FF19C08091A303882311F41D9A48
:101BC0001E9A9091A30380917804981711F40E94B3
:101BD000B9018091A3038F5F8093A3038091A30336
:101BE0008A3011F41092A30380917904877F809347
:101BF00079048091790480FF2EC080916C0481600B
:101C000080936C048091620483FF02C00E94D1071C
:101C10000E9433078091880390918903981730F0D0
:101C20008F5F80938803891708F01D988091620464
:101C300082FF0CC08091A5038F5F8093A5039091D4
:101C40007D04891719F41F981092A50380917904D7
:101C50008E7F809379048091790481FF0DC080E0AC
:101C60000E949E0680916C04846080936C04809135
:101C700079048D7F8093790480916C0480FF07C084
:101C80000E94D30980916C048E7F80936C048091B4
:101C90006C0482FF07C00E94B40980916C048B7FA2
:101CA00080936C0480916C0481FF53CF0E940608DE
:101CB00080916C048D7F80936C044BCF1F920F92A8
:101CC0000FB60F9211242F938F939F93EF93FF934F
:101CD0009BB12CB1E0911A04EF5FEF7180911B046E
:101CE000E81711F482E008C0892F8871E0931A0484
:101CF000F0E0E850FC4F208380931C04FF91EF91AB
:101D00009F918F912F910F900FBE0F901F9018955C
:101D10001F920F920FB60F9211248F939F93EF9300
:101D2000FF939091180480911904981761F0E09145
:101D30001904EF5FEF71E0931904F0E0E852FC4FF3
:101D400080818CB901C05598FF91EF919F918F913F
:101D50000F900FBE0F901F9018959C0110921804C1
:101D60001092190410921A0410921B04129A1A9AD3
:101D700097FF03C082E08BB93F77832F9927809329
:101D8000900029B988E98AB986E080939500089582
:101D900090911A0480911B04981719F480E091E047
:101DA0000895E0911B04EF5FEF71E0931B04F0E0F6
:101DB000E850FC4F208180911C0490E0982F8827E8
:101DC000820F911D0895282F909118049F5F9F7195
:101DD000809119049817E1F3E92FF0E0E852FC4FE5
:101DE000208390931804559A0895CF93DF93EC01C4
:101DF00003C021960E94E30E88818823D1F7DF91EA
:101E0000CF910895CF93DF93EC0102C00E94E30EBF
:101E1000FE01219684918823C9F7DF91CF9108951F
:101E20001F920F920FB60F9211242F938F939F93AF
:101E3000EF93FF9390919B0020919C00E0915F04B1
:101E4000EF5FEF7180916004E81711F482E008C041
:101E5000892F8871E0935F04F0E0E35CFB4F2083FF
:101E600080936104FF91EF919F918F912F910F903B
:101E70000FBE0F901F9018951F920F920FB60F92E2
:101E800011248F939F93EF93FF9390915D04809122
:101E90005E04981769F0E0915E04EF5FEF71E093E4
:101EA0005E04F0E0E35EFB4F808180939C0005C000
:101EB00080919A008F7D80939A00FF91EF919F917E
:101EC0008F910F900FBE0F901F9018959C0110924C
:101ED0005D0410925E0410925F041092600497FFFC
:101EE00004C082E080939B003F77832F99278093E3
:101EF00098002093990088E980939A0086E0809367
:101F00009D00089590915F0480916004981719F4E2
:101F100080E091E00895E0916004EF5FEF71E0935D
:101F20006004F0E0E35CFB4F20818091610490E06D
:101F3000982F8827820F911D0895282F90915D0476
:101F40009F5F9F7180915E049817E1F3E92FF0E0A5
:101F5000E35EFB4F208390935D0480919A00806242
:101F600080939A000895CF93DF93EC0103C02196EC
:101F70000E949D0F88818823D1F7DF91CF9108952A
:101F8000CF93DF93EC0102C00E949D0FFE012196CA
:101F900084918823C9F7DF91CF910895AC9A00C04E
:101FA000AC980895CF93DF93662311F0AE9A01C0E9
:101FB000AE98AD98A39AA29AA19AA09AA898A99827
:101FC000AA98AB9887FDA89AC82F86FDA99AC5FD47
:101FD000AA9AC4FDAB9A0E94CE0FA898A998AA9875
:101FE000AB98C3FDA89AC2FDA99AC1FDAA9AC0FDEB
:101FF000AB9A0E94CE0FAB9AAA9AA99AA89ADF919F
:10200000CF910895882311F0AE9A01C0AE98AD9A91
:10201000A398A298A198A098AC9A00C09B9B02C0DC
:1020200080E101C080E09A998062999980649899D2
:102030008068AC9800C0AC9A00C09B9981609A9966
:1020400082609999846098998860AC9890E008952E
:1020500080E00E94021087FDFBCF87E090E00197AF
:10206000F1F780E00E94021090E008951F93182F6E
:102070000E94281060E0812F0E94D20F1F910895C6
:102080001F93182F0E94281061E0812F0E94D20F09
:102090001F910895662311F4805809C0613011F42E
:1020A000805405C0623011F4805701C080530E94F3
:1020B000361008950E94281090E0089581E00E9453
:1020C0003610089582E00E94361008951F93182F4D
:1020D0000E942810982F1A3099F4803110F480E46F
:1020E0000BC08054803110F480E106C090519033D1
:1020F00010F480E501C080E080580E94361004C0D2
:1021000061E0812F0E94D20F1F910895CF93DF933A
:10211000EC0102C00E94661089918823D9F7DF91F3
:10212000CF910895CF93DF93EC0102C00E94661017
:10213000FE01219684918823C9F7DF91CF910895FC
:10214000FF920F931F93F82EA69AA59AA49AA39A8A
:10215000A29AA19AA09A80E696EE0197F1F7AA9A20
:10216000AB9A0E94CE0F80EE97E40197F1F70E94A0
:10217000CE0F0BEE10E0C8010197F1F70E94CE0FD1
:10218000C8010197F1F7AB980E94CE0FC8010197E3
:10219000F1F788E20E94361088E00E9436100E9413
:1021A0005E1086E00E9436108F2D0E9436101F911F
:1021B0000F91FF900895282F22952F709AE0299F64
:1021C000900111248F70820F90E00895282F6AE00B
:1021D0000E941C15482F50E084E0440F551F8A953B
:1021E000E1F7822F0E941C15940F892F90E008952B
:1021F0000F931F93162F042F0E945C14812F0E94AF
:102200009014802F0E9490140E9488141F910F91A7
:1022100008950E94F81008950F931F93082F162F0A
:102220000E945C14812F0E949014802F8F5F0E9467
:1022300084140E94AF14182F0E948814812F90E0FC
:102240001F910F9108950E940C1190E0089561E094
:102250000E940C110E94DB1090E0089562E00E9441
:102260000C110E94DB1090E0089563E00E940C11B5
:102270000E94DB1090E0089564E00E940C118F73BF
:102280000E94DB1090E00895AF92BF92CF92DF9250
:10229000EF92FF921F93182F7B016A0159010E9450
:1022A0003C11F7018083812F0E943511F601808354
:1022B000812F0E942E11F50180831F91FF90EF90D6
:1022C000DF90CF90BF90AF900895FF920F931F9330
:1022D000F82E65E00E940C11182F12951695169590
:1022E000137065E08F2D0E940C11082F0295069542
:1022F00006950370101779F0402F63E18F2D0E942F
:10230000F81061E18F2D0E940C118F5F482F61E161
:102310008F2D0E94F81061E18F2D0E940C11080F83
:10232000802F90E01F910F91FF90089566E00E942A
:102330000C118F710E94DB1090E0089565E00E94FF
:102340000C118F730E94DB1090E0089566E00E94EC
:102350000C1182958695877090E008958F929F92D8
:10236000AF92BF92CF92DF92FF920F931F93F82EFE
:102370006B015A0149010E94A611F60180838F2D3D
:102380000E949E11F50180838F2D0E949611F40109
:1023900080838F2D0E946511F80180831F910F911A
:1023A000FF90DF90CF90BF90AF909F908F90089557
:1023B0001F93182F40E060E00E94F81065E0812F25
:1023C0000E940C118295869586958370482F63E153
:1023D000812F0E94F8101F9108951F93182F60E01D
:1023E0000E940C118F77482F60E0812F0E94F81017
:1023F0001F9108951F93182F60E00E940C118068B0
:10240000482F60E0812F0E94F8101F9108950F93CC
:102410001F93182F062F0E94FA11802F0E94E6109A
:10242000482F61E0812F0E94F810812F0E94ED114A
:102430001F910F9108950F931F93182F062F0E943D
:10244000FA11802F0E94E610482F62E0812F0E942F
:10245000F810812F0E94ED111F910F9108950F9395
:102460001F93182F062F0E94FA11802F0E94E6104A
:10247000482F63E0812F0E94F810812F0E94ED11F8
:102480001F910F9108950F931F93182F062F0E94ED
:10249000FA11802F0E94E610482F64E0812F0E94DD
:1024A000F810812F0E94ED111F910F910895CF9286
:1024B000DF92FF920F931F93F82EFB018A016901AF
:1024C00060810E944312F80160818F2D0E942F12BB
:1024D000F60160818F2D0E941B121F910F91FF90BA
:1024E000DF90CF900895FF920F931F93F82E462F01
:1024F000062F0370401B61E10E94F8100295000F47
:10250000000F007C402F63E18F2D0E94F81065E0E2
:102510008F2D0E940C11182F1F738F2D0E94FA11FE
:10252000102B412F65E08F2D0E94F8108F2D0E94F7
:10253000ED111F910F91FF900895FF920F931F933C
:10254000182FF62E66E00E940C11082F007E812FB6
:102550000E94FA118F2D0E94E610082B402F66E092
:10256000812F0E94F810812F0E94ED111F910F9171
:10257000FF900895FF920F931F93182FF62E65E09A
:102580000E940C11082F007C812F0E94FA118F2DC0
:102590000E94E610082B402F65E0812F0E94F81062
:1025A000812F0E94ED111F910F91FF900895FF92CE
:1025B0000F931F93F82E062F66E00E940C11182F20
:1025C0001F718F2D0E94FA110295000F007E102BB3
:1025D000412F66E08F2D0E94F8108F2D0E94ED1183
:1025E0001F910F91FF900895AF92BF92CF92DF920B
:1025F000FF920F931F93F82EFB016A01590160812E
:102600000E94D712F60160818F2D0E94BA12F50147
:1026100060818F2D0E949D12F80160818F2D0E9494
:1026200073121F910F91FF90DF90CF90BF90AF90EA
:1026300008951F93162F0E945C14812F0E949014FE
:102640000E9488141F9108950E94191308951F93E2
:10265000182F0E945C14812F8F5F0E9484140E94A7
:10266000AF14182F0E948814812F90E01F910895B5
:102670000E94271390E00895CF93DF938F5F0E940D
:102680005C14CEEDD4E00E94A414899384E0C13E92
:10269000D807C9F70E94AF148093E1040E94881400
:1026A000DF91CF910895CF93DF930E945C14C2EE27
:1026B000D4E089910E94901484E0C63ED807C9F7FF
:1026C0000E948814DF91CF9108951F93182F84EBF7
:1026D0008093E2046093E3041092E4041092E50412
:1026E000812F0E945313812F0E943C138091DF049D
:1026F00090E01F91089595EB9093E2046093E304BA
:102700004093E4041092E5040E94531308951F932C
:10271000182F84E68093E2046093E3041092E404AB
:102720001092E504812F0E945313812F0E943C13C5
:102730008091DF0490E0982F88272091E004820F99
:10274000911D1F9108959EE69093E2046093E30427
:102750004093E4041092E5040E94531308951F93DC
:10276000182F6093E2044093E3041092E404109263
:10277000E5040E945313812F0E943C138091DF04D3
:1027800090E01F910895462F6FE80E94AF1390E0EC
:102790000895462F65E80E94AF1390E00895462FF4
:1027A0006BE70E94AF1390E008956093E2044093BA
:1027B000E3042093E4041092E5040E945313089567
:1027C000242F462F6EE80E94D5130895242F462FFC
:1027D00064E80E94D5130895242F462F6AE70E94CB
:1027E000D51308956093E2044093E3042093E40436
:1027F0001092E5040E9453130895242F462F6DE88C
:102800000E94F2130895242F462F63E80E94F213CA
:102810000895242F462F69E70E94F21308956093CC
:10282000E2044093E3042093E4041092E5040E9440
:1028300053130895242F462F6CE80E940F14089517
:10284000242F462F62E80E940F140895242F462F4C
:1028500068E70E940F1408951092710081E480933C
:1028600070000895982F84EA80937400809174001A
:1028700087FFFCCF80917100887F883029F08031FC
:1028800019F081E090E008959093730084E88093BC
:1028900074008091740087FFFCCF20917100287F25
:1028A000283119F480E090E0089580E090E0203431
:1028B00011F081E090E00895982F84EA80937400ED
:1028C0008091740087FFFCCF80917100887F8830F1
:1028D00011F0803191F79093730084E88093740035
:1028E0008091740087FFFCCF80917100887F8032D7
:1028F00011F0883541F484E980937400809174006C
:1029000084FFDBCFFBCF08950E94321490E008953E
:1029100084E9809374008091740084FDFCCF089555
:102920008093730084E8809374008091740087FF23
:10293000FCCF8091710020E030E0887F883211F078
:1029400021E030E0C901089584EC80937400809107
:10295000740087FFFCCF8091730090E0089584E8B5
:10296000809374008091740087FFFCCF8091730086
:1029700090E00895FC0188279927E894219120325E
:10298000E9F3293010F02E30C8F32B3241F02D320C
:1029900039F4689404C00E940415820F911D21919E
:1029A00020532A30C0F31EF4909581959F4F0895CF
:1029B000FB01DC010D900020E9F7119701900D92C9
:1029C0000020E1F70895FB019F01E8944230C4F034
:1029D0004532B4F44A3029F497FB1EF49095819562
:1029E0009F4F642F77270E945D15805D8A330CF01E
:1029F000895D8193CB010097A1F716F45DE25193B5
:102A00001082C9010C940C157AE0979F902D879F36
:102A1000802D910D11240895DC01FC01672F719127
:102A20007723E1F7329704C07C916D9370836291B4
:102A3000AE17BF07C8F30895991B79E004C0991F2A
:102A4000961708F0961B881F7A95C9F78095089508
:102A500097FB092E07260AD077FD04D02ED006D08A
:102A600000201AF4709561957F4F0895F6F79095C0
:102A700081959F4F0895A1E21A2EAA1BBB1BFD0151
:102A80000DC0AA1FBB1FEE1FFF1FA217B307E4074D
:102A9000F50720F0A21BB30BE40BF50B661F771FA5
:102AA000881F991F1A9469F7609570958095909585
:102AB0009B01AC01BD01CF010895AA1BBB1B51E1D5
:102AC00007C0AA1FBB1FA617B70710F0A61BB70B9E
:102AD000881F991F5A95A9F780959095BC01CD0143
:102AE0000895E199FECFBFBBAEBBE09A11960DB23F
:102AF0000895F7DFE02DF5DFF02D0895E199FECF81
:102B0000BFBBAEBB0DBA11960FB6F894E29AE19A2C
:102B10000FBE0895F3DF012CF1DF11240895FFCFDC
:102B20002441435357313B0030302E30313B007845
:102B3000783B78783B78783B002A45410D0024416A
:102B4000434857313B0041544D4547413132383BB2
:102B50000031343734353630303B00485730322E70
:102B600030303B00535730322E31613B0032303031
:102B70003830363234313230303B002441434D530B
:102B8000470041432000454550524F4D20494E4992
:102B90005400416C61726D20436F6E74726F6C20D3
:102BA000566572733A204143303231610D004572EF
:102BB000723A2052656D6F7465626574722E0041C1
:102BC0006C61726D4374726C20414330323161002C
:102BD000535541524B2E434F4D2C32303038002448
:102BE0004143434E5400244143524F54002B003084
:102BF00000244B4C53544100244143535441004D55
:102C00004F44453A200053434841524600534348FD
:102C100041455246454E00554E53434841524600A9
:102C2000564F52414C41524D20200041555347458B
:102C30004C4F4553540042656469656E756E673A42
:102C4000204645524E0042656469656E756E673A6E
:102C50002048414E4400434F554E54444F574E3A3E
:102C600020002073656300434D44204552524F526B
:102C70000D0A004E4F20434D440D0A00FFFF4D6FDB
:102C8000004469004D6900446F00467200536100C2
:102C9000536F005E026102640267026A026D027095
:102CA000024155530045494E008102850240414290
:102CB0004300000000554E42454B414E4E54455294
:102CC000204645484C4552005343484152465343E1
:102CD00048414C54554E47204552464F4C475400AE
:102CE000564F52414C41524D2041555347454C4F50
:102CF00045535400414C41524D494552554E472091
:102D000041555347454C4F45535400414B54495648
:102D1000494552554E47204142474542524F43484C
:102D2000454E00414B544956494552554E47204760
:102D30004553544152544554004445414B5449561F
:102D4000494552554E470053595354454D20474528
:102D50005354415254455400454550524F4D20491B
:102D60004E495449414C4953494552540052454DEE
:102D70004F5445424554524945422045494E005220
:102D8000454D4F54454245545249454220415553C3
:102D9000009502A802C002D402EB02030319032724
:0A2DA0000338034D035F033EFF01FB
:00000001FF
