:100000000C9496000C94B5000C94B5000C94B500BB
:100010000C94B5000C94B5000C94B5000C94B5008C
:100020000C94B5000C94BF020C94B5000C94B50070
:100030000C94B5000C94B5000C94C3000C94B5005E
:100040000C94B5000C94B5000C94720E0C949C0E9C
:100050000C94B5000C94B5000C94B5000C94B5004C
:100060000C94B5000C94B5000C94B5000C94B5003C
:100070000C94B5000C94B5000C94240F0C94500F04
:100080000C94B5000C94B5000C94B5001C0D2B0D10
:100090000E0D2B0D2B0D2B0D2B0D2B0D2B0D2B0DBD
:1000A0002B0D2B0D2B0D2B0D2B0D2B0D2B0D2B0D90
:1000B0002B0D2B0D2B0D2B0D2B0D2B0D2B0D2B0D80
:1000C000D40CE40CEE0C2B0D2B0DFE0C060D2B0DA1
:1000D0002B0D2B0DE00C2B0DC80CD80C2B0DD00CC0
:1000E000DC0CF60CC40C2B0D2B0DCC0C2B0D2B0D9E
:1000F0002B0D2B0D2B0D2B0DB70C2B0D2B0DBA0C27
:10010000D60CE80CF20CBE0CB40C020D0A0D2B0D33
:100110002B0D2B0DE20C2B0DCA0CDA0CB10CD20CF2
:10012000DE0CFA0CC60C2B0D2B0DCE0C11241FBEB1
:10013000CFEFD0E1DEBFCDBF13E0A0E0B1E0E8E457
:10014000FBE200E00BBF02C007900D92AA38B10796
:10015000D9F714E0AAE8B3E001C01D92A63EB107AA
:10016000E1F70E94310D0C94A3150C94000083B7A5
:10017000896683BF08958CE085BD80E383BD87B722
:10018000806887BF08951F920F920FB60F921124B7
:100190002F933F934F935F936F937F938F939F938F
:1001A000AF93BF93EF93FF93209176043091770440
:1001B00040E050E060E074E883E090E00E944F157A
:1001C000209530953DBD2CBD8091A4038F5F809319
:1001D000A4038091A40381BF9091A40380916A0439
:1001E000891720F480917A048093A403FF91EF9102
:1001F000BF91AF919F918F917F916F915F914F913F
:100200003F912F910F900FBE0F901F901895E4E62D
:10021000F0E080818E7F8083E5E6F0E080818E7F54
:100220008083D198D998D298DA98D498DC98D398CA
:10023000DB98D59ADD9AD69ADE9AD79ADF9A159AE4
:100240001D98BB9AC398179A1F98169A1E98BE9A23
:10025000C698BD9AC598BF9AC798149A1C980895D5
:10026000CF92DF92EF92FF920F931F93CF93DF9382
:1002700080E090E0FC01ED56FC4F10820196883042
:100280009105C1F700E010E0EE24FF24C0E0D0E0CB
:1002900083E9C82E83E0D82EC00ED11E9E012E0DFC
:1002A0003F1D22563B4FD9018C918C9190E0807F6D
:1002B000907060E170E00E943C15FB01D9012C9127
:1002C000F0E0E557FC4F808190E02F7002C09595DB
:1002D00087952A95E2F780FF0CC0F601208181E026
:1002E00090E00C2E02C0880F991F0A94E2F7282B89
:1002F00020832196C830D10589F60F5F1F4F88E013
:1003000090E0E80EF91E0830110509F0BFCFDF912B
:10031000CF911F910F91FF90EF90DF90CF900895B4
:10032000A5E0B0E00E948515802D809378041D9A89
:100330001E9A08951D9A1E9A0895AAE0B0E00E94A0
:100340008515802D809378041092A5031D988091C7
:100350006D0481FF03C01E981F9A03C01D9A83FD80
:100360001E9A82FF03C0C59AC79A089584FDC59A54
:1003700008951E981F98C798C698C5981C981D98F0
:10038000C398089587B9379A369A3699FECF369A28
:100390003699FECF379824B135B189E190E0AC01B0
:1003A000249FC001259F900D349F900D1124969598
:1003B0008795969587958A5C9840089580916B04FF
:1003C000CC9B05C0826080936B04DE9A04C08D7F55
:1003D00080936B04DE9880916B04CB9B05C0816099
:1003E00080936B04DD9A08958E7F80936B04DD9873
:1003F000089510928A038091630080FF11C080915C
:10040000B2038F5F8093B203813011F0873051F4D3
:1004100093E090938A03873029F49093B20302C04B
:100420001092B203C99B12C09091B1039F5F909349
:10043000B103913011F0973059F484E080938A032E
:10044000973031F483E08093B10302C01092B1037E
:10045000CA9B12C09091B0039F5F9093B0039130FC
:1004600011F0973059F485E080938A03973031F486
:1004700083E08093B00302C01092B00380916B04BC
:10048000CB9B02C0816001C08E7F80936B04809102
:100490006B04CC9B02C0826001C08D7F80936B0493
:1004A000089520E030E0D901AD56BC4F8C91F901A0
:1004B000E556FC4F80838C91D901A65EBF4F082E74
:1004C0000E9492152F5F3F4F2830310561F7089544
:1004D00020E030E0D901A65EBF4F0E948515802D37
:1004E000F901ED56FC4F8083D901AE5EBF4F0E94EB
:1004F0008515802DF901E357FD4F80832F5F3F4F16
:100500002830310539F720E030E0D901AE5DBF4F2A
:100510000E948515802DF901E256FB4F80832F5FE5
:100520003F4F2034310589F720E030E0D901AE5942
:10053000BF4F0E948D15CF01F901E259FB4F918306
:1005400080832E5F3F4F2830310581F7AFE0B0E068
:100550000E948515802D80938903A0E1B0E00E9460
:100560008515802D80937D04A1E1B0E00E94851562
:10057000802D80938703089583E08EBD08951F9298
:100580000F920FB60F9211242F938F939F93809108
:10059000AE039091AF0301969093AF038093AE03A7
:1005A0008436910549F480917904886080937904B8
:1005B0001092AF031092AE038091AC039091AD0303
:1005C00001969093AD038093AC038E55914049F40E
:1005D000809186048260809386041092AD0310920D
:1005E000AC038091AA039091AB0301969093AB0367
:1005F0008093AA03845F914049F4809179048460D8
:10060000809379041092AB031092AA038091A803FF
:100610009091A90301969093A9038093A803885E03
:10062000934049F480917904816080937904109219
:10063000A9031092A8038091A6039091A7030196A5
:100640009093A7038093A6038858934149F480911F
:1006500079048260809379041092A7031092A60314
:100660009F918F912F910F900FBE0F901F90189513
:10067000EF92FF920F931F9333E6E32E34E0F32EB5
:1006800083E080936304A7014F5F5F4F86E0809310
:10069000640497012E5F3F4F82E0809365048701D9
:1006A0000D5F1F4F88E080936604B70180EA0E94C7
:1006B00008138CE08093670486E28093680486E0E8
:1006C00090E0E80EF91E1092690497010894E10881
:1006D000F108A7010894E108F108B70180EA0E9437
:1006E0006B121F910F91FF90EF9008950F931F933E
:1006F00080E091E00E94090F08E011E0C8010E942B
:10070000090FC8010E94090F8FE091E00E94090FB4
:1007100089E191E00E94090F1F910F9108958EE1E8
:1007200091E00E94090F86E291E00E94090F81E3A7
:1007300091E00E94090F8BE391E00E94090F84E48D
:1007400091E00E94090F8DE491E00E94090F89E178
:1007500091E00E94090F08950F931F938C018BE580
:1007600091E00E94090F8CE20E94F70E82E691E070
:100770000E94090F000F111F0F581C4FF8018081B4
:1007800091810E94090F8CE20E94F70E89E191E0AD
:100790000E94090F1F910F910895882341F4A2E050
:1007A000B0E00E948515802D8A3A09F43BC20E9470
:1007B000721086E691E00E949A108AEAA2E0B0E008
:1007C000082E0E9492153AE0A3E0B0E0032E0E94AA
:1007D000921588E0A4E0B0E0082E0E94921580E413
:1007E00042E150E0DA01082E0E94921582E44F5F48
:1007F0005F4FDA01082E0E94921584E44F5F5F4F2D
:10080000DA01082E0E94921586E44F5F5F4FDA01ED
:10081000082E0E94921588E44F5F5F4FDA01082E80
:100820000E9492158AE44F5F5F4FDA01082E0E9402
:1008300092158CE44F5F5F4FDA01082E0E949215EB
:100840008EE44F5F5F4FDA01082E0E94921582E01E
:10085000A5E0B0E0082E0E94921524E6A6E0B0E0E4
:10086000022E0E9492159FEFA7E0B0E0092E0E9491
:100870009215A8E0B0E0092E0E949215A9E0B0E020
:10088000022E0E94921585E0AAE0B0E0082E0E9498
:100890009215ABE0B0E0032E0E94921586EEACE01C
:1008A000B0E0082E0E949215ADE0B0E0092E0E9443
:1008B0009215AEE0B0E0022E0E94921522E630E0E2
:1008C0008EEC9FEFD9010C010E949E152E5F3F4FC9
:1008D000B0E02A363B07A1F722E0AFE0B0E0022EFD
:1008E0000E94921584EBA0E1B0E0082E0E949215C0
:1008F0008EE3A1E1B0E0082E0E94921583E062E24F
:1009000070E0DB01082E0E94921585E16F5F7F4F3A
:10091000DB01082E0E9492158FEF6F5F7F4FDB0186
:10092000082E0E9492156F5F7F4FDB01082E0E94F8
:1009300092156F5F7F4FDB01082E0E9492156F5F4B
:100940007F4FDB01082E0E9492156F5F7F4FDB0106
:10095000082E0E9492156F5F7F4FDB01082E0E94C8
:1009600092156F5F7F4FDB01022E0E94921594E17A
:100970006F5F7F4FDB01092E0E9492156F5F7F4FE3
:10098000DB01082E0E9492156F5F7F4FDB01082E5E
:100990000E9492156F5F7F4FDB01082E0E94921517
:1009A0006F5F7F4FDB01082E0E9492156F5F7F4FB4
:1009B000DB01082E0E9492156F5F7F4FDB01082E2E
:1009C0000E94921591E06F5F7F4FDB01092E0E941C
:1009D000921590E06F5F7F4FDB01092E0E94921508
:1009E00097E06F5F7F4FDB01092E0E94921595E023
:1009F0006F5F7F4FDB01092E0E94921593E16F5FBD
:100A00007F4FDB01092E0E94921591E16F5F7F4FAE
:100A1000DB01092E0E94921597E16F5F7F4FDB018A
:100A2000092E0E9492156F5F7F4FDB01082E0E94F6
:100A300092156F5F7F4FDB01022E0E9492156F5F50
:100A40007F4FDB01022E0E94921596E06F5F7F4F71
:100A5000DB01092E0E94921594E06F5F7F4FDB014E
:100A6000092E0E94921592E16F5F7F4FDB01092EE4
:100A70000E94921590E16F5F7F4FDB01092E0E946B
:100A8000921596E16F5F7F4FDB01092E0E94921550
:100A90006F5F7F4FDB01082E0E9492156F5F7F4FC3
:100AA000DB01082E0E9492156F5F7F4FDB01082E3D
:100AB0000E9492156F5F7F4FDB01082E0E949215F6
:100AC0006F5F7F4FDB01082E0E9492156F5F7F4F93
:100AD000DB01082E0E9492156F5F7F4FDB01082E0D
:100AE0000E9492156F5F7F4FDB01082E0E949215C6
:100AF0006F5F7F4FDB01082E0E9492156F5F7F4F63
:100B0000DB01082E0E9492156F5F7F4FDB01082EDC
:100B10000E9492156F5F7F4FDB01082E0E94921595
:100B20006F5F7F4FDB01082E0E9492156F5F7F4F32
:100B3000DB01082E0E9492156F5F7F4FDB01082EAC
:100B40000E9492156F5F7F4FDB01082E0E94921565
:100B50006F5F7F4FDB01082E0E9492156F5F7F4F02
:100B6000DB01082E0E9492156F5F7F4FDB01082E7C
:100B70000E9492156F5F7F4FDB01082E0E94921535
:100B80006F5F7F4FDB01082E0E9492156F5F7F4FD2
:100B9000DB01082E0E9492156F5F7F4FDB01082E4C
:100BA0000E9492156F5F7F4FDB01082E0E94921505
:100BB0006F5F7F4FDB01082E0E9492156F5F7F4FA2
:100BC000DB01082E0E9492156F5F7F4FDB01082E1C
:100BD0000E9492156F5F7F4FDB01082E0E949215D5
:100BE0006F5F7F4FDB01082E0E9492156F5F7F4F72
:100BF000DB01082E0E9492156F5F7F4FDB01082EEC
:100C00000E9492156F5F7F4FDB01082E0E949215A4
:100C10006F5F7F4FDB01082E0E94921588E090E005
:100C20000E94AC03089582E791E00E94090F87E0DB
:100C300090E00E94AC030895CF93DF93809162040B
:100C400080FF34C0867009F04EC0C1E0D0E0FE01E4
:100C5000ED56FC4F9081FE01E556FC4F80819817C0
:100C600079F0809162049FEF90935D02857F8460AC
:100C7000809362040E949D0183E090E00E94AC0397
:100C80002196C830D10519F79091930380919B0369
:100C9000981749F1809162048A60809362040E94EF
:100CA000900182E090E00E94AC031DC040E050E063
:100CB00020E030E0F901ED56FC4F8081480F511DD6
:100CC0002F5F3F4F28303105A9F78091B3039091F2
:100CD000B4034817590719F01D9A109288035093CE
:100CE000B4034093B303DF91CF91089580916204E0
:100CF000807F809362048FEF80935D020E94B90130
:100D000086E090E00E94AC030895809162048860C0
:100D10008093620485E090E00E94AC030895809186
:100D2000620480FD0AC0877F809362048FEF809306
:100D30005D0284E090E00E94AC030895EF92FF9280
:100D40000F931F93CF93DF935EE6E52E54E0F52ECD
:100D50000EE714E0C0E0D0E06C2F809187030E9482
:100D60009B13F701219131917F012A5C384049E1C1
:100D700050E0BC01649FC001659F900D749F900D71
:100D8000112464E070E00E943C15260F371FF80123
:100D9000219331938F012196C430D105E9F6DF917B
:100DA000CF911F910F91FF90EF90089590916B0458
:100DB00090FF1CC080916D0491FF0BC080FD22C08C
:100DC000816080936D041D9889E090E00E94AC03DF
:100DD00008958E7F80936D041D9A62E080E00E94EA
:100DE0005E108EE891E00E949A10089580916D0443
:100DF00080FF08C08E7F80936D048AE090E00E949F
:100E0000AC031D9808950E9472108FE991E00E9432
:100E10009A1061E081E00E945E1080EB91E00E94F8
:100E20009A10089580918D020E944C1380938B0339
:100E300080918E020E944C1380938C0380918F02CC
:100E40000E944C1380938D03809190020E944C135A
:100E500080938E0310928F0310929003109291034F
:100E6000109292030895EF92FF920F931F9366E6FC
:100E7000E62E64E0F62E970121503040A701425043
:100E80005040B70163507040870180EA0E94C21150
:100E9000A7014E5F5F4FB7016F5F7F4F83E090E028
:100EA000E80EF91E970180EA0E9458111F910F91D8
:100EB000FF90EF9008950F931F93CF93DF93CDB7DB
:100EC000DEB726970FB6F894DEBF0FBECDBF4AE05F
:100ED00050E08E010F5F1F4FB8010E94F714C80148
:100EE0000E949A1026960FB6F894DEBF0FBECDBFB3
:100EF000DF91CF911F910F9108950F931F93CF937F
:100F0000DF93CDB7DEB726970FB6F894DEBF0FBEDE
:100F1000CDBF4AE050E08E010F5F1F4FB8010E9425
:100F2000F714C8010E94090F26960FB6F894DEBF89
:100F30000FBECDBFDF91CF911F910F9108958FEB21
:100F400091E00E94090F8CE20E94F70E80916204EA
:100F5000817090E00E947D078CE20E94F70E8091E4
:100F600062048695817090E00E947D078CE20E9469
:100F7000F70E8091620486958695817090E00E94BC
:100F80007D078CE20E94F70E80915D0290E00E9446
:100F90007D078CE20E94F70E89E191E00E94090F23
:100FA000089580915D028F3F39F4A3E0B0E00E9484
:100FB0008515802D80935D020E949F0780915D02C0
:100FC000815080935D028F3F01F580916204982FDC
:100FD000977F9093620480FD0CC09160997F9093FD
:100FE00062040E945102C69A81E090E00E94AC0324
:100FF000089581FF0AC0857F8460809362040E9407
:101000009D0183E090E00E94AC0308954F925F92AF
:101010006F927F928F929F92AF92BF92CF92DF9208
:10102000FF920F931F93CF93DF93AA24BB248824AE
:101030009924E6EC4E2EE1E05E2E79E1672E71E018
:10104000772ECC24DD248601080D191DE801C25637
:10105000DB4F88818881F880C2010E94090F8CE2F1
:101060000E94F70EC8010E947D078CE20E94F70ED5
:10107000C5010E947D078CE20E94F70EC6010E9406
:101080007D078CE20E94F70E80E090E00E947D07D1
:101090008CE20E94F70E80E090E0FF2011F081E0EA
:1010A00090E00E947D078CE20E94F70E888190E01C
:1010B0000E947D078CE20E94F70EC3010E94090F77
:1010C0000894C11CD11C88E0C816D10409F0BBCF1C
:1010D0000894A11CB11C88E090E0880E991E98E04D
:1010E000A916B10409F0ADCFDF91CF911F910F91F7
:1010F000FF90DF90CF90BF90AF909F908F907F90A8
:101100006F905F904F900895AF92BF92CF92DF9211
:10111000FF920F931F93CF93DF93CDB7DEB7269740
:101120000FB6F894DEBF0FBECDBF8C01D62EF42EC5
:10113000109288044AE050E0BE016F5F7F4F0E942A
:10114000F7141016110644F4FF2031F06DEC71E035
:1011500088E894E00E94EC14DD2001F1DE01119694
:10116000FD0101900020E9F73197FE2EFA1A0D2DAE
:1011700010E001501040AFECAA2EA1E0BA2EF8E822
:10118000CF2EF4E0DF2E05C0B501C6010E94EC149D
:10119000F3948F2D90E008171907B4F7BE016F5F25
:1011A0007F4F88E894E00E94EC1426960FB6F894DE
:1011B000DEBF0FBECDBFDF91CF911F910F91FF908A
:1011C000DF90CF90BF90AF9008950F931F938091C1
:1011D000640440E062E090E00E94840808E814E0C3
:1011E000C8010E94090F8EE20E94F70E80916504EB
:1011F00040E062E090E00E948408C8010E94090F6C
:101200008EE20E94F70E8091660440E062E090E07A
:101210000E948408C8010E94090F80E20E94F70E14
:101220008091670440E062E090E00E948408C80179
:101230000E94090F8AE30E94F70E8091680440E043
:1012400062E090E00E948408C8010E94090F8AE3CE
:101250000E94F70E8091690440E062E090E00E94F5
:101260008408C8010E94090F8CE20E94F70E80E8F2
:1012700090E01F910F9108950F931F9381ED91E0DE
:101280000E94090F8CE20E94F70E0E94E50860E0C0
:10129000809187030E949B1309E110E09C01209F2D
:1012A000C001219F900D309F900D112464E070E0EB
:1012B0000E943C15CB018A5C98400E947D078CE21D
:1012C0000E94F70E61E0809187030E949B139C01AE
:1012D000209FC001219F900D309F900D112464E04C
:1012E00070E00E943C15CB018A5C98400E947D070B
:1012F0008CE20E94F70E62E0809187030E949B13AC
:101300009C01209FC001219F900D309F900D1124C2
:1013100064E070E00E943C15CB018A5C98400E941A
:101320007D078CE20E94F70E63E0809187030E94A4
:101330009B139C01209FC001219F900D309F900D19
:10134000112464E070E00E943C15CB018A5C984057
:101350000E947D078CE20E94F70E89E191E00E94D5
:10136000090F1F910F910895CF93DF9381ED91E0C5
:101370000E94090F8CE20E94F70E0E94E508CEE75A
:10138000D4E0899199910E947D078CE20E94F70E2A
:1013900084E0C638D807A9F789E191E00E94090FD7
:1013A000DF91CF910895CF93DF9388ED91E00E9474
:1013B000090F8CE20E94F70E0E94E50880916204FA
:1013C000817090E00E947D078CE20E94F70E809170
:1013D00062048695817090E00E947D078CE20E94F5
:1013E000F70E8091620486958695817090E00E9448
:1013F0007D078CE20E94F70E80916D04817090E071
:101400000E947D078CE20E94F70E80916D04869504
:10141000817090E00E947D078CE20E94F70E80911F
:101420006D0486958695817090E00E947D078CE220
:101430000E94F70E80916D04869586958695817041
:1014400090E00E947D078CE20E94F70E80916D046F
:101450008295817090E00E947D078CE20E94F70ED9
:1014600080916D0482958695817090E00E947D0741
:101470008CE20E94F70E80E30E94F70E8CE20E943D
:10148000F70EC0E0D0E0FE01ED56FC4F808190E009
:101490000E947D078CE20E94F70E2196C830D1058C
:1014A00091F789E191E00E94090FDF91CF910895B2
:1014B0008091860481FFD5C0DD98DE98DF980E9478
:1014C000721060E080E00E945E10E0916304F0E042
:1014D000EE0FFF1FED58FD4F808191810E949A1001
:1014E00080E20E947A108091640440E062E090E023
:1014F0000E94840888E894E00E949A108EE20E947C
:101500007A108091650440E062E090E00E948408D7
:1015100088E894E00E949A1080E20E947A1080E2AB
:101520000E947A1080E20E947A108091670440E065
:1015300062E090E00E94840888E894E00E949A109B
:101540008AE30E947A108091680440E062E090E0B3
:101550000E94840888E894E00E949A1061E080E08C
:101560000E945E108FED91E00E949A1080916204BB
:1015700080FF06C086EE91E00E949A10DE9A09C0B4
:1015800083FF03C08DEE91E002C087EF91E00E94DF
:101590009A1061E086E00E945E108091620481FFF3
:1015A00004C080E092E00E949A108091620482FF61
:1015B0000BC08BE092E00E949A108091B5038823C3
:1015C00011F0DE9A01C0DE9880916D0480FF0AC0A0
:1015D00062E080E00E945E1086E192E00E949A1034
:1015E000DD9A09C062E080E00E945E1086E292E02F
:1015F0000E949A10DD988091620483FF1BC062E014
:1016000080E00E945E1086E392E00E949A10809132
:101610005D0240E063E090E00E94840888E894E086
:101620000E949A1082E492E00E949A108091B50381
:101630008111DE9A60E08DE00E945E108091B5031A
:10164000882321F01092B5038AE304C081E08093DF
:10165000B50380E20E947A10809186048D7F80938A
:10166000860480918A038350823040F48FEF809308
:101670005C028091860488608093860408950E94AD
:10168000580A08950F931F93CF93DF93CDB7DEB71A
:1016900025970FB6F894DEBF0FBECDBF8091C9036A
:1016A000833209F007C120E030E0AE014F5F5F4FA9
:1016B000F901E653FC4F8081FA01E20FF31F8083AA
:1016C0002F5F3F4F2530310599F7CA010E94CE1494
:1016D0008C0120E030E0AE014F5F5F4FF901E15334
:1016E000FC4F8081FA01E20FF31F80832F5F3F4F91
:1016F0002530310599F7CA010E94CE14BC0181E062
:10170000083F180709F470C081E0093F180760F529
:10171000023D110509F47CC0033D110568F406364D
:10172000110509F48DC00736110509F48CC0053682
:10173000110509F08EC069C081E0053F180709F462
:1017400047C081E0063F180728F40C3D110509F059
:1017500080C07CC081E0063F1807F1F181E0073FBF
:10176000180709F076C03CC082E00436180709F477
:1017700058C082E00536180790F481E00A3F180748
:10178000E1F181E00A3F1807A0F181E00B3F180763
:10179000C1F182E00336180709F05BC03FC082E068
:1017A0000D36180709F443C082E00E36180730F4EE
:1017B00082E00536180709F04CC036C082E00E36CC
:1017C0001807C1F182E00F36180709F042C035C092
:1017D00080EA0E94EB1272C080EA0E94CE126EC0B4
:1017E00080EA0E94B1126AC0605D80EA0E9487129E
:1017F00065C080EA0E94571261C080EA0E944312CD
:101800005DC080EA0E942F1259C0A3E0B0E002C080
:10181000A4E0B0E0062E0E94921550C0A7E0B0E010
:10182000F9CFA8E0B0E0F6CFA9E0B0E0F3CFACE0AC
:10183000B0E0F0CFADE0B0E0EDCFAEE0B0E0EACFA9
:10184000AFE0B0E0E7CFA0E1B0E0E4CFA1E1B0E0ED
:10185000E1CFC801885C9040089720F4D801A65BCE
:10186000B040D8CFF801EC52F140E034F10550F42B
:10187000D801AA50B140062E0E949215E256FB4FA5
:1018800060831CC0F801E655F440E430F10578F4BB
:10189000D801AA0FBB1FAA54B8400B010E949E1585
:1018A000EE0FFF1FE259FB4F7183608307C087E48F
:1018B00092E002C083E592E00E94090F25960FB6E0
:1018C000F894DEBF0FBECDBFDF91CF911F910F9176
:1018D0000895982F863211F41092B603E091B60362
:1018E000F0E0E854FC4F90838091B6038F5F8093C3
:1018F000B6038091B603803111F41092B6039A308A
:10190000D1F420E030E008C0F0E0DF01A854BC4F83
:101910008C91E853FC4F8083E22F8091B6032F5FB8
:101920003F4FE81788F38091B6038093B703109276
:10193000B6030E94420B0895CF93DF930E94DC0E02
:10194000EC0190FD8BC0FC01BB97E035F10508F080
:1019500082C0EA5BFF4FEE0FFF1F0590F491E02D70
:1019600009940E94850677C00E94760674C00E9482
:101970008F0671C080916C04826003C080916C04FA
:10198000816080936C0467C01E9A65C01E9863C016
:101990001F9A61C01F985FC0C79A5DC0C7985BC09F
:1019A000C69A59C0C69857C0C59A55C0C59853C065
:1019B0001C9A51C01C984FC01D9A4DC01D984BC019
:1019C000C39A49C0C39847C080916D04826003C028
:1019D00080916D048D7F80936D043DC080916D0476
:1019E0008460F9CF80916D048B7FF5CF80916D0479
:1019F0008860F1CF80916D04877FEDCF80916D0479
:101A00008061E9CF80916D048F7EE5CF80916D0478
:101A10008062E1CF80916D048F7DDDCF809187045E
:101A20008F5F8093870480917A04815080937A0439
:101A300080916A0481500DC0809187048150809309
:101A4000870480917A048F5F80937A0480916A047E
:101A50008F5F80936A048C2F0E94690CDF91CF9175
:101A6000089581E0809363048FE1809364048CE0A7
:101A70008093650487E08093660487E18093670420
:101A80008BE3809368048FE2809369040E940701CE
:101A90008CE00E94B4108FE290E00E94C10E789416
:101AA00080E00E94CD03CA9B03C081E00E94CD0369
:101AB0000E94401484E886B983B7896683BF8CE0AE
:101AC00085BD80E383BD87B7806887BF83E08EBD17
:101AD0000E9413060E940307809162048E7F809308
:101AE000620480916D048F618F7D80936D040E94EC
:101AF000680241E060E0809187030E94B71341E0F3
:101B000061E0809187030E94B71341E062E0809119
:101B100087030E94B71341E063E0809187030E942E
:101B2000B71341E062E0809187030E943A1441E0DC
:101B300062E0809187030E94001441E063E080919D
:101B400087030E943A1440E063E0809187030E947B
:101B500000140E943F0B0E94F9010E94D6060E94C9
:101B600012070E9430010E941C062091620422FF8D
:101B700010C080916D0481FF02C01F9A03C01D9A9E
:101B800083FD1E9A82FF03C0C59AC79A02C084FDD6
:101B9000C59A80916D0480FF03C00E949C0C17C001
:101BA00080916B04922F917081FF07C0992379F483
:101BB00023FD0DC00E9485060AC0992311F00E94E2
:101BC00076068091620483FF02C00E948F06809196
:101BD000790483FF22C08091620481FF19C0809143
:101BE000A303882311F41D9A1E9A9091A303809158
:101BF0007804981711F40E94B9018091A3038F5FB4
:101C00008093A3038091A3038A3011F41092A3035D
:101C100080917904877F809379048091790480FF93
:101C20002EC080916C04816080936C04809162046A
:101C300083FF02C00E94D1070E943307809188036E
:101C400090918903981730F08F5F809388038917EC
:101C500008F01D988091620482FF0CC08091A5035A
:101C60008F5F8093A50390917D04891719F41F98C5
:101C70001092A503809179048E7F809379048091DE
:101C8000790481FF0DC080E00E949E0680916C0463
:101C9000846080936C04809179048D7F80937904B3
:101CA00080916C0480FF07C00E94D30980916C046E
:101CB0008E7F80936C0480916C0482FF07C00E9429
:101CC000B40980916C048B7F80936C0480916C04C8
:101CD00081FF3FCF0E94060880916C048D7F809326
:101CE0006C0437CF1F920F920FB60F9211242F93CF
:101CF0008F939F93EF93FF939BB12CB1E0911A04C4
:101D0000EF5FEF7180911B04E81711F482E008C0C7
:101D1000892F8871E0931A04F0E0E850FC4F20838B
:101D200080931C04FF91EF919F918F912F910F90C1
:101D30000FBE0F901F9018951F920F920FB60F9223
:101D400011248F939F93EF93FF93909118048091A8
:101D50001904981761F0E0911904EF5FEF71E093B7
:101D60001904F0E0E852FC4F80818CB901C055980D
:101D7000FF91EF919F918F910F900FBE0F901F9049
:101D800018959C01109218041092190410921A04CC
:101D900010921B04129A1A9A97FF03C082E08BB923
:101DA0003F77832F99278093900029B988E98AB9D2
:101DB00086E080939500089590911A0480911B0409
:101DC000981719F480E091E00895E0911B04EF5F0B
:101DD000EF71E0931B04F0E0E850FC4F208180910C
:101DE0001C0490E0982F8827820F911D0895282FBA
:101DF000909118049F5F9F71809119049817E1F3E7
:101E0000E92FF0E0E852FC4F208390931804559A94
:101E10000895CF93DF93EC0103C021960E94F70E43
:101E200088818823D1F7DF91CF910895CF93DF93F5
:101E3000EC0102C00E94F70EFE01219684918823D6
:101E4000C9F7DF91CF9108951F920F920FB60F92AD
:101E500011242F938F939F93EF93FF9390919B0067
:101E600020919C00E0915F04EF5FEF71809160042E
:101E7000E81711F482E008C0892F8871E0935F04AD
:101E8000F0E0E35CFB4F208380936104FF91EF91CE
:101E90009F918F912F910F900FBE0F901F901895CB
:101EA0001F920F920FB60F9211248F939F93EF936F
:101EB000FF9390915D0480915E04981769F0E09122
:101EC0005E04EF5FEF71E0935E04F0E0E35EFB4FD2
:101ED000808180939C0005C080919A008F7D8093C3
:101EE0009A00FF91EF919F918F910F900FBE0F90ED
:101EF0001F9018959C0110925D0410925E04109240
:101F00005F041092600497FF04C082E080939B00FE
:101F10003F77832F9927809398002093990088E931
:101F200080939A0086E080939D00089590915F04CD
:101F300080916004981719F480E091E00895E09191
:101F40006004EF5FEF71E0936004F0E0E35CFB4F4F
:101F500020818091610490E0982F8827820F911D45
:101F60000895282F90915D049F5F9F7180915E047A
:101F70009817E1F3E92FF0E0E35EFB4F20839093A5
:101F80005D0480919A00806280939A000895CF93B7
:101F9000DF93EC0103C021960E94B10F8881882352
:101FA000D1F7DF91CF910895CF93DF93EC0102C079
:101FB0000E94B10FFE01219684918823C9F7DF9119
:101FC000CF910895AC9A00C0AC980895CF93DF9359
:101FD000662311F0AE9A01C0AE98AD98A39AA29A6A
:101FE000A19AA09AA898A998AA98AB9887FDA89AB0
:101FF000C82F86FDA99AC5FDAA9AC4FDAB9A0E9476
:10200000E20FA898A998AA98AB98C3FDA89AC2FD18
:10201000A99AC1FDAA9AC0FDAB9A0E94E20FAB9AA1
:10202000AA9AA99AA89ADF91CF910895882311F0CE
:10203000AE9A01C0AE98AD9AA398A298A198A09824
:10204000AC9A00C09B9B02C080E101C080E09A99DD
:1020500080629999806498998068AC9800C0AC9A25
:1020600000C09B9981609A9982609999846098993F
:102070008860AC9890E0089580E00E94161087FD7B
:10208000FBCF87E090E00197F1F780E00E94161007
:1020900090E008951F93182F0E943C1060E0812F5C
:1020A0000E94E60F1F9108951F93182F0E943C1065
:1020B00061E0812F0E94E60F1F910895662311F4BD
:1020C000805809C0613011F4805405C0623011F4A9
:1020D000805701C080530E944A1008950E943C100E
:1020E00090E0089581E00E944A10089582E00E94E5
:1020F0004A1008951F93182F0E943C10982F1A30F1
:1021000099F4803110F480E40BC08054803110F4D5
:1021100080E106C09051903310F480E501C080E06A
:1021200080580E944A1004C061E0812F0E94E60F8F
:102130001F910895CF93DF93EC0102C00E947A10A3
:1021400089918823D9F7DF91CF910895CF93DF93B9
:10215000EC0102C00E947A10FE012196849188232E
:10216000C9F7DF91CF910895FF920F931F93F82E37
:10217000A69AA59AA49AA39AA29AA19AA09A80E64E
:1021800096EE0197F1F7AA9AAB9A0E94E20F80EEC1
:1021900097E40197F1F70E94E20F0BEE10E0C801FF
:1021A0000197F1F70E94E20FC8010197F1F7AB9890
:1021B0000E94E20FC8010197F1F788E20E944A10DD
:1021C00088E00E944A100E94721086E00E944A1025
:1021D0008F2D0E944A101F910F91FF900895282F74
:1021E00022952F709AE0299F900111248F70820F01
:1021F00090E00895282F6AE00E943015482F50E0A3
:1022000084E0440F551F8A95E1F7822F0E94301514
:10221000940F892F90E008950F931F93162F042F8A
:102220000E947014812F0E94A414802F0E94A41475
:102230000E949C141F910F9108950E940C11089503
:102240000F931F93082F162F0E947014812F0E9446
:10225000A414802F8F5F0E9498140E94C314182F1B
:102260000E949C14812F90E01F910F9108950E946D
:10227000201190E0089561E00E9420110E94EF106B
:1022800090E0089562E00E9420110E94EF1090E01B
:10229000089563E00E9420110E94EF1090E00895DD
:1022A00064E00E9420118F730E94EF1090E0089567
:1022B000AF92BF92CF92DF92EF92FF921F93182FAF
:1022C0007B016A0159010E945011F7018083812F1F
:1022D0000E944911F6018083812F0E944211F5016D
:1022E00080831F91FF90EF90DF90CF90BF90AF90D1
:1022F0000895FF920F931F93F82E65E00E9420111E
:10230000182F129516951695137065E08F2D0E9463
:102310002011082F0295069506950370101779F085
:10232000402F63E18F2D0E940C1161E18F2D0E94DF
:1023300020118F5F482F61E18F2D0E940C1161E108
:102340008F2D0E942011080F802F90E01F910F9178
:10235000FF90089566E00E9420118F710E94EF1097
:1023600090E0089565E00E9420118F730E94EF10A5
:1023700090E0089566E00E9420118295869587700E
:1023800090E008958F929F92AF92BF92CF92DF928A
:10239000FF920F931F93F82E6B015A0149010E947F
:1023A000BA11F60180838F2D0E94B211F50180834E
:1023B0008F2D0E94AA11F40180838F2D0E94791124
:1023C000F80180831F910F91FF90DF90CF90BF9015
:1023D000AF909F908F9008951F93182F40E060E07A
:1023E0000E940C1165E0812F0E9420118295869534
:1023F00086958370482F63E1812F0E940C111F91F5
:1024000008951F93182F60E00E9420118F77482FA6
:1024100060E0812F0E940C111F9108951F93182FC7
:1024200060E00E9420118068482F60E0812F0E94A8
:102430000C111F9108950F931F93182F062F0E94C0
:102440000E12802F0E94FA10482F61E0812F0E9407
:102450000C11812F0E9401121F910F9108950F936B
:102460001F93182F062F0E940E12802F0E94FA1021
:10247000482F62E0812F0E940C11812F0E940112CF
:102480001F910F9108950F931F93182F062F0E94ED
:102490000E12802F0E94FA10482F63E0812F0E94B5
:1024A0000C11812F0E9401121F910F9108950F931B
:1024B0001F93182F062F0E940E12802F0E94FA10D1
:1024C000482F64E0812F0E940C11812F0E9401127D
:1024D0001F910F910895CF92DF92FF920F931F9358
:1024E000F82EFB018A01690160810E945712F801F0
:1024F00060818F2D0E944312F60160818F2D0E9412
:102500002F121F910F91FF90DF90CF900895FF92AF
:102510000F931F93F82E462F062F0370401B61E187
:102520000E940C110295000F000F007C402F63E108
:102530008F2D0E940C1165E08F2D0E942011182F05
:102540001F738F2D0E940E12102B412F65E08F2DCF
:102550000E940C118F2D0E9401121F910F91FF906C
:102560000895FF920F931F93182FF62E66E00E9496
:102570002011082F007E812F0E940E128F2D0E94A5
:10258000FA10082B402F66E0812F0E940C11812F3A
:102590000E9401121F910F91FF900895FF920F93D7
:1025A0001F93182FF62E65E00E942011082F007C43
:1025B000812F0E940E128F2D0E94FA10082B402F9F
:1025C00065E0812F0E940C11812F0E9401121F9142
:1025D0000F91FF900895FF920F931F93F82E062FEF
:1025E00066E00E942011182F1F718F2D0E940E127D
:1025F0000295000F007E102B412F66E08F2D0E9468
:102600000C118F2D0E9401121F910F91FF900895C0
:10261000AF92BF92CF92DF92FF920F931F93F82E4B
:10262000FB016A01590160810E94EB12F601608191
:102630008F2D0E94CE12F50160818F2D0E94B11264
:10264000F80160818F2D0E9487121F910F91FF90DA
:10265000DF90CF90BF90AF9008951F93162F0E94E8
:102660007014812F0E94A4140E949C141F9108953D
:102670000E942D1308951F93182F0E947014812F0C
:102680008F5F0E9498140E94C314182F0E949C14FC
:10269000812F90E01F9108950E943B1390E00895D0
:1026A000CF93DF938F5F0E947014CEEDD4E00E9431
:1026B000B814899384E0C13ED807C9F70E94C314B7
:1026C0008093E1040E949C14DF91CF910895CF93F1
:1026D000DF930E947014C2EED4E089910E94A4148A
:1026E00084E0C63ED807C9F70E949C14DF91CF91C1
:1026F00008951F93182F84EB8093E2046093E30402
:102700001092E4041092E504812F0E946713812F38
:102710000E9450138091DF0490E01F91089595EB83
:102720009093E2046093E3044093E4041092E50480
:102730000E94671308951F93182F84E68093E20484
:102740006093E3041092E4041092E504812F0E9448
:102750006713812F0E9450138091DF0490E0982F1F
:1027600088272091E004820F911D1F9108959EE615
:102770009093E2046093E3044093E4041092E50430
:102780000E94671308951F93182F6093E2044093EB
:10279000E3041092E4041092E5040E946713812F71
:1027A0000E9450138091DF0490E01F910895462FFE
:1027B0006FE80E94C31390E00895462F65E80E94D9
:1027C000C31390E00895462F6BE70E94C31390E077
:1027D00008956093E2044093E3042093E40410928C
:1027E000E5040E9467130895242F462F6EE80E9487
:1027F000E9130895242F462F64E80E94E9130895F1
:10280000242F462F6AE70E94E91308956093E2049B
:102810004093E3042093E4041092E5040E946713BC
:102820000895242F462F6DE80E9406140895242F42
:10283000462F63E80E9406140895242F462F69E767
:102840000E94061408956093E2044093E3042093E9
:10285000E4041092E5040E9467130895242F462F84
:102860006CE80E9423140895242F462F62E80E94EA
:1028700023140895242F462F68E70E9423140895F7
:102880001092710081E4809370000895982F84EA7B
:10289000809374008091740087FFFCCF8091710059
:1028A000887F883029F0803119F081E090E0089528
:1028B0009093730084E8809374008091740087FF84
:1028C000FCCF20917100287F283119F480E090E03E
:1028D000089580E090E0203411F081E090E00895C8
:1028E000982F84EA809374008091740087FFFCCF56
:1028F00080917100887F883011F0803191F790933A
:10290000730084E8809374008091740087FFFCCF8B
:1029100080917100887F803211F0883541F484E91C
:10292000809374008091740084FFDBCFFBCF089507
:102930000E94461490E0089584E980937400809189
:10294000740084FDFCCF08958093730084E8809325
:1029500074008091740087FFFCCF8091710020E0AB
:1029600030E0887F883211F021E030E0C90108951D
:1029700084EC809374008091740087FFFCCF809179
:10298000730090E0089584E880937400809174004F
:1029900087FFFCCF8091730090E00895FC018827A9
:1029A0009927E89421912032E9F3293010F02E3054
:1029B000C8F32B3241F02D3239F4689404C00E94E0
:1029C0001815820F911D219120532A30C0F31EF457
:1029D000909581959F4F0895FB01DC010D9000209B
:1029E000E9F7119701900D920020E1F70895FB019E
:1029F0009F01E8944230C4F04532B4F44A3029F4DF
:102A000097FB1EF4909581959F4F642F77270E9426
:102A10007115805D8A330CF0895D8193CB0100973D
:102A2000A1F716F45DE251931082C9010C942015B0
:102A30007AE0979F902D879F802D910D1124089506
:102A4000DC01FC01672F71917723E1F7329704C015
:102A50007C916D9370836291AE17BF07C8F30895A0
:102A6000991B79E004C0991F961708F0961B881FE0
:102A70007A95C9F78095089597FB092E07260AD005
:102A800077FD04D02ED006D000201AF47095619501
:102A90007F4F0895F6F7909581959F4F0895A1E295
:102AA0001A2EAA1BBB1BFD010DC0AA1FBB1FEE1FC8
:102AB000FF1FA217B307E407F50720F0A21BB30B13
:102AC000E40BF50B661F771F881F991F1A9469F78F
:102AD00060957095809590959B01AC01BD01CF01EB
:102AE0000895AA1BBB1B51E107C0AA1FBB1FA61755
:102AF000B70710F0A61BB70B881F991F5A95A9F7A7
:102B000080959095BC01CD010895E199FECFBFBBA2
:102B1000AEBBE09A11960DB20895F7DFE02DF5DF18
:102B2000F02D0895E199FECFBFBBAEBB0DBA119653
:102B30000FB6F894E29AE19A0FBE0895F3DF012CE4
:082B4000F1DF11240895FFCF1D
:102B48002441435357313B0030302E30313B00781D
:102B5800783B78783B78783B002A45410D00244142
:102B6800434857313B0041544D4547413132383B8A
:102B78000031343734353630303B00485730322E48
:102B880030303B00535730322E31613B0032303009
:102B98003830363234313230303B002441434D53E3
:102BA800470041432000454550524F4D20494E496A
:102BB8005400416C61726D20436F6E74726F6C20AB
:102BC800566572733A204143303231610D004572C7
:102BD800723A2052656D6F7465626574722E004199
:102BE8006C61726D4374726C204143303231610004
:102BF800535541524B2E434F4D2C32303038002420
:102C08004143434E5400244143524F54002B00305B
:102C180000244B4C53544100244143535441004D2C
:102C28004F44453A200053434841524600534348D5
:102C380041455246454E00554E5343484152460081
:102C4800564F52414C41524D202000415553474563
:102C58004C4F4553540042656469656E756E673A1A
:102C6800204645524E0042656469656E756E673A46
:102C78002048414E4400434F554E54444F574E3A16
:102C880020002073656300434D44204552524F5243
:102C98000D0A004E4F20434D440D0A00FFFF4D6FB3
:102CA800004469004D6900446F004672005361009A
:102CB800536F005E026102640267026A026D02706D
:102CC800024155530045494E008102850240414268
:102CD8004300000000554E42454B414E4E5445526C
:102CE800204645484C4552005343484152465343B9
:102CF80048414C54554E47204552464F4C47540086
:102D0800564F52414C41524D2041555347454C4F27
:102D180045535400414C41524D494552554E472068
:102D280041555347454C4F45535400414B54495620
:102D3800494552554E47204142474542524F434824
:102D4800454E00414B544956494552554E47204738
:102D58004553544152544554004445414B544956F7
:102D6800494552554E470053595354454D20474500
:102D78005354415254455400454550524F4D2049F3
:102D88004E495449414C4953494552540052454DC6
:102D98004F5445424554524945422045494E0052F8
:102DA800454D4F544542455452494542204155539B
:102DB800009502A802C002D402EB020303190327FC
:0A2DC8000338034D035F033EFF01D3
:00000001FF
