:100000000C9496000C94B5000C94B5000C94B500BB
:100010000C94B5000C94B5000C94B5000C94B5008C
:100020000C94B5000C9428020C94B5000C94B50007
:100030000C94B5000C94B5000C94C3000C94B5005E
:100040000C94B5000C94B5000C94A20E0C94D00E38
:100050000C94B5000C94B5000C94B5000C94B5004C
:100060000C94B5000C94B5000C94B5000C94B5003C
:100070000C94B5000C94B5000C945C0F0C948C0F90
:100080000C94B5000C94B5000C94B5003E0D4D0DCC
:10009000300D4D0D4D0D4D0D4D0D4D0D4D0D4D0DAD
:1000A0004D0D4D0D4D0D4D0D4D0D4D0D4D0D4D0D80
:1000B0004D0D4D0D4D0D4D0D4D0D4D0D4D0D4D0D70
:1000C000F60C060D100D4D0D4D0D200D280D4D0D8E
:1000D0004D0D4D0D020D4D0DEA0CFA0C4D0DF20CAF
:1000E000FE0C180DE60C4D0D4D0DEE0C4D0D4D0D8D
:1000F0004D0D4D0D4D0D4D0DD90C4D0D4D0DDC0C17
:10010000F80C0A0D140DE00CD60C240D2C0D4D0D21
:100110004D0D4D0D040D4D0DEC0CFC0CD30CF40CE1
:10012000000D1C0DE80C4D0D4D0DF00C11241FBEE3
:10013000CFEFD0E1DEBFCDBF13E0A0E0B1E0EAEB4E
:10014000FBE200E00BBF02C007900D92A63DB10795
:10015000D9F715E0A6EDB3E001C01D92A533B107B4
:10016000E1F70E94530D0C94DB150C94000083B74B
:10017000896683BF08958CE085BD80E383BD87B722
:10018000806887BF08951F920F920FB60F920BB62B
:100190000F9211242F933F934F935F936F937F930D
:1001A0008F939F93AF93BF93EF93FF932091C504D9
:1001B0003091C60440E050E060E074E883E090E0F5
:1001C0000E941315209530953DBD2CBD8091F00304
:1001D0008F5F8093F0038091F00381BF9091F003D3
:1001E0008091B904891720F48091C9048093F003A9
:1001F000FF91EF91BF91AF919F918F917F916F91FF
:100200005F914F913F912F910F900BBE0F900FBEBA
:100210000F901F901895E4E6F0E080818E7F808338
:10022000E5E6F0E080818E7F8083D198D998D298DE
:10023000DA98D498DC98D398DB98D59ADD9AD69A38
:10024000DE9AD79ADF9A8B9A939A159A1D98BB9A41
:10025000C398179A1F98169A1E98BE9AC698BD9A68
:10026000C598BF9AC798149A1C980895EF92FF9268
:100270000F931F93CF93DF9380E090E0FC01E15256
:10028000FC4F1082019688309105C1F760E070E064
:10029000C0E0D0E081E0E82EF12C40E050E08B019E
:1002A00001521C4FDA01AC0FBD1FA351BB4F8C9103
:1002B000EC912C91E295EF70F0E0E952FC4F8081D7
:1002C00090E02F7002C0959587952A95E2F780FF00
:1002D0000BC0F8012081C701042E02C0880F991FAE
:1002E0000A94E2F7282B20834F5F5F4F4830510577
:1002F000C9F66F5F7F4F28966830710571F6DF9100
:10030000CF911F910F91FF90EF9008951D9A1E9A23
:1003100008951E981F98C798C698C5981C981D9850
:10032000C398089587B9379A369A3699FECF369A88
:100330003699FECF379824B135B189E190E0A90113
:10034000489F9001499F300D589F300D11243695DC
:100350002795369527952A5C3840C90108958091E4
:10036000BA04CC9B05C082608093BA04DE9A04C0B4
:100370008D7F8093BA04DE988091BA04CB9B05C030
:1003800081608093BA04DD9A08958E7F8093BA04C9
:10039000DD9808951092D6038091630080FF12C00B
:1003A00080910004982F9F5F90930004882311F0A0
:1003B000973051F483E08093D603973029F48093EB
:1003C000000402C010920004C99B13C08091FF0377
:1003D000982F9F5F9093FF03882311F0973059F473
:1003E00084E08093D603973031F483E08093FF0359
:1003F00002C01092FF03CA9B13C08091FE03982F86
:100400009F5F9093FE03882311F0973059F485E0A5
:100410008093D603973031F483E08093FE0302C0CB
:100420001092FE038091BA04CB9B02C0816001C090
:100430008E7F8093BA048091BA04CC9B02C0826004
:1004400001C08D7F8093BA04089583E08EBD089526
:100450001F920F920FB60F9211242F938F939F9399
:100460008091FC039091FD0301969093FD0380938E
:10047000FC038436910549F48091C8048860809318
:10048000C8041092FD031092FC038091FA0390912E
:10049000FB0301969093FB038093FA038E559140E2
:1004A00049F48091D50482608093D5041092FB03B7
:1004B0001092FA038091F8039091F90301969093BA
:1004C000F9038093F803845F914049F48091C80454
:1004D00084608093C8041092F9031092F80380910D
:1004E000F6039091F70301969093F7038093F60338
:1004F000885E934049F48091C80481608093C80469
:100500001092F7031092F6038091F4039091F50393
:1005100001969093F5038093F4038858934149F42E
:100520008091C80482608093C8041092F5031092F1
:10053000F4039F918F912F910F900FBE0F901F90FA
:100540001895EF92FF920F931F9322EBE22E24E077
:10055000F22E83E08093B204A7014F5F5F4F86E0E5
:100560008093B30497012E5F3F4F82E08093B404E1
:1005700087010D5F1F4F88E08093B50480EAB701C3
:100580000E9434138CE08093B604A7014B5F5F4F49
:1005900086E28093B70497012A5F3F4F1092B80418
:1005A00080EA64E070E0E60EF71EB7010E94951243
:1005B0001F910F91FF90EF9008958AE090E00E94C4
:1005C0009B158093C7041092F3031D988091BC047F
:1005D00081FF03C01E981F9A03C01D9A83FD1E9AB7
:1005E00082FF03C0C59AC79A089584FDC59A0895ED
:1005F00085E090E00E949B158093C7041D9A1E9A87
:100600000895CF93DF93C0E0D0E0DE01A152BC4F4C
:100610008C91FE01E951FC4F80836C91CE01855E87
:100620009F4F0E94A9152196C830D10571F7DF911F
:10063000CF910895CF93DF93C0E0D0E0CE01855EE7
:100640009F4F0E949B15FE01E152FC4F8083CE011B
:100650008D5E9F4F0E949B15FE01E453FC4F8083EB
:100660002196C830D10551F7C0E0D0E0CE018D5DB4
:100670009F4F0E949B15FE01E351FB4F8083219603
:10068000C034D10599F7C0E0D0E0CE018D599F4F1D
:100690000E94A315FE01E354FB4F918380832296B1
:1006A000C830D10591F78FE090E00E949B158093B0
:1006B000D50380E190E00E949B158093CC0481E1FA
:1006C00090E00E949B158093D403DF91CF91089511
:1006D0008A3069F08B3018F48130C1F405C0893C50
:1006E00071F08E3F99F408C080E091E011C00E9443
:1006F0001A0383E191E00CC087E291E009C0809188
:10070000D5038093F20381E391E002C088E491E095
:100710000E94410F089581E591E00E94410F89E513
:1007200091E00E94410F8CE20E942F0F81E691E040
:100730000E94410F8CE20E942F0F89E691E00E94F7
:10074000410F83E791E00E94410F089588E791E00F
:100750000E94410F80E891E00E94410F8CE20E94CC
:100760002F0F8AE891E00E94410F8CE20E942F0F28
:1007700083E991E00E94410F8CE20E942F0F89E5EE
:1007800091E00E94410F8CE20E942F0F8BE991E0D3
:100790000E94410F8CE20E942F0F83E791E00E949C
:1007A000410F08950F931F938C0188EA91E00E94F6
:1007B000410F8CE20E942F0F8FEA91E00E94410FBF
:1007C000000F111F0B571C4FF801808191810E946F
:1007D000410F8CE20E942F0F83E791E00E94410FAE
:1007E0001F910F910895882339F482E090E00E94D0
:1007F0009B158A3A09F4DAC10E94A91083EB91E0B3
:100800000E94D11082E090E06AEA0E94A91583E07C
:1008100090E06AE00E94A91584E090E068E00E9400
:10082000A91583E190E060E40E94A91584E190E0BD
:1008300062E40E94A91585E190E064E40E94A91594
:1008400086E190E066E40E94A91587E190E068E403
:100850000E94A91588E190E06AE40E94A91589E147
:1008600090E06CE40E94A9158AE190E06EE40E9499
:10087000A91585E090E062E00E94A91586E090E06D
:1008800064E60E94A91587E090E06FEF0E94A91529
:1008900088E090E06FEF0E94A91589E090E064E69F
:1008A0000E94A9158AE090E065E00E94A9158BE0FE
:1008B00090E06AE00E94A9158CE090E066EE0E944C
:1008C000A9158DE090E06FEF0E94A9158EE090E0F1
:1008D00064E60E94A91583E690E06EEC7FEF0E942B
:1008E000B61585E690E06EEC7FEF0E94B61587E6C0
:1008F00090E06EEC7FEF0E94B61589E690E06EEC1A
:100900007FEF0E94B6158FE090E062E00E94A9158B
:1009100080E190E064EB0E94A91581E190E06EE334
:100920000E94A91583E290E063E00E94A91584E289
:1009300090E065E10E94A91585E290E06FEF0E94CA
:10094000A91586E290E06FEF0E94A91587E290E07A
:100950006FEF0E94A91588E290E06FEF0E94A91541
:1009600089E290E06FEF0E94A9158AE290E06FEFB4
:100970000E94A9158BE290E062E00E94A9158CE22A
:1009800090E064E10E94A9158DE290E06FEF0E9473
:10099000A9158EE290E06FEF0E94A9158FE290E01A
:1009A0006FEF0E94A91580E390E06FEF0E94A915F8
:1009B00081E390E06FEF0E94A91582E390E06FEF72
:1009C0000E94A91583E390E061E00E94A91584E3E9
:1009D00090E060E00E94A91585E390E067E00E9446
:1009E000A91586E390E065E00E94A91587E390E0F1
:1009F00063E10E94A91588E390E061E10E94A915D6
:100A000089E390E067E10E94A9158AE390E06FEF27
:100A10000E94A9158BE390E062E00E94A9158CE387
:100A200090E062E00E94A9158DE390E066E00E94EC
:100A3000A9158EE390E064E00E94A9158FE390E091
:100A400062E10E94A91580E490E060E10E94A9158E
:100A500081E490E066E10E94A91582E490E06FEFE6
:100A60000E94A91583E490E06FEF0E94A91584E429
:100A700090E06FEF0E94A91585E490E06FEF0E946F
:100A8000A91586E490E06FEF0E94A91587E490E035
:100A90006FEF0E94A91588E490E06FEF0E94A915FE
:100AA00089E490E06FEF0E94A9158AE490E06FEF6F
:100AB0000E94A9158BE490E06FEF0E94A9158CE4C9
:100AC00090E06FEF0E94A9158DE490E06FEF0E9417
:100AD000A9158EE490E06FEF0E94A9158FE490E0D5
:100AE0006FEF0E94A91580E590E06FEF0E94A915B5
:100AF00081E590E06FEF0E94A91582E590E06FEF2D
:100B00000E94A91583E590E06FEF0E94A91584E586
:100B100090E06FEF0E94A91585E590E06FEF0E94CD
:100B2000A91586E590E06FEF0E94A91587E590E092
:100B30006FEF0E94A91588E590E06FEF0E94A9155C
:100B400089E590E06FEF0E94A9158AE590E06FEFCC
:100B50000E94A9158BE590E06FEF0E94A9158CE526
:100B600090E06FEF0E94A9158DE590E06FEF0E9475
:100B7000A9158EE590E06FEF0E94A9158FE590E032
:100B80006FEF0E94A91580E690E06FEF0E94A91513
:100B900081E690E06FEF0E94A91582E690E06FEF8A
:100BA0000E94A91588E090E00E94D20308958FEB7F
:100BB00091E00E94410F87E090E00E94D2030895E7
:100BC0008091B104807F8093B1048FEF80939C0368
:100BD0000E94890186E090E00E94D20308958091EE
:100BE000B10488608093B10485E090E00E94D20354
:100BF00008958091B10480FD0AC0877F8093B1047D
:100C00008FEF80939C0384E090E00E94D2030895CC
:100C1000CF92DF92EF92FF920F931F93CF93DF93C8
:100C2000E82E0DEB14E0CDECD4E0FF2449E1C42E16
:100C3000D12C8091D4036F2D0E94C6139C012C9D52
:100C4000C0012D9D900D3C9D900D112464E070E03D
:100C50000E940015F801208131812A5C3840260F5E
:100C6000371F888199812817390714F4019704C028
:100C7000821793071CF4019699838883EE2011F064
:100C800039832883F3940E5F1F4F2296F4E0FF16FA
:100C900081F6DF91CF911F910F91FF90EF90DF9040
:100CA000CF9008959091BA0490FF1CC08091BC042D
:100CB00091FF0BC080FD22C081608093BC041D9811
:100CC00089E090E00E94D20308958E7F8093BC0457
:100CD0001D9A80E063E00E9495108BED91E00E94E8
:100CE000D11008958091BC0480FF08C08E7F80934E
:100CF000BC048AE090E00E94D2031D9808950E94EF
:100D0000A9108CEE91E00E94D11081E061E00E9478
:100D100095108DEF91E00E94D11008958091CC0341
:100D20000E9477138093D7038091CD030E9477139D
:100D30008093D8038091CE030E9477138093D903C8
:100D40008091CF030E9477138093DA031092DB0324
:100D50001092DC031092DD031092DE030895EF92EF
:100D6000FF920F931F9352EBE52E54E0F52EA7014F
:100D70004F5F5F4F97012E5F3F4F87010D5F1F4F02
:100D800080EAB7010E94EC11A7014B5F5F4F97010A
:100D90002A5F3F4F80EA64E070E0E60EF71EB7017D
:100DA0000E9486111F910F91FF90EF9008950F936D
:100DB0001F93DF93CF9300D000D000D0CDB7DEB724
:100DC0008E010F5F1F4FB8014AE050E00E9472157C
:100DD000C8010E94D11026960FB6F894DEBF0FBE50
:100DE000CDBFCF91DF911F910F9108950F931F9366
:100DF000DF93CF9300D000D000D0CDB7DEB78E0107
:100E00000F5F1F4FB8014AE050E00E947215C80101
:100E10000E94410F26960FB6F894DEBF0FBECDBFDD
:100E2000CF91DF911F910F9108958CE092E00E9485
:100E3000410F8CE20E942F0F8091B104817090E0ED
:100E40000E94F6068CE20E942F0F8091B1048695D5
:100E5000817090E00E94F6068CE20E942F0F809134
:100E6000B10486958695817090E00E94F6068CE22A
:100E70000E942F0F80919C0390E00E94F6068CE266
:100E80000E942F0F83E791E00E94410F0895809107
:100E90009C038F3F31F483E090E00E949B15809388
:100EA0009C030E94150780919C03815080939C03B2
:100EB0008F3F01F58091B104982F977F9093B104F3
:100EC00080FD0CC09160997F9093B1040E94010352
:100ED000C69A81E090E00E94D203089581FF0AC083
:100EE000857F84608093B1040E94DD0283E090E0FE
:100EF0000E94D20308959F92AF92BF92CF92DF9249
:100F0000EF92FF920F931F93CF93DF93CC24DD24B6
:100F1000AA24BB249C2C0D2DEE24FF24E701CA0D2E
:100F2000DB1DFE01E351FB4F80818081108183E155
:100F300092E00E94410F8CE20E942F0FCE010E948E
:100F4000F6068CE20E942F0F892D902F0E94F60644
:100F50008CE20E942F0FC7010E94F6068CE20E94CD
:100F60002F0F80E090E00E94F6068CE20E942F0F87
:100F700080E090E0112311F081E090E00E94F606FD
:100F80008CE20E942F0FC351DB4F888190E00E94BA
:100F9000F6068CE20E942F0F83E791E00E94410F3A
:100FA0000894E11CF11C88E0E816F10409F0B6CFC2
:100FB0000894C11CD11C88E090E0A80EB91E98E0EE
:100FC000C916D10409F0A6CFDF91CF911F910F91DF
:100FD000FF90EF90DF90CF90BF90AF909F900895DB
:100FE000EF92FF920F931F93DF93CF9300D000D027
:100FF00000D0CDB7DEB78C01E62EF42E1092D704C8
:10100000BE016F5F7F4F4AE050E00E9472151016DC
:10101000110644F4FF2031F087ED94E06AE172E0BC
:101020000E946715EE20B9F0DE011196FD010190D6
:101030000020E9F731970E2F0A1BFF2407C087ED28
:1010400094E06CE172E00E9467150F5F802F90E0E2
:101050008E159F05A4F387ED94E0BE016F5F7F4F6F
:101060000E94671526960FB6F894DEBF0FBECDBF5F
:10107000CF91DF911F910F91FF90EF9008950F9303
:101080001F938091B30490E062E040E00E94F0077B
:1010900007ED14E0C8010E94410F8EE20E942F0F5D
:1010A0008091B40490E062E040E00E94F007C80143
:1010B0000E94410F8EE20E942F0F8091B50490E0B4
:1010C00062E040E00E94F007C8010E94410F80E208
:1010D0000E942F0F8091B60490E062E040E00E94F1
:1010E000F007C8010E94410F8AE30E942F0F8091F0
:1010F000B70490E062E040E00E94F007C8010E945F
:10110000410F8AE30E942F0F8091B80490E062E0C3
:1011100040E00E94F007C8010E94410F8CE20E944B
:101120002F0F80E81F910F9108950F931F938EE169
:1011300092E00E94410F8CE20E942F0F0E943F0814
:101140008091D40360E00E94C61309E110E09C0185
:10115000209FC001219F900D309F900D112464E0CD
:1011600070E00E940015CB018A5C98400E94F60650
:101170008CE20E942F0F8091D40361E00E94C6137D
:101180009C01209FC001219F900D309F900D112444
:1011900064E070E00E940015CB018A5C98400E94D8
:1011A000F6068CE20E942F0F8091D40362E00E9429
:1011B000C6139C01209FC001219F900D309F900D70
:1011C000112464E070E00E940015CB018A5C984015
:1011D0000E94F6068CE20E942F0F8091D40363E0F8
:1011E0000E94C6139C01209FC001219F900D309F3B
:1011F000900D112464E070E00E940015CB018A5C20
:1012000098400E94F6068CE20E942F0F83E791E03F
:101210000E94410F1F910F9108958EE192E00E946C
:10122000410F8CE20E942F0F0E943F088091CD0455
:101230009091CE040E94F6068CE20E942F0F8091BE
:10124000CF049091D0040E94F6068CE20E942F0FEA
:101250008091D1049091D2040E94F6068CE20E9403
:101260002F0F8091D3049091D4040E94F6068CE253
:101270000E942F0F83E791E00E94410F0895CF93C2
:10128000DF9385E292E00E94410F8CE20E942F0FD3
:101290000E943F088091B104817090E00E94F606A0
:1012A0008CE20E942F0F8091B1048695817090E0AE
:1012B0000E94F6068CE20E942F0F8091B104869561
:1012C0008695817090E00E94F6068CE20E942F0FB6
:1012D0008091BC04817090E00E94F6068CE20E942E
:1012E0002F0F8091BC048695817090E00E94F606D5
:1012F0008CE20E942F0F8091BC04869586958170A8
:1013000090E00E94F6068CE20E942F0F8091BC04B0
:10131000869586958695817090E00E94F6068CE20F
:101320000E942F0F8091BC048295817090E00E94F2
:10133000F6068CE20E942F0F8091BC048295869560
:10134000817090E00E94F6068CE20E942F0F80E3ED
:101350000E942F0F8CE20E942F0FC0E0D0E0FE0110
:10136000E152FC4F808190E00E94F6068CE20E94E0
:101370002F0F2196C830D10591F783E791E00E94A5
:10138000410FDF91CF9108950F931F93CF93DF9378
:101390008091B10480FF4DC0867009F069C010E0F3
:1013A000C1E0D0E00FEFFE01E152FC4F9081FE0161
:1013B000E951FC4F80819817A9F01F5F80910104CB
:1013C0008A3081F48091B10400939C03857F84600E
:1013D0008093B1040E94DD0283E090E00E94D2037A
:1013E0000E943F092196C830D105E9F69091DF03AC
:1013F0008091E703981791F01F5F809101048A3074
:1014000069F48091B1048A608093B1040E94F8026B
:1014100082E090E00E94D2030E943F09112331F044
:10142000809101048F5F8093010422C01092010417
:101430001FC040E050E020E030E0F901E152FC4FF5
:101440008081480F511D2F5F3F4F28303105A9F78C
:1014500080910204909103044817590729F01D9ABE
:101460008091D5038093F2035093030440930204C8
:10147000DF91CF911F910F9108958091D50481FF45
:10148000D5C0DD98DE98DF980E94A91080E060E06A
:101490000E949510E091B204F0E0EE0FFF1FEE54B1
:1014A000FC4F808191810E94D11080E20E94B11096
:1014B0008091B30490E062E040E00E94F00787ED85
:1014C00094E00E94D1108EE20E94B1108091B40489
:1014D00090E062E040E00E94F00787ED94E00E9417
:1014E000D11080E20E94B11080E20E94B11080E22F
:1014F0000E94B1108091B60490E062E040E00E944A
:10150000F00787ED94E00E94D1108AE30E94B110A9
:101510008091B70490E062E040E00E94F00787ED20
:1015200094E00E94D11080E061E00E9495108CE26E
:1015300092E00E94D1108091B10480FF06C083E345
:1015400092E00E94D110DE9A09C083FF03C08AE3B3
:1015500092E002C084E492E00E94D11086E061E053
:101560000E9495108091B10481FF04C08DE492E047
:101570000E94D1108091B10482FF0BC088E592E0F7
:101580000E94D11080910404882311F0DE9A01C0DA
:10159000DE988091BC0480FF0AC080E062E00E9477
:1015A000951083E692E00E94D110DD9A09C080E098
:1015B00062E00E94951083E792E00E94D110DD98CE
:1015C0008091B10483FF1BC080E063E00E9495100E
:1015D00083E892E00E94D11080919C0390E063E048
:1015E00040E00E94F00787ED94E00E94D1108FE860
:1015F00092E00E94D110809104048111DE9A8DE066
:1016000060E00E94951080910404882321F01092DC
:1016100004048AE304C081E08093040480E20E9411
:10162000B1108091D5048D7F8093D5048091D6032D
:101630008350823040F48FEF80939B038091D504D8
:1016400088608093D50408950E943D0A0895CF9242
:10165000DF92EF92FF920F931F93DF93CF9300D00F
:1016600000D00F92CDB7DEB780911804833209F015
:1016700042C17E010894E11CF11CD70122E030E058
:10168000F901E95EFB4F80818D932F5F3F4F27303B
:101690003105B1F7CE0101960E9449158C0127E072
:1016A00030E0F901E95EFB4F8081F70181937F0112
:1016B0002F5F3F4F2C303105A1F7CE0101960E94DC
:1016C0004915D82EC92EF1E0063F1F0709F490C036
:1016D00081E0073F1807B0F50736110509F4CBC0C4
:1016E00008361105A8F40A30110509F474C00B304E
:1016F000110528F40130110509F0C3C06AC0053690
:10170000110509F495C00636110509F0BAC0A8C044
:101710000C3D110509F4B2C00D3D110548F4093C1A
:10172000110509F45EC0023D110509F0AAC083C08D
:101730000E3F110509F453C091E0053F190709F068
:10174000A0C051C0E2E003361E0709F477C0F2E002
:1017500004361F07F8F481E0093F180709F459C05F
:1017600091E00A3F190758F4E1E0073F1E0709F42A
:1017700044C0F1E0083F1F0709F083C043C081E087
:101780000A3F180709F44AC091E00B3F190709F016
:1017900078C049C0E2E00D361E0709F458C0F2E0F7
:1017A0000E361F0758F482E00436180709F449C0C2
:1017B00092E00536190709F064C046C0E2E00E3633
:1017C0001E0709F447C0F2E00F361F0709F059C0A1
:1017D00044C081E001C08AE08093F10390C08EEFA5
:1017E000FBCF89ECF9CF80EA6D2D0E94171387C0DB
:1017F00080EA6D2D0E94F91282C080EA6D2D0E9450
:10180000DB127DC080E3D80E80EA6D2D0E94B112FC
:1018100076C080EA6D2D0E94811271C080EA6D2D24
:101820000E946D126CC080EA6D2D0E94591267C033
:1018300083E090E02EC084E090E02BC087E090E051
:1018400028C088E090E025C089E090E022C08CE0CC
:1018500090E01FC08DE090E01CC08EE090E019C0C9
:101860008D2D9C012B3F310510F02AEF30E08FE0E9
:1018700090E0622F0FC080E190E00BC081E190E02A
:1018800008C0C801885C90408830910530F48D5EB6
:101890009F4F6D2D0E94A91532C0E4EDEE2EEEEFA4
:1018A000FE2EE00EF11E90E4E916F10468F4C70183
:1018B0008D5D9F4F6D2D0E94A915EDEEF4E0EE0EAB
:1018C000FF1EF701D0821BC00655144004301105DD
:1018D00078F4000F111FC8018D599F4F6D2D7C2D7D
:1018E0000E94B61503541B4FF801D082C18207C075
:1018F00084E992E002C080EA92E00E94410F0F90DA
:101900000F900F900F900F90CF91DF911F910F913B
:10191000FF90EF90DF90CF900895982F863211F4CA
:1019200010920504E0910504F0E0E95FFB4F90831D
:10193000809105048F5F80930504809105048031B8
:1019400011F4109205049A30C1F490E00AC0E92F16
:10195000F0E0DF01A95FBB4F8C91E95EFB4F808314
:101960009F5F80910504981790F380910504809300
:101970000604109205040E94270B0895CF93DF936D
:101980000E94120FEC0190FD8BC0FC01BB97E0356B
:10199000F10508F082C0EA5BFF4FEE0FFF1F0590D4
:1019A000F491E02D09940E94EF0577C00E94E005B4
:1019B00074C00E94F90571C08091BB04826003C0AD
:1019C0008091BB0481608093BB0467C01E9A65C090
:1019D0001E9863C01F9A61C01F985FC0C79A5DC000
:1019E000C7985BC0C69A59C0C69857C0C59A55C01B
:1019F000C59853C01C9A51C01C984FC01D9A4DC029
:101A00001D984BC0C39A49C0C39847C08091BC047D
:101A1000826003C08091BC048D7F8093BC043DC074
:101A20008091BC048460F9CF8091BC048B7FF5CF9A
:101A30008091BC048860F1CF8091BC04877FEDCF9A
:101A40008091BC048061E9CF8091BC048F7EE5CF9A
:101A50008091BC048062E1CF8091BC048F7DDDCF9A
:101A60008091D6048F5F8093D6048091C904815001
:101A70008093C9048091B90481500DC08091D6042F
:101A800081508093D6048091C9048F5F8093C904EC
:101A90008091B9048F5F8093B9048C2F0E948D0CC4
:101AA000DF91CF91089581E08093B2048FE180931C
:101AB000B3048CE08093B40487E08093B50487E19D
:101AC0008093B6048BE38093B7048FE28093B804CD
:101AD0000E940B018CE00E94EB108FE290E00E94CC
:101AE000F90E789480E00E94F303CA9B03C081E062
:101AF0000E94F3030E946F1484E886B983B7896655
:101B000083BF8CE085BD80E383BD87B7806887BFD6
:101B100083E08EBD0E94D7050E947F068091B104AC
:101B20008E7F8093B1048091BC048F618F7D809300
:101B3000BC040E941A038091D40360E041E00E943B
:101B4000E1138091D40361E041E00E94E1138091B0
:101B5000D40362E041E00E94E1138091D40363E08A
:101B600041E00E94E1138091D40362E041E00E94D1
:101B700068148091D40362E041E00E9428148091AF
:101B8000D40363E041E00E9468148091D40363E0D1
:101B900040E00E94281481E00E9408060E943D0A4D
:101BA0000E94CA010E9452060E948E060E943601BF
:101BB0000E94C4098091F103882321F00E946803E8
:101BC0001092F1032091B10422FF10C08091BC0457
:101BD00081FF02C01F9A03C01D9A83FD1E9A82FFD7
:101BE00003C0C59AC79A02C084FDC59A8091BC04FF
:101BF00080FF03C00E94BE0C17C08091BA04922FD0
:101C0000917081FF07C0992379F423FD0DC00E94D4
:101C1000EF050AC0992311F00E94E0058091B104FC
:101C200083FF02C00E94F9059091B10490FF02C0A9
:101C3000939801C0939A8091C80483FF2AC091FFB2
:101C400019C08091EF03882311F41D9A1E9A909178
:101C5000EF038091C704981711F40E9489018091C5
:101C6000EF038F5F8093EF038091EF038A3011F4CD
:101C70001092EF038091F203882331F0815080931A
:101C8000F203882309F41D988091C804877F80930C
:101C9000C8048091C80480FF22C08091BB04816089
:101CA0008093BB048091B10483FF02C00E94470768
:101CB0000E94AF068091B10482FF0CC08091F303B3
:101CC0008F5F8093F3039091CC04891719F41F98C8
:101CD0001092F3038091C8048E7F8093C804809192
:101CE000C80481FF0DC080E00E9408068091BB04FB
:101CF00084608093BB048091C8048D7F8093C80466
:101D00008091BB0480FF07C00E943F098091BB0403
:101D10008E7F8093BB048091BB0482FF07C00E942A
:101D20000D098091BB048B7F8093BB048091BB0421
:101D300081FF34CF0E947B078091BB048D7F80930D
:101D4000BB042CCF1F920F920FB60F920BB60F92BF
:101D500011242F938F939F93EF93FF939BB12CB1FB
:101D6000E0916904EF5FEF7180916A04E81711F464
:101D700082E008C0892F8871E0936904F0E0E95B94
:101D8000FB4F208380936B04FF91EF919F918F9184
:101D90002F910F900BBE0F900FBE0F901F901895B4
:101DA0001F920F920FB60F920BB60F9211248F93C2
:101DB0009F93EF93FF939091670480916804981725
:101DC00061F0E0916804EF5FEF71E0936804F0E088
:101DD000E95DFB4F80818CB901C05598FF91EF916F
:101DE0009F918F910F900BBE0F900FBE0F901F9081
:101DF00018959C011092670410926804109269046F
:101E000010926A04129A1A9A97FF03C082E08BB963
:101E10003F773093900029B988E98AB986E08093AA
:101E2000950008959091690480916A04981719F4B7
:101E300020E031E012C0E0916A04EF5FEF71E093BF
:101E40006A04F0E0E95BFB4F308120916B04922F34
:101E500080E0AC01430F511D9A01C9010895282F5C
:101E6000909167049F5F9F71809168049817E1F3D8
:101E7000E92FF0E0E95DFB4F208390936704559ACA
:101E80000895CF93DF93EC0103C021960E942F0F9A
:101E900088818823D1F7DF91CF910895CF93DF9385
:101EA000EC0102C00E942F0FFE012196849188232D
:101EB000C9F7DF91CF9108951F920F920FB60F923D
:101EC0000BB60F9211242F938F939F93EF93FF9351
:101ED00090919B0020919C00E091AE04EF5FEF7128
:101EE0008091AF04E81711F482E008C0892F88714F
:101EF000E093AE04F0E0E457FB4F20838093B004FE
:101F0000FF91EF919F918F912F910F900BBE0F90AA
:101F10000FBE0F901F9018951F920F920FB60F9241
:101F20000BB60F9211248F939F93EF93FF93909191
:101F3000AC048091AD04981769F0E091AD04EF5FB7
:101F4000EF71E093AD04F0E0E459FB4F80818093A2
:101F50009C0005C080919A008F7D80939A00FF912C
:101F6000EF919F918F910F900BBE0F900FBE0F902E
:101F70001F9018959C011092AC041092AD04109221
:101F8000AE041092AF0497FF04C082E080939B00E0
:101F90003F77309398002093990088E980939A00C6
:101FA00086E080939D0008959091AE048091AF04E7
:101FB000981719F420E031E012C0E091AF04EF5F10
:101FC000EF71E093AF04F0E0E457FB4F30812091D4
:101FD000B004922F80E0AC01430F511D9A01C9015A
:101FE0000895282F9091AC049F5F9F718091AD045C
:101FF0009817E1F3E92FF0E0E459FB4F2083909329
:10200000AC0480919A00806280939A000895CF93E7
:10201000DF93EC0103C021960E94F10F8881882391
:10202000D1F7DF91CF910895CF93DF93EC0102C0F8
:102030000E94F10FFE01219684918823C9F7DF9158
:10204000CF910895662311F0AE9A01C0AE98AD9875
:10205000A39AA29AA19AA09AA898A998AA98AB988C
:1020600087FDA89A86FDA99A85FDAA9A84FDAB9A58
:10207000AC9A00C0AC98A898A998AA98AB9883FD90
:10208000A89A82FDA99A81FDAA9A80FDAB9AAC9A82
:1020900000C0AC98AB9AAA9AA99AA89A08958823E6
:1020A00011F0AE9A01C0AE98AD9AA398A298A198EB
:1020B000A098AC9A00C09B9B02C080E101C080E068
:1020C0009A9980629999806498998068AC9800C0C8
:1020D000AC9A00C09B9981609A99826099998460BA
:1020E00098998860AC98089580E00E944F1087FD11
:1020F000FBCF87E090E00197F1F780E00E944F105E
:1021000008951F93182F0E947410812F60E00E9481
:1021100022101F9108951F93182F0E947410812F71
:1021200061E00E9422101F910895662311F48058E7
:1021300009C0613011F4805405C0623011F4805739
:1021400001C080530E94811008950E94741090E095
:10215000089581E00E948110089582E00E9481101C
:1021600008951F93182F0E947410982F1A3099F415
:10217000803110F480E40BC08054803110F480E191
:1021800006C09051903310F080E001C080E5805887
:102190000E94811004C0812F61E00E9422101F91D3
:1021A0000895CF93DF93EC0102C00E94B110899192
:1021B0008823D9F7DF91CF910895CF93DF93EC0176
:1021C00002C00E94B110FE01219684918823C9F7B4
:1021D000DF91CF9108951F93182FA69AA59AA49ADC
:1021E000A39AA29AA19AA09A80E696EE0197F1F797
:1021F000AA9AAB9AAC9A00C0AC9880EE97E401978B
:10220000F1F7AC9A00C0AC988BEE90E0FC013197EE
:10221000F1F7AC9A00C0AC98FC013197F1F7AB989C
:10222000AC9A00C0AC980197F1F788E20E94811047
:1022300088E00E9481100E94A91086E00E9481100F
:10224000812F0E9481101F910895282F22952F70B1
:102250009AE0299F900111248F70820F0895482FD2
:102260006AE00E94F414282F30E084E0220F331F2C
:102270008A95E1F7842F0E94F414892F820F089524
:102280000F931F93162F042F0E949B14812F0E94DF
:10229000CE14802F0E94CE140E94C6141F910F915D
:1022A00008950E94401108950F931F93082F162F31
:1022B0000E949B14812F0E94CE14802F8F5F0E945A
:1022C000C3140E94EA14182F0E94C614812F1F9174
:1022D0000F9108950E945411089561E00E945411D5
:1022E0000E942511089562E00E9454110E94251158
:1022F000089563E00E9454110E942511089564E03E
:102300000E9454118F730E9425110895AF92BF92BD
:10231000CF92DF92EF92FF921F93182F7B016A01F9
:1023200059010E947F11F7018083812F0E9479114A
:10233000F6018083812F0E947311F50180831F9124
:10234000FF90EF90DF90CF90BF90AF900895FF92F5
:102350000F931F93082F65E00E945411182F802FB0
:1023600065E00E945411F82EF294F694F69493E0EE
:10237000F92212951695169513701F1579F0802F76
:1023800063E14F2D0E944011802F61E10E945411A2
:10239000482F4F5F802F61E10E944011802F61E143
:1023A0000E9454118F0D1F910F91FF90089566E0C8
:1023B0000E9454118F710E942511089565E00E94BA
:1023C00054118F730E942511089566E00E945411E4
:1023D00082958695877008958F929F92AF92BF9253
:1023E000CF92DF92FF920F931F93F82E6B015A0149
:1023F00049010E94E511F60180838F2D0E94DE11B4
:10240000F50180838F2D0E94D711F40180838F2DD9
:102410000E94A711F80180831F910F91FF90DF9018
:10242000CF90BF90AF909F908F9008951F93182FDB
:1024300060E040E00E944011812F65E00E9454114D
:10244000482F4295469546954370812F63E10E943F
:1024500040111F9108951F93182F60E00E9454119E
:10246000482F4F77812F60E00E9440111F910895FF
:102470001F93182F60E00E945411482F4068812F4D
:1024800060E00E9440111F9108950F931F93182F31
:10249000062F0E943812802F0E942F11482F812F63
:1024A00061E00E944011812F0E942B121F910F9119
:1024B00008950F931F93182F062F0E943812802F14
:1024C0000E942F11482F812F62E00E944011812F1E
:1024D0000E942B121F910F9108950F931F93182F95
:1024E000062F0E943812802F0E942F11482F812F13
:1024F00063E00E944011812F0E942B121F910F91C7
:1025000008950F931F93182F062F0E943812802FC3
:102510000E942F11482F812F64E00E944011812FCB
:102520000E942B121F910F910895CF92DF92EF928C
:10253000FF921F93182FFB017A01690160810E94AD
:102540008112812FF70160810E946D12812FF601A7
:1025500060810E9459121F91FF90EF90DF90CF9001
:102560000895FF920F931F93F82E462F162F137086
:10257000411B61E10E9440111295110F110F107C57
:102580008F2D63E1412F0E9440118F2D65E00E9445
:102590005411082F0F738F2D0E943812102B8F2D7E
:1025A00065E0412F0E9440118F2D0E942B121F9138
:1025B0000F91FF900895FF920F931F93F82E062F0F
:1025C00066E00E945411182F107E802F0E942F1158
:1025D000082F8F2D0E943812102B8F2D66E0412F6F
:1025E0000E9440118F2D0E942B121F910F91FF907E
:1025F0000895FF920F931F93F82E062F65E00E9417
:102600005411182F107C802F0E942F11082F8F2D0E
:102610000E943812102B8F2D65E0412F0E9440112F
:102620008F2D0E942B121F910F91FF900895FF9202
:102630000F931F93F82E062F66E00E945411182F57
:102640001F718F2D0E9438120295000F007E102BF3
:102650008F2D66E0412F0E9440118F2D0E942B127A
:102660001F910F91FF900895AF92BF92CF92DF928A
:10267000FF920F931F93F82EFB016A0159016081AD
:102680000E9417138F2DF60160810E94F9128F2D81
:10269000F50160810E94DB128F2DF80160810E949C
:1026A000B1121F910F91FF90DF90CF90BF90AF902C
:1026B00008951F93162F0E949B14812F0E94CE1401
:1026C0000E94C6141F9108950E94591308951F93E4
:1026D000182F0E949B14812F8F5F0E94C3140E94A9
:1026E000EA14182F0E94C614812F1F9108950E948A
:1026F000671308958F5F0E949B140E94E0148093DB
:102700002D050E94E01480932E050E94E014809312
:102710002F050E94EA14809330050E94C614089584
:102720000E949B14809131050E94CE148091320545
:102730000E94CE14809133050E94CE1480913405FE
:102740000E94CE140E94C61408951F93182F84EB84
:102750008093310560933205109233051092340551
:10276000812F0E949013812F0E947A1380912E0551
:102770001F91089595EB9093310560933205409336
:102780003305109234050E94901308951F93182F5B
:1027900084E68093310560933205109233051092E0
:1027A0003405812F0E949013812F0E947A1330915B
:1027B0002E0520E080912F05280F311DC9011F91A2
:1027C00008959EE69093310560933205409333055A
:1027D000109234050E94901308951F93182F609350
:1027E00031054093320510923305109234050E9452
:1027F0009013812F0E947A1380912E051F910895C6
:10280000462F6FE80E94ED130895462F65E80E9459
:10281000ED130895462F6BE70E94ED130895609322
:1028200031054093320520933305109234050E9400
:1028300090130895962F242F6EE8492F0E940F14AD
:102840000895962F242F64E8492F0E940F140895AD
:10285000962F242F6AE7492F0E940F140895609342
:1028600031054093320520933305109234050E94C0
:1028700090130895962F242F6DE8492F0E942F144E
:102880000895962F242F63E8492F0E942F1408954E
:10289000962F242F69E7492F0E942F1408956093E3
:1028A00031054093320520933305109234050E9480
:1028B00090130895962F242F6CE8492F0E944F14EF
:1028C0000895962F242F62E8492F0E944F140895EF
:1028D000962F242F68E7492F0E944F1408951092D5
:1028E000710081E4809370000895982F84EA8093AA
:1028F00074008091740087FFFCCF80917100887F05
:10290000883021F0803111F081E0089590937300B8
:1029100084E8809374008091740087FFFCCF9091CD
:102920007100987F983111F480E0089580E0903430
:1029300009F081E00895982F44EA34E824E94093AF
:1029400074008091740087FFFCCF80917100887FB4
:10295000883011F0803199F79093730030937400B0
:102960008091740087FFFCCF80917100887F803256
:1029700011F0883539F4209374008091740084FD3F
:10298000FCCFDDCF08950E947514089584E98093EB
:1029900074008091740084FDFCCF089580937300CF
:1029A00084E8809374008091740087FFFCCF80914D
:1029B000710090E0887F883209F091E0892F0895B6
:1029C00084EC809374008091740087FFFCCF809129
:1029D0007300089584E8809374008091740087FFE9
:1029E000FCCF809173000895991B79E004C0991F72
:1029F000961708F0961B881F7A95C9F78095089559
:102A000097FB092E07260AD077FD04D02ED006D0DA
:102A100000201AF4709561957F4F0895F6F7909510
:102A200081959F4F0895A1E21A2EAA1BBB1BFD01A1
:102A30000DC0AA1FBB1FEE1FFF1FA217B307E4079D
:102A4000F50720F0A21BB30BE40BF50B661F771FF5
:102A5000881F991F1A9469F76095709580959095D5
:102A60009B01AC01BD01CF010895AA1BBB1B51E125
:102A700007C0AA1FBB1FA617B70710F0A61BB70BEE
:102A8000881F991F5A95A9F780959095BC01CD0193
:102A90000895FC0188279927E89421912032E9F3D1
:102AA000293010F02E30C8F32B3241F02D3239F49A
:102AB000689404C00E949315820F911D21912053A8
:102AC0002A30C0F31EF4909581959F4F0895FB0125
:102AD000DC010D900020E9F7119701900D92002084
:102AE000E1F70895FB019F01E8944230C4F04532BC
:102AF000B4F44A3029F497FB1EF4909581959F4FCA
:102B0000642F77270E943515805D8A330CF0895D2C
:102B10008193CB010097A1F716F45DE251931082E7
:102B2000C9010C94BB157AE0979F902D879F802D4B
:102B3000910D11240895E199FECF9FBB8EBBE09AC1
:102B400099278DB30895A8E1B0E042E050E00C94DD
:102B5000CD15262FE199FECF9FBB8EBB2DBB0FB6A7
:102B6000F894E29AE19A0FBE019608950E94A91581
:102B7000272F0C94AA15DC01FC01672F7191772394
:102B8000E1F7329704C07C916D9370836291AE1728
:102B9000BF07C8F30895DC01CB01FC01E199FECF2A
:102BA00006C0FFBBEEBBE09A31960DB20D924150CC
:0A2BB0005040B8F70895F894FFCFE5
:102BBA00434D442053595354454D2052455345548F
:102BCA000D0A00434D442052454C4F41442045458F
:102BDA0050524F4D0D0A00434D44204E4F500D0A9E
:102BEA0000434D4420535441525420494E542042EC
:102BFA00555A5A45520D0A00204552524F520D0A53
:102C0A00002441435357313B00535730322E32622E
:102C1A0000507230302E31610078783B78783B78FA
:102C2A00783B002A45410D002441434857313B0077
:102C3A0041544D4547413132380031343734353605
:102C4A00303000485730322E303000323031303098
:102C5A0037303331333030002441434D534700413C
:102C6A00432000454550524F4D20494E495400419A
:102C7A006C61726D20436F6E74726F6C2056657250
:102C8A00733A204143303232620D004572723A2063
:102C9A0052656D6F7465626574722E00416C617263
:102CAA006D4374726C204143303232620053554195
:102CBA00524B2E434F4D2C32303130002441434386
:102CCA004E5400244143524F54002B003000244BF1
:102CDA004C53544100244143535441004D4F444501
:102CEA003A20005343484152460053434841455213
:102CFA0046454E00554E53434841524600564F52A0
:102D0A00414C41524D20200041555347454C4F45B7
:102D1A0053540042656469656E756E673A2046458C
:102D2A00524E0042656469656E756E673A20484185
:102D3A004E4400434F554E54444F574E3A200020BC
:102D4A0073656300434D44204552524F520D0A00A9
:102D5A004E4F20434D440D0A00554E42454B414EBD
:102D6A004E544552204645484C455200534348412B
:102D7A005246534348414C54554E47204552464FBC
:102D8A004C475400564F52414C41524D20415553E5
:102D9A0047454C4F45535400414C41524D494552C9
:102DAA00554E472041555347454C4F4553540041D2
:102DBA004B544956494552554E4720414247454290
:102DCA00524F4348454E00414B5449564945525586
:102DDA004E472047455354415254455400444541B7
:102DEA004B544956494552554E4700535953544539
:102DFA004D2047455354415254455400454550527D
:102E0A004F4D20494E495449414C49534945525422
:102E1A000052454D4F54454245545249454220457A
:102E2A00494E0052454D4F54454245545249454238
:102E3A002041555300A902BC02D402E802FF02173E
:102E4A00032D033B034C0361037303FFFF4D6F0024
:102E5A004469004D6900446F004672005361005393
:102E6A006F009D03A003A303A603A903AC03AF034A
:102E7A004155530045494E00C003C40340414243F3
:062E8A00000000003E05FF
:00000001FF
