:100000000C9496000C94B5000C94B5000C94B500BB
:100010000C94B5000C94B5000C94B5000C94B5008C
:100020000C94B5000C94BF020C94B5000C94B50070
:100030000C94B5000C94B5000C94C3000C94B5005E
:100040000C94B5000C94B5000C948A0E0C94B40E6C
:100050000C94B5000C94B5000C94B5000C94B5004C
:100060000C94B5000C94B5000C94B5000C94B5003C
:100070000C94B5000C94B5000C943C0F0C94680FD4
:100080000C94B5000C94B5000C94B500310D400DE6
:10009000230D400D400D400D400D400D400D400D15
:1000A000400D400D400D400D400D400D400D400DE8
:1000B000400D400D400D400D400D400D400D400DD8
:1000C000E90CF90C030D400D400D130D1B0D400DF7
:1000D000400D400DF50C400DDD0CED0C400DE50C18
:1000E000F10C0B0DD90C400D400DE10C400D400DF5
:1000F000400D400D400D400DCC0C400D400DCF0C7F
:10010000EB0CFD0C070DD30CC90C170D1F0D400D8A
:10011000400D400DF70C400DDF0CEF0CC60CE70C4A
:10012000F30C0F0DDB0C400D400DE30C11241FBE32
:10013000CFEFD0E1DEBFCDBF13E0A0E0B1E0E8E754
:10014000FBE200E00BBF02C007900D92AA38B10796
:10015000D9F714E0AAE8B3E001C01D92A63EB107AA
:10016000E1F70E94460D0C94BB150C94000083B778
:10017000896683BF08958CE085BD80E383BD87B722
:10018000806887BF08951F920F920FB60F921124B7
:100190002F933F934F935F936F937F938F939F938F
:1001A000AF93BF93EF93FF93209176043091770440
:1001B00040E050E060E074E883E090E00E94671562
:1001C000209530953DBD2CBD8091A4038F5F809319
:1001D000A4038091A40381BF9091A40380916A0439
:1001E000891720F480917A048093A403FF91EF9102
:1001F000BF91AF919F918F917F916F915F914F913F
:100200003F912F910F900FBE0F901F901895E4E62D
:10021000F0E080818E7F8083E5E6F0E080818E7F54
:100220008083D198D998D298DA98D498DC98D398CA
:10023000DB98D59ADD9AD69ADE9AD79ADF9A159AE4
:100240001D98BB9AC398179A1F98169A1E98BE9A23
:10025000C698BD9AC598BF9AC798149A1C980895D5
:10026000CF92DF92EF92FF920F931F93CF93DF9382
:1002700080E090E0FC01ED56FC4F10820196883042
:100280009105C1F700E010E0EE24FF24C0E0D0E0CB
:1002900083E9C82E83E0D82EC00ED11E9E012E0DFC
:1002A0003F1D22563B4FD9018C918C9190E0807F6D
:1002B000907060E170E00E945415FB01D9012C910F
:1002C000F0E0E557FC4F808190E02F7002C09595DB
:1002D00087952A95E2F780FF0CC0F601208181E026
:1002E00090E00C2E02C0880F991F0A94E2F7282B89
:1002F00020832196C830D10589F60F5F1F4F88E013
:1003000090E0E80EF91E0830110509F0BFCFDF912B
:10031000CF911F910F91FF90EF90DF90CF900895B4
:10032000A5E0B0E00E949D15802D809378041D9A71
:100330001E9A08951D9A1E9A0895AAE0B0E00E94A0
:100340009D15802D809378041092A5031D988091AF
:100350006D0481FF03C01E981F9A03C01D9A83FD80
:100360001E9A82FF03C0C59AC79A089584FDC59A54
:1003700008951E981F98C798C698C5981C981D98F0
:10038000C398089587B9379A369A3699FECF369A28
:100390003699FECF379824B135B189E190E0AC01B0
:1003A000249FC001259F900D349F900D1124969598
:1003B0008795969587958A5C9840089580916B04FF
:1003C000CC9B05C0826080936B04DE9A04C08D7F55
:1003D00080936B04DE9880916B04CB9B05C0816099
:1003E00080936B04DD9A08958E7F80936B04DD9873
:1003F000089510928A038091630080FF11C080915C
:10040000B2038F5F8093B203813011F0873051F4D3
:1004100093E090938A03873029F49093B20302C04B
:100420001092B203C99B12C09091B1039F5F909349
:10043000B103913011F0973059F484E080938A032E
:10044000973031F483E08093B10302C01092B1037E
:10045000CA9B12C09091B0039F5F9093B0039130FC
:1004600011F0973059F485E080938A03973031F486
:1004700083E08093B00302C01092B00380916B04BC
:10048000CB9B02C0816001C08E7F80936B04809102
:100490006B04CC9B02C0826001C08D7F80936B0493
:1004A000089520E030E0D901AD56BC4F8C91F901A0
:1004B000E556FC4F80838C91D901A65EBF4F082E74
:1004C0000E94AA152F5F3F4F2830310561F708952C
:1004D00020E030E0D901A65EBF4F0E949D15802D1F
:1004E000F901ED56FC4F8083D901AE5EBF4F0E94EB
:1004F0009D15802DF901E357FD4F80832F5F3F4FFE
:100500002830310539F720E030E0D901AE5DBF4F2A
:100510000E949D15802DF901E256FB4F80832F5FCD
:100520003F4F2034310589F720E030E0D901AE5942
:10053000BF4F0E94A515CF01F901E259FB4F9183EE
:1005400080832E5F3F4F2830310581F7AFE0B0E068
:100550000E949D15802D80938903A0E1B0E00E9448
:100560009D15802D80937D04A1E1B0E00E949D1532
:10057000802D80938703089583E08EBD08951F9298
:100580000F920FB60F9211242F938F939F93809108
:10059000AE039091AF0301969093AF038093AE03A7
:1005A0008436910549F480917904886080937904B8
:1005B0001092AF031092AE038091AC039091AD0303
:1005C00001969093AD038093AC038E55914049F40E
:1005D000809186048260809386041092AD0310920D
:1005E000AC038091AA039091AB0301969093AB0367
:1005F0008093AA03845F914049F4809179048460D8
:10060000809379041092AB031092AA038091A803FF
:100610009091A90301969093A9038093A803885E03
:10062000934049F480917904816080937904109219
:10063000A9031092A8038091A6039091A7030196A5
:100640009093A7038093A6038858934149F480911F
:1006500079048260809379041092A7031092A60314
:100660009F918F912F910F900FBE0F901F90189513
:10067000EF92FF920F931F9333E6E32E34E0F32EB5
:1006800083E080936304A7014F5F5F4F86E0809310
:10069000640497012E5F3F4F82E0809365048701D9
:1006A0000D5F1F4F88E080936604B70180EA0E94C7
:1006B00020138CE08093670486E28093680486E0D0
:1006C00090E0E80EF91E1092690497010894E10881
:1006D000F108A7010894E108F108B70180EA0E9437
:1006E00083121F910F91FF90EF9008950F931F9326
:1006F00080E091E00E94210F08E011E0C8010E9413
:10070000210FC8010E94210F8FE091E00E94210F6C
:1007100089E191E00E94210F1F910F9108958EE1D0
:1007200091E00E94210F86E291E00E94210F81E377
:1007300091E00E94210F8BE391E00E94210F84E45D
:1007400091E00E94210F8DE491E00E94210F89E148
:1007500091E00E94210F08950F931F938C018BE568
:1007600091E00E94210F8CE20E940F0F82E691E03F
:100770000E94210F000F111F0F581C4FF80180819C
:1007800091810E94210F8CE20E940F0F89E191E07C
:100790000E94210F1F910F910895882341F4A2E038
:1007A000B0E00E949D15802D8A3A09F43BC20E9458
:1007B0008A1086E691E00E94B2108AEAA2E0B0E0D8
:1007C000082E0E94AA153AE0A3E0B0E0032E0E9492
:1007D000AA1588E0A4E0B0E0082E0E94AA1580E4E3
:1007E00042E150E0DA01082E0E94AA1582E44F5F30
:1007F0005F4FDA01082E0E94AA1584E44F5F5F4F15
:10080000DA01082E0E94AA1586E44F5F5F4FDA01D5
:10081000082E0E94AA1588E44F5F5F4FDA01082E68
:100820000E94AA158AE44F5F5F4FDA01082E0E94EA
:10083000AA158CE44F5F5F4FDA01082E0E94AA15BB
:100840008EE44F5F5F4FDA01082E0E94AA1582E006
:10085000A5E0B0E0082E0E94AA1524E6A6E0B0E0CC
:10086000022E0E94AA159FEFA7E0B0E0092E0E9479
:10087000AA15A8E0B0E0092E0E94AA15A9E0B0E0F0
:10088000022E0E94AA1585E0AAE0B0E0082E0E9480
:10089000AA15ABE0B0E0032E0E94AA1586EEACE0EC
:1008A000B0E0082E0E94AA15ADE0B0E0092E0E942B
:1008B000AA15AEE0B0E0022E0E94AA1522E630E0B2
:1008C0008EEC9FEFD9010C010E94B6152E5F3F4FB1
:1008D000B0E02A363B07A1F722E0AFE0B0E0022EFD
:1008E0000E94AA1584EBA0E1B0E0082E0E94AA1590
:1008F0008EE3A1E1B0E0082E0E94AA1583E062E237
:1009000070E0DB01082E0E94AA1585E16F5F7F4F22
:10091000DB01082E0E94AA158FEF6F5F7F4FDB016E
:10092000082E0E94AA156F5F7F4FDB01082E0E94E0
:10093000AA156F5F7F4FDB01082E0E94AA156F5F1B
:100940007F4FDB01082E0E94AA156F5F7F4FDB01EE
:10095000082E0E94AA156F5F7F4FDB01082E0E94B0
:10096000AA156F5F7F4FDB01022E0E94AA1594E14A
:100970006F5F7F4FDB01092E0E94AA156F5F7F4FCB
:10098000DB01082E0E94AA156F5F7F4FDB01082E46
:100990000E94AA156F5F7F4FDB01082E0E94AA15E7
:1009A0006F5F7F4FDB01082E0E94AA156F5F7F4F9C
:1009B000DB01082E0E94AA156F5F7F4FDB01082E16
:1009C0000E94AA1591E06F5F7F4FDB01092E0E9404
:1009D000AA1590E06F5F7F4FDB01092E0E94AA15D8
:1009E00097E06F5F7F4FDB01092E0E94AA1595E00B
:1009F0006F5F7F4FDB01092E0E94AA1593E16F5FA5
:100A00007F4FDB01092E0E94AA1591E16F5F7F4F96
:100A1000DB01092E0E94AA1597E16F5F7F4FDB0172
:100A2000092E0E94AA156F5F7F4FDB01082E0E94DE
:100A3000AA156F5F7F4FDB01022E0E94AA156F5F20
:100A40007F4FDB01022E0E94AA1596E06F5F7F4F59
:100A5000DB01092E0E94AA1594E06F5F7F4FDB0136
:100A6000092E0E94AA1592E16F5F7F4FDB01092ECC
:100A70000E94AA1590E16F5F7F4FDB01092E0E9453
:100A8000AA1596E16F5F7F4FDB01092E0E94AA1520
:100A90006F5F7F4FDB01082E0E94AA156F5F7F4FAB
:100AA000DB01082E0E94AA156F5F7F4FDB01082E25
:100AB0000E94AA156F5F7F4FDB01082E0E94AA15C6
:100AC0006F5F7F4FDB01082E0E94AA156F5F7F4F7B
:100AD000DB01082E0E94AA156F5F7F4FDB01082EF5
:100AE0000E94AA156F5F7F4FDB01082E0E94AA1596
:100AF0006F5F7F4FDB01082E0E94AA156F5F7F4F4B
:100B0000DB01082E0E94AA156F5F7F4FDB01082EC4
:100B10000E94AA156F5F7F4FDB01082E0E94AA1565
:100B20006F5F7F4FDB01082E0E94AA156F5F7F4F1A
:100B3000DB01082E0E94AA156F5F7F4FDB01082E94
:100B40000E94AA156F5F7F4FDB01082E0E94AA1535
:100B50006F5F7F4FDB01082E0E94AA156F5F7F4FEA
:100B6000DB01082E0E94AA156F5F7F4FDB01082E64
:100B70000E94AA156F5F7F4FDB01082E0E94AA1505
:100B80006F5F7F4FDB01082E0E94AA156F5F7F4FBA
:100B9000DB01082E0E94AA156F5F7F4FDB01082E34
:100BA0000E94AA156F5F7F4FDB01082E0E94AA15D5
:100BB0006F5F7F4FDB01082E0E94AA156F5F7F4F8A
:100BC000DB01082E0E94AA156F5F7F4FDB01082E04
:100BD0000E94AA156F5F7F4FDB01082E0E94AA15A5
:100BE0006F5F7F4FDB01082E0E94AA156F5F7F4F5A
:100BF000DB01082E0E94AA156F5F7F4FDB01082ED4
:100C00000E94AA156F5F7F4FDB01082E0E94AA1574
:100C10006F5F7F4FDB01082E0E94AA1588E090E0ED
:100C20000E94AC03089582E791E00E94210F87E0C3
:100C300090E00E94AC030895CF93DF93809162040B
:100C400080FF34C0867009F04EC0C1E0D0E0FE01E4
:100C5000ED56FC4F9081FE01E556FC4F80819817C0
:100C600079F0809162049FEF90935D02857F8460AC
:100C7000809362040E949D0183E090E00E94AC0397
:100C80002196C830D10519F79091930380919B0369
:100C9000981749F1809162048A60809362040E94EF
:100CA000900182E090E00E94AC031DC040E050E063
:100CB00020E030E0F901ED56FC4F8081480F511DD6
:100CC0002F5F3F4F28303105A9F78091B3039091F2
:100CD000B4034817590719F01D9A109288035093CE
:100CE000B4034093B303DF91CF91089580916204E0
:100CF000807F809362048FEF80935D020E94B90130
:100D000086E090E00E94AC030895809162048860C0
:100D10008093620485E090E00E94AC030895809186
:100D2000620480FD0AC0877F809362048FEF809306
:100D30005D0284E090E00E94AC030895DF92EF92A0
:100D4000FF920F931F93CF93DF93D82E5EE6E52E8D
:100D500054E0F52ECEE7D4E000E010E0602F809163
:100D600087030E94B313D701ED91FC91EA5CF84030
:100D700029E130E0AC01429FC001439F900D529F9A
:100D8000900D112464E070E00E945415E60FF71FE7
:100D900088819981E817F90714F4019704C08E1728
:100DA0009F071CF4019699838883DD2011F0F98355
:100DB000E8830F5F1F4F82E090E0E80EF91E229655
:100DC0000430110559F6DF91CF911F910F91FF90DB
:100DD000EF90DF90089590916B0490FF1CC080917C
:100DE0006D0491FF0BC080FD22C0816080936D0473
:100DF0001D9889E090E00E94AC0308958E7F809357
:100E00006D041D9A62E080E00E9476108EE891E009
:100E10000E94B210089580916D0480FF08C08E7FFB
:100E200080936D048AE090E00E94AC031D980895C1
:100E30000E948A108FE991E00E94B21061E081E087
:100E40000E94761080EB91E00E94B210089580918C
:100E50008D020E94641380938B0380918E020E9406
:100E6000641380938C0380918F020E94641380939B
:100E70008D03809190020E94641380938E031092E0
:100E80008F03109290031092910310929203089591
:100E9000EF92FF920F931F9366E6E62E64E0F62E24
:100EA000970121503040A70142505040B701635094
:100EB0007040870180EA0E94DA11A7014E5F5F4F00
:100EC000B7016F5F7F4F83E090E0E80EF91E970156
:100ED00080EA0E9470111F910F91FF90EF9008958A
:100EE0000F931F93CF93DF93CDB7DEB726970FB63F
:100EF000F894DEBF0FBECDBF4AE050E08E010F5F19
:100F00001F4FB8010E940F15C8010E94B21026960B
:100F10000FB6F894DEBF0FBECDBFDF91CF911F910A
:100F20000F9108950F931F93CF93DF93CDB7DEB743
:100F300026970FB6F894DEBF0FBECDBF4AE050E053
:100F40008E010F5F1F4FB8010E940F15C8010E944C
:100F5000210F26960FB6F894DEBF0FBECDBFDF91EE
:100F6000CF911F910F9108958FEB91E00E94210F77
:100F70008CE20E940F0F80916204817090E00E94C9
:100F800092078CE20E940F0F809162048695817017
:100F900090E00E9492078CE20E940F0F8091620401
:100FA00086958695817090E00E9492078CE20E945F
:100FB0000F0F80915D0290E00E9492078CE20E94E8
:100FC0000F0F89E191E00E94210F089580915D0249
:100FD0008F3F39F4A3E0B0E00E949D15802D8093EF
:100FE0005D020E94B40780915D02815080935D0292
:100FF0008F3F01F580916204982F977F9093620450
:1010000080FD0CC09160997F909362040E94510210
:10101000C69A81E090E00E94AC03089581FF0AC067
:10102000857F8460809362040E949D0183E090E04C
:101030000E94AC0308954F925F926F927F928F92BD
:101040009F92AF92BF92CF92DF92FF920F931F9326
:10105000CF93DF93AA24BB2488249924E6EC4E2E58
:10106000E1E05E2E79E1672E71E0772ECC24DD245D
:101070008601080D191DE801C256DB4F8881888161
:10108000F880C2010E94210F8CE20E940F0FC8015C
:101090000E9492078CE20E940F0FC5010E949207E6
:1010A0008CE20E940F0FC6010E9492078CE20E9400
:1010B0000F0F80E090E00E9492078CE20E940F0FD9
:1010C00080E090E0FF2011F081E090E00E94920724
:1010D0008CE20E940F0F888190E00E9492078CE2C0
:1010E0000E940F0FC3010E94210F0894C11CD11C44
:1010F00088E0C816D10409F0BBCF0894A11CB11C2C
:1011000088E090E0880E991E98E0A916B10409F0D5
:10111000ADCFDF91CF911F910F91FF90DF90CF90D6
:10112000BF90AF909F908F907F906F905F904F9007
:101130000895AF92BF92CF92DF92FF920F931F93C9
:10114000CF93DF93CDB7DEB726970FB6F894DEBF07
:101150000FBECDBF8C01D62EF42E109288044AE02B
:1011600050E0BE016F5F7F4F0E940F1510161106F1
:1011700044F4FF2031F06DEC71E088E894E00E94C7
:101180000415DD2001F1DE011196FD010190002022
:10119000E9F73197FE2EFA1A0D2D10E0015010409C
:1011A000AFECAA2EA1E0BA2EF8E8CF2EF4E0DF2EA5
:1011B00005C0B501C6010E940415F3948F2D90E07F
:1011C00008171907B4F7BE016F5F7F4F88E894E0F6
:1011D0000E94041526960FB6F894DEBF0FBECDBF51
:1011E000DF91CF911F910F91FF90DF90CF90BF9033
:1011F000AF9008950F931F938091640440E062E0E4
:1012000090E00E94990808E814E0C8010E94210FAC
:101210008EE20E940F0F8091650440E062E090E052
:101220000E949908C8010E94210F8EE20E940F0FB0
:101230008091660440E062E090E00E949908C80155
:101240000E94210F80E20E940F0F8091670440E00E
:1012500062E090E00E949908C8010E94210F8AE391
:101260000E940F0F8091680440E062E090E00E94CD
:101270009908C8010E94210F8AE30E940F0F8091F4
:10128000690440E062E090E00E949908C8010E9471
:10129000210F8CE20E940F0F80E890E01F910F91C8
:1012A00008950F931F9381ED91E00E94210F8CE22E
:1012B0000E940F0F0E94FA0860E0809187030E944D
:1012C000B31309E110E09C01209FC001219F900D04
:1012D000309F900D112464E070E00E945415CB0102
:1012E0008A5C98400E9492078CE20E940F0F61E096
:1012F000809187030E94B3139C01209FC001219F0E
:10130000900D309F900D112464E070E00E94541500
:10131000CB018A5C98400E9492078CE20E940F0FDA
:1013200062E0809187030E94B3139C01209FC0015B
:10133000219F900D309F900D112464E070E00E9479
:101340005415CB018A5C98400E9492078CE20E945F
:101350000F0F63E0809187030E94B3139C01209FCD
:10136000C001219F900D309F900D112464E070E02A
:101370000E945415CB018A5C98400E9492078CE22F
:101380000E940F0F89E191E00E94210F1F910F91A0
:101390000895CF93DF9381ED91E00E94210F8CE2BD
:1013A0000E940F0F0E94FA08CEE7D4E0899199912C
:1013B0000E9492078CE20E940F0F84E0C638D80783
:1013C000A9F789E191E00E94210FDF91CF91089563
:1013D000CF93DF9388ED91E00E94210F8CE20E9471
:1013E0000F0F0E94FA0880916204817090E00E94C1
:1013F00092078CE20E940F0F8091620486958170A3
:1014000090E00E9492078CE20E940F0F809162048C
:1014100086958695817090E00E9492078CE20E94EA
:101420000F0F80916D04817090E00E9492078CE212
:101430000E940F0F80916D048695817090E00E944C
:1014400092078CE20E940F0F80916D04869586951D
:10145000817090E00E9492078CE20E940F0F8091B1
:101460006D04869586958695817090E00E9492071E
:101470008CE20E940F0F80916D048295817090E044
:101480000E9492078CE20E940F0F80916D0482955A
:101490008695817090E00E9492078CE20E940F0F67
:1014A00080E30E940F0F8CE20E940F0FC0E0D0E09B
:1014B000FE01ED56FC4F808190E00E9492078CE285
:1014C0000E940F0F2196C830D10591F789E191E074
:1014D0000E94210FDF91CF9108958091860481FFB2
:1014E000D5C0DD98DE98DF980E948A1060E080E029
:1014F0000E947610E0916304F0E0EE0FFF1FED58BC
:10150000FD4F808191810E94B21080E20E94921072
:101510008091640440E062E090E00E94990888E8CD
:1015200094E00E94B2108EE20E94921080916504B5
:1015300040E062E090E00E94990888E894E00E9410
:10154000B21080E20E94921080E20E94921080E22B
:101550000E9492108091670440E062E090E00E9457
:10156000990888E894E00E94B2108AE30E949210E1
:101570008091680440E062E090E00E94990888E869
:1015800094E00E94B21061E080E00E9476108FED3E
:1015900091E00E94B2108091620480FF06C086EE46
:1015A00091E00E94B210DE9A09C083FF03C08DEE65
:1015B00091E002C087EF91E00E94B21061E086E006
:1015C0000E9476108091620481FF04C080E092E066
:1015D0000E94B2108091620482FF0BC08BE092E007
:1015E0000E94B2108091B503882311F0DE9A01C0E9
:1015F000DE9880916D0480FF0AC062E080E00E9466
:10160000761086E192E00E94B210DD9A09C062E095
:1016100080E00E94761086E292E00E94B210DD988F
:101620008091620483FF1BC062E080E00E9476101C
:1016300086E392E00E94B21080915D0240E063E098
:1016400090E00E94990888E894E00E94B21082E439
:1016500092E00E94B2108091B5038111DE9A60E0A1
:101660008DE00E9476108091B503882321F01092BE
:10167000B5038AE304C081E08093B50380E20E9451
:101680009210809186048D7F8093860480918A03D6
:101690008350823040F48FEF80935C028091860407
:1016A00088608093860408950E946D0A08950F93C0
:1016B0001F93CF93DF93CDB7DEB725970FB6F8947E
:1016C000DEBF0FBECDBF8091C903833209F007C1D1
:1016D00020E030E0AE014F5F5F4FF901E653FC4F71
:1016E0008081FA01E20FF31F80832F5F3F4F253087
:1016F000310599F7CA010E94E6148C0120E030E020
:10170000AE014F5F5F4FF901E153FC4F8081FA0159
:10171000E20FF31F80832F5F3F4F2530310599F78C
:10172000CA010E94E614BC0181E0083F180709F4D1
:1017300070C081E0093F180760F5023D110509F40A
:101740007CC0033D110568F40636110509F48DC00F
:101750000736110509F48CC00536110509F08EC055
:1017600069C081E0053F180709F447C081E0063FE2
:10177000180728F40C3D110509F080C07CC081E0F9
:10178000063F1807F1F181E0073F180709F076C01E
:101790003CC082E00436180709F458C082E00536E0
:1017A000180790F481E00A3F1807E1F181E00A3F51
:1017B0001807A0F181E00B3F1807C1F182E0033662
:1017C000180709F05BC03FC082E00D36180709F426
:1017D00043C082E00E36180730F482E00536180761
:1017E00009F04CC036C082E00E361807C1F182E025
:1017F0000F36180709F042C035C080EA0E94031373
:1018000072C080EA0E94E6126EC080EA0E94C9128D
:101810006AC0605D80EA0E949F1265C080EA0E94F3
:101820006F1261C080EA0E945B125DC080EA0E9474
:10183000471259C0A3E0B0E002C0A4E0B0E0062E19
:101840000E94AA1550C0A7E0B0E0F9CFA8E0B0E030
:10185000F6CFA9E0B0E0F3CFACE0B0E0F0CFADE080
:10186000B0E0EDCFAEE0B0E0EACFAFE0B0E0E7CF80
:10187000A0E1B0E0E4CFA1E1B0E0E1CFC801885C35
:101880009040089720F4D801A65BB040D8CFF8016B
:10189000EC52F140E034F10550F4D801AA50B140C7
:1018A000062E0E94AA15E256FB4F60831CC0F80169
:1018B000E655F440E430F10578F4D801AA0FBB1FD7
:1018C000AA54B8400B010E94B615EE0FFF1FE25953
:1018D000FB4F7183608307C087E492E002C083E519
:1018E00092E00E94210F25960FB6F894DEBF0FBE3E
:1018F000CDBFDF91CF911F910F910895982F863220
:1019000011F41092B603E091B603F0E0E854FC4FF6
:1019100090838091B6038F5F8093B6038091B60366
:10192000803111F41092B6039A30D1F420E030E007
:1019300008C0F0E0DF01A854BC4F8C91E853FC4F85
:101940008083E22F8091B6032F5F3F4FE81788F323
:101950008091B6038093B7031092B6030E94570B91
:101960000895CF93DF930E94F40EEC0190FD8BC09D
:10197000FC01BB97E035F10508F082C0EA5BFF4F40
:10198000EE0FFF1F0590F491E02D09940E9485064B
:1019900077C00E94760674C00E948F0671C0809145
:1019A0006C04826003C080916C04816080936C043D
:1019B00067C01E9A65C01E9863C01F9A61C01F98B9
:1019C0005FC0C79A5DC0C7985BC0C69A59C0C69829
:1019D00057C0C59A55C0C59853C01C9A51C01C9891
:1019E0004FC01D9A4DC01D984BC0C39A49C0C398A3
:1019F00047C080916D04826003C080916D048D7F2B
:101A000080936D043DC080916D048460F9CF809116
:101A10006D048B7FF5CF80916D048860F1CF80914C
:101A20006D04877FEDCF80916D048061E9CF809157
:101A30006D048F7EE5CF80916D048062E1CF80914F
:101A40006D048F7DDDCF809187048F5F8093870445
:101A500080917A04815080937A0480916A04815045
:101A60000DC08091870481508093870480917A040F
:101A70008F5F80937A0480916A048F5F80936A04F9
:101A80008C2F0E947E0CDF91CF91089581E080938E
:101A900063048FE1809364048CE08093650487E0A5
:101AA0008093660487E1809367048BE380936804E6
:101AB0008FE2809369040E9407018CE00E94CC10A1
:101AC0008FE290E00E94D90E789480E00E94CD03CE
:101AD000CA9B03C081E00E94CD030E94581484E891
:101AE00086B983B7896683BF8CE085BD80E383BDFB
:101AF00087B7806887BF83E08EBD0E9413060E946F
:101B00001807809162048E7F8093620480916D0437
:101B10008F618F7D80936D040E94680241E060E0D8
:101B2000809187030E94CF1341E061E08091870399
:101B30000E94CF1341E062E0809187030E94CF139F
:101B400041E063E0809187030E94CF1341E062E0AF
:101B5000809187030E94521441E062E080918703E4
:101B60000E94181441E063E0809187030E945214A0
:101B700040E063E0809187030E94181481E00E9496
:101B80009E060E94540B0E94F9010E94EB060E94DF
:101B900027070E9430010E941C062091620422FF48
:101BA00010C080916D0481FF02C01F9A03C01D9A6E
:101BB00083FD1E9A82FF03C0C59AC79A02C084FDA6
:101BC000C59A80916D0480FF03C00E94B10C17C0BC
:101BD00080916B04922F917081FF07C0992379F453
:101BE00023FD0DC00E9485060AC0992311F00E94B2
:101BF00076068091620483FF02C00E948F06809166
:101C0000790483FF22C08091620481FF19C0809112
:101C1000A303882311F41D9A1E9A9091A303809127
:101C20007804981711F40E94B9018091A3038F5F83
:101C30008093A3038091A3038A3011F41092A3032D
:101C400080917904877F809379048091790480FF63
:101C50002EC080916C04816080936C04809162043A
:101C600083FF02C00E94E6070E9448078091880314
:101C700090918903981730F08F5F809388038917BC
:101C800008F01D988091620482FF0CC08091A5032A
:101C90008F5F8093A50390917D04891719F41F9895
:101CA0001092A503809179048E7F809379048091AE
:101CB000790481FF0DC080E00E949E0680916C0433
:101CC000846080936C04809179048D7F8093790483
:101CD00080916C0480FF07C00E94E80980916C0429
:101CE0008E7F80936C0480916C0482FF07C00E94F9
:101CF000C90980916C048B7F80936C0480916C0483
:101D000081FF3FCF0E941B0880916C048D7F8093E0
:101D10006C0437CF1F920F920FB60F9211242F939E
:101D20008F939F93EF93FF939BB12CB1E0911A0493
:101D3000EF5FEF7180911B04E81711F482E008C097
:101D4000892F8871E0931A04F0E0E850FC4F20835B
:101D500080931C04FF91EF919F918F912F910F9091
:101D60000FBE0F901F9018951F920F920FB60F92F3
:101D700011248F939F93EF93FF9390911804809178
:101D80001904981761F0E0911904EF5FEF71E09387
:101D90001904F0E0E852FC4F80818CB901C05598DD
:101DA000FF91EF919F918F910F900FBE0F901F9019
:101DB00018959C01109218041092190410921A049C
:101DC00010921B04129A1A9A97FF03C082E08BB9F3
:101DD0003F77832F99278093900029B988E98AB9A2
:101DE00086E080939500089590911A0480911B04D9
:101DF000981719F480E091E00895E0911B04EF5FDB
:101E0000EF71E0931B04F0E0E850FC4F20818091DB
:101E10001C0490E0982F8827820F911D0895282F89
:101E2000909118049F5F9F71809119049817E1F3B6
:101E3000E92FF0E0E852FC4F208390931804559A64
:101E40000895CF93DF93EC0103C021960E940F0FFA
:101E500088818823D1F7DF91CF910895CF93DF93C5
:101E6000EC0102C00E940F0FFE012196849188238D
:101E7000C9F7DF91CF9108951F920F920FB60F927D
:101E800011242F938F939F93EF93FF9390919B0037
:101E900020919C00E0915F04EF5FEF7180916004FE
:101EA000E81711F482E008C0892F8871E0935F047D
:101EB000F0E0E35CFB4F208380936104FF91EF919E
:101EC0009F918F912F910F900FBE0F901F9018959B
:101ED0001F920F920FB60F9211248F939F93EF933F
:101EE000FF9390915D0480915E04981769F0E091F2
:101EF0005E04EF5FEF71E0935E04F0E0E35EFB4FA2
:101F0000808180939C0005C080919A008F7D809392
:101F10009A00FF91EF919F918F910F900FBE0F90BC
:101F20001F9018959C0110925D0410925E0410920F
:101F30005F041092600497FF04C082E080939B00CE
:101F40003F77832F9927809398002093990088E901
:101F500080939A0086E080939D00089590915F049D
:101F600080916004981719F480E091E00895E09161
:101F70006004EF5FEF71E0936004F0E0E35CFB4F1F
:101F800020818091610490E0982F8827820F911D15
:101F90000895282F90915D049F5F9F7180915E044A
:101FA0009817E1F3E92FF0E0E35EFB4F2083909375
:101FB0005D0480919A00806280939A000895CF9387
:101FC000DF93EC0103C021960E94C90F888188230A
:101FD000D1F7DF91CF910895CF93DF93EC0102C049
:101FE0000E94C90FFE01219684918823C9F7DF91D1
:101FF000CF910895AC9A00C0AC980895CF93DF9329
:10200000662311F0AE9A01C0AE98AD98A39AA29A39
:10201000A19AA09AA898A998AA98AB9887FDA89A7F
:10202000C82F86FDA99AC5FDAA9AC4FDAB9A0E9445
:10203000FA0FA898A998AA98AB98C3FDA89AC2FDD0
:10204000A99AC1FDAA9AC0FDAB9A0E94FA0FAB9A59
:10205000AA9AA99AA89ADF91CF910895882311F09E
:10206000AE9A01C0AE98AD9AA398A298A198A098F4
:10207000AC9A00C09B9B02C080E101C080E09A99AD
:1020800080629999806498998068AC9800C0AC9AF5
:1020900000C09B9981609A9982609999846098990F
:1020A0008860AC9890E0089580E00E942E1087FD33
:1020B000FBCF87E090E00197F1F780E00E942E10BF
:1020C00090E008951F93182F0E94541060E0812F14
:1020D0000E94FE0F1F9108951F93182F0E94541005
:1020E00061E0812F0E94FE0F1F910895662311F475
:1020F000805809C0613011F4805405C0623011F479
:10210000805701C080530E94621008950E945410AD
:1021100090E0089581E00E946210089582E00E949C
:10212000621008951F93182F0E945410982F1A3090
:1021300099F4803110F480E40BC08054803110F4A5
:1021400080E106C09051903310F480E501C080E03A
:1021500080580E94621004C061E0812F0E94FE0F2F
:102160001F910895CF93DF93EC0102C00E9492105B
:1021700089918823D9F7DF91CF910895CF93DF9389
:10218000EC0102C00E949210FE01219684918823E6
:10219000C9F7DF91CF910895FF920F931F93F82E07
:1021A000A69AA59AA49AA39AA29AA19AA09A80E61E
:1021B00096EE0197F1F7AA9AAB9A0E94FA0F80EE79
:1021C00097E40197F1F70E94FA0F0BEE10E0C801B7
:1021D0000197F1F70E94FA0FC8010197F1F7AB9848
:1021E0000E94FA0FC8010197F1F788E20E9462107D
:1021F00088E00E9462100E948A1086E00E946210AD
:102200008F2D0E9462101F910F91FF900895282F2B
:1022100022952F709AE0299F900111248F70820FD0
:1022200090E00895282F6AE00E944815482F50E05A
:1022300084E0440F551F8A95E1F7822F0E944815CC
:10224000940F892F90E008950F931F93162F042F5A
:102250000E948814812F0E94BC14802F0E94BC14FD
:102260000E94B4141F910F9108950E9424110895A3
:102270000F931F93082F162F0E948814812F0E94FE
:10228000BC14802F8F5F0E94B0140E94DB14182FA3
:102290000E94B414812F90E01F910F9108950E9425
:1022A000381190E0089561E00E9438110E940711F2
:1022B00090E0089562E00E9438110E94071190E0BA
:1022C000089563E00E9438110E94071190E008957C
:1022D00064E00E9438118F730E94071190E0089506
:1022E000AF92BF92CF92DF92EF92FF921F93182F7F
:1022F0007B016A0159010E946811F7018083812FD7
:102300000E946111F6018083812F0E945A11F5010C
:1023100080831F91FF90EF90DF90CF90BF90AF90A0
:102320000895FF920F931F93F82E65E00E943811D5
:10233000182F129516951695137065E08F2D0E9433
:102340003811082F0295069506950370101779F03D
:10235000402F63E18F2D0E94241161E18F2D0E9497
:1023600038118F5F482F61E18F2D0E94241161E1A8
:102370008F2D0E943811080F802F90E01F910F9130
:10238000FF90089566E00E9438118F710E94071136
:1023900090E0089565E00E9438118F730E94071144
:1023A00090E0089566E00E943811829586958770C6
:1023B00090E008958F929F92AF92BF92CF92DF925A
:1023C000FF920F931F93F82E6B015A0149010E944F
:1023D000D211F60180838F2D0E94CA11F5018083EE
:1023E0008F2D0E94C211F40180838F2D0E949111C4
:1023F000F80180831F910F91FF90DF90CF90BF90E5
:10240000AF909F908F9008951F93182F40E060E049
:102410000E94241165E0812F0E94381182958695D3
:1024200086958370482F63E1812F0E9424111F91AC
:1024300008951F93182F60E00E9438118F77482F5E
:1024400060E0812F0E9424111F9108951F93182F7F
:1024500060E00E9438118068482F60E0812F0E9460
:1024600024111F9108950F931F93182F062F0E9478
:102470002612802F0E941211482F61E0812F0E94A6
:102480002411812F0E9419121F910F9108950F930B
:102490001F93182F062F0E942612802F0E941211C0
:1024A000482F62E0812F0E942411812F0E9419126F
:1024B0001F910F9108950F931F93182F062F0E94BD
:1024C0002612802F0E941211482F63E0812F0E9454
:1024D0002411812F0E9419121F910F9108950F93BB
:1024E0001F93182F062F0E942612802F0E94121170
:1024F000482F64E0812F0E942411812F0E9419121D
:102500001F910F910895CF92DF92FF920F931F9327
:10251000F82EFB018A01690160810E946F12F801A7
:1025200060818F2D0E945B12F60160818F2D0E94C9
:1025300047121F910F91FF90DF90CF900895FF9267
:102540000F931F93F82E462F062F0370401B61E157
:102550000E9424110295000F000F007C402F63E1C0
:102560008F2D0E94241165E08F2D0E943811182FA5
:102570001F738F2D0E942612102B412F65E08F2D87
:102580000E9424118F2D0E9419121F910F91FF900C
:102590000895FF920F931F93182FF62E66E00E9466
:1025A0003811082F007E812F0E9426128F2D0E9445
:1025B0001211082B402F66E0812F0E942411812FD9
:1025C0000E9419121F910F91FF900895FF920F938F
:1025D0001F93182FF62E65E00E943811082F007CFB
:1025E000812F0E9426128F2D0E941211082B402F3E
:1025F00065E0812F0E942411812F0E9419121F91E2
:102600000F91FF900895FF920F931F93F82E062FBE
:1026100066E00E943811182F1F718F2D0E9426121C
:102620000295000F007E102B412F66E08F2D0E9437
:1026300024118F2D0E9419121F910F91FF90089560
:10264000AF92BF92CF92DF92FF920F931F93F82E1B
:10265000FB016A01590160810E940313F601608148
:102660008F2D0E94E612F50160818F2D0E94C91204
:10267000F80160818F2D0E949F121F910F91FF9092
:10268000DF90CF90BF90AF9008951F93162F0E94B8
:102690008814812F0E94BC140E94B4141F910895C5
:1026A0000E94451308951F93182F0E948814812FAC
:1026B0008F5F0E94B0140E94DB14182F0E94B41484
:1026C000812F90E01F9108950E94531390E0089588
:1026D000CF93DF938F5F0E948814CEEDD4E00E94E9
:1026E000D014899384E0C13ED807C9F70E94DB1457
:1026F0008093E1040E94B414DF91CF910895CF93A9
:10270000DF930E948814C2EED4E089910E94BC1429
:1027100084E0C63ED807C9F70E94B414DF91CF9178
:1027200008951F93182F84EB8093E2046093E304D1
:102730001092E4041092E504812F0E947F13812FF0
:102740000E9468138091DF0490E01F91089595EB3B
:102750009093E2046093E3044093E4041092E50450
:102760000E947F1308951F93182F84E68093E2043C
:102770006093E3041092E4041092E504812F0E9418
:102780007F13812F0E9468138091DF0490E0982FBF
:1027900088272091E004820F911D1F9108959EE6E5
:1027A0009093E2046093E3044093E4041092E50400
:1027B0000E947F1308951F93182F6093E2044093A3
:1027C000E3041092E4041092E5040E947F13812F29
:1027D0000E9468138091DF0490E01F910895462FB6
:1027E0006FE80E94DB1390E00895462F65E80E9491
:1027F000DB1390E00895462F6BE70E94DB1390E017
:1028000008956093E2044093E3042093E40410925B
:10281000E5040E947F130895242F462F6EE80E943E
:1028200001140895242F462F64E80E94011408958E
:10283000242F462F6AE70E94011408956093E20452
:102840004093E3042093E4041092E5040E947F1374
:102850000895242F462F6DE80E941E140895242FFA
:10286000462F63E80E941E140895242F462F69E71F
:102870000E941E1408956093E2044093E3042093A1
:10288000E4041092E5040E947F130895242F462F3C
:102890006CE80E943B140895242F462F62E80E94A2
:1028A0003B140895242F462F68E70E943B14089597
:1028B0001092710081E4809370000895982F84EA4B
:1028C000809374008091740087FFFCCF8091710029
:1028D000887F883029F0803119F081E090E00895F8
:1028E0009093730084E8809374008091740087FF54
:1028F000FCCF20917100287F283119F480E090E00E
:10290000089580E090E0203411F081E090E0089597
:10291000982F84EA809374008091740087FFFCCF25
:1029200080917100887F883011F0803191F7909309
:10293000730084E8809374008091740087FFFCCF5B
:1029400080917100887F803211F0883541F484E9EC
:10295000809374008091740084FFDBCFFBCF0895D7
:102960000E945E1490E0089584E980937400809141
:10297000740084FDFCCF08958093730084E88093F5
:1029800074008091740087FFFCCF8091710020E07B
:1029900030E0887F883211F021E030E0C9010895ED
:1029A00084EC809374008091740087FFFCCF809149
:1029B000730090E0089584E880937400809174001F
:1029C00087FFFCCF8091730090E00895FC01882779
:1029D0009927E89421912032E9F3293010F02E3024
:1029E000C8F32B3241F02D3239F4689404C00E94B0
:1029F0003015820F911D219120532A30C0F31EF40F
:102A0000909581959F4F0895FB01DC010D9000206A
:102A1000E9F7119701900D920020E1F70895FB016D
:102A20009F01E8944230C4F04532B4F44A3029F4AE
:102A300097FB1EF4909581959F4F642F77270E94F6
:102A40008915805D8A330CF0895D8193CB010097F5
:102A5000A1F716F45DE251931082C9010C94381568
:102A60007AE0979F902D879F802D910D11240895D6
:102A7000DC01FC01672F71917723E1F7329704C0E5
:102A80007C916D9370836291AE17BF07C8F3089570
:102A9000991B79E004C0991F961708F0961B881FB0
:102AA0007A95C9F78095089597FB092E07260AD0D5
:102AB00077FD04D02ED006D000201AF470956195D1
:102AC0007F4F0895F6F7909581959F4F0895A1E265
:102AD0001A2EAA1BBB1BFD010DC0AA1FBB1FEE1F98
:102AE000FF1FA217B307E407F50720F0A21BB30BE3
:102AF000E40BF50B661F771F881F991F1A9469F75F
:102B000060957095809590959B01AC01BD01CF01BA
:102B10000895AA1BBB1B51E107C0AA1FBB1FA61724
:102B2000B70710F0A61BB70B881F991F5A95A9F776
:102B300080959095BC01CD010895E199FECFBFBB72
:102B4000AEBBE09A11960DB20895F7DFE02DF5DFE8
:102B5000F02D0895E199FECFBFBBAEBB0DBA119623
:102B60000FB6F894E29AE19A0FBE0895F3DF012CB4
:082B7000F1DF11240895FFCFED
:102B78002441435357313B0030302E30313B0078ED
:102B8800783B78783B78783B002A45410D00244112
:102B9800434857313B0041544D4547413132383B5A
:102BA8000031343734353630303B00485730322E18
:102BB80030303B00535730322E31633B00323030D7
:102BC8003831313137323230303B002441434D53B4
:102BD800470041432000454550524F4D20494E493A
:102BE8005400416C61726D20436F6E74726F6C207B
:102BF800566572733A204143303231630D00457295
:102C0800723A2052656D6F7465626574722E004168
:102C18006C61726D4374726C2041433032316300D1
:102C2800535541524B2E434F4D2C323030380024EF
:102C38004143434E5400244143524F54002B00302B
:102C480000244B4C53544100244143535441004DFC
:102C58004F44453A200053434841524600534348A5
:102C680041455246454E00554E5343484152460051
:102C7800564F52414C41524D202000415553474533
:102C88004C4F4553540042656469656E756E673AEA
:102C9800204645524E0042656469656E756E673A16
:102CA8002048414E4400434F554E54444F574E3AE6
:102CB80020002073656300434D44204552524F5213
:102CC8000D0A004E4F20434D440D0A00FFFF4D6F83
:102CD800004469004D6900446F004672005361006A
:102CE800536F005E026102640267026A026D02703D
:102CF800024155530045494E008102850240414238
:102D08004300000000554E42454B414E4E5445523B
:102D1800204645484C455200534348415246534388
:102D280048414C54554E47204552464F4C47540055
:102D3800564F52414C41524D2041555347454C4FF7
:102D480045535400414C41524D494552554E472038
:102D580041555347454C4F45535400414B544956F0
:102D6800494552554E47204142474542524F4348F4
:102D7800454E00414B544956494552554E47204708
:102D88004553544152544554004445414B544956C7
:102D9800494552554E470053595354454D204745D0
:102DA8005354415254455400454550524F4D2049C3
:102DB8004E495449414C4953494552540052454D96
:102DC8004F5445424554524945422045494E0052C8
:102DD800454D4F544542455452494542204155536B
:102DE800009502A802C002D402EB020303190327CC
:0A2DF8000338034D035F033EFF01A3
:00000001FF
