:100000000C9496000C94B5000C94B5000C94B500BB
:100010000C94B5000C94B5000C94B5000C94B5008C
:100020000C94B5000C94C1020C94B5000C94B5006E
:100030000C94B5000C94B5000C94C3000C94B5005E
:100040000C94B5000C94B5000C94910E0C94BB0E5E
:100050000C94B5000C94B5000C94B5000C94B5004C
:100060000C94B5000C94B5000C94B5000C94B5003C
:100070000C94B5000C94B5000C94430F0C946F0FC6
:100080000C94B5000C94B5000C94B500330D420DE2
:10009000250D420D420D420D420D420D420D420D05
:1000A000420D420D420D420D420D420D420D420DD8
:1000B000420D420D420D420D420D420D420D420DC8
:1000C000EB0CFB0C050D420D420D150D1D0D420DE7
:1000D000420D420DF70C420DDF0CEF0C420DE70C08
:1000E000F30C0D0DDB0C420D420DE30C420D420DE5
:1000F000420D420D420D420DCE0C420D420DD10C6F
:10010000ED0CFF0C090DD50CCB0C190D210D420D7A
:10011000420D420DF90C420DE10CF10CC80CE90C3A
:10012000F50C110DDD0C420D420DE50C11241FBE26
:10013000CFEFD0E1DEBFCDBF13E0A0E0B1E0E6E855
:10014000FBE200E00BBF02C007900D92AA38B10796
:10015000D9F714E0AAE8B3E001C01D92A63EB107AA
:10016000E1F70E94480D0C94C2150C94000083B76F
:10017000896683BF08958CE085BD80E383BD87B722
:10018000806887BF08951F920F920FB60F921124B7
:100190002F933F934F935F936F937F938F939F938F
:1001A000AF93BF93EF93FF93209176043091770440
:1001B00040E050E060E074E883E090E00E946E155B
:1001C000209530953DBD2CBD8091A4038F5F809319
:1001D000A4038091A40381BF9091A40380916A0439
:1001E000891720F480917A048093A403FF91EF9102
:1001F000BF91AF919F918F917F916F915F914F913F
:100200003F912F910F900FBE0F901F901895E4E62D
:10021000F0E080818E7F8083E5E6F0E080818E7F54
:100220008083D198D998D298DA98D498DC98D398CA
:10023000DB98D59ADD9AD69ADE9AD79ADF9A8B9A6E
:10024000939A159A1D98BB9AC398179A1F98169A55
:100250001E98BE9AC698BD9AC598BF9AC798149A18
:100260001C980895CF92DF92EF92FF920F931F9305
:10027000CF93DF9380E090E0FC01ED56FC4F1082BD
:10028000019688309105C1F700E010E0EE24FF24CC
:10029000C0E0D0E083E9C82E83E0D82EC00ED11E86
:1002A0009E012E0D3F1D22563B4FD9018C918C9102
:1002B00090E0807F907060E170E00E945B15FB0130
:1002C000D9012C91F0E0E557FC4F808190E02F7030
:1002D00002C0959587952A95E2F780FF0CC0F6013C
:1002E000208181E090E00C2E02C0880F991F0A94B3
:1002F000E2F7282B20832196C830D10589F60F5FBD
:100300001F4F88E090E0E80EF91E0830110509F053
:10031000BFCFDF91CF911F910F91FF90EF90DF90B2
:10032000CF900895A5E0B0E00E94A415802D8093A1
:1003300078041D9A1E9A08951D9A1E9A0895AAE09F
:10034000B0E00E94A415802D809378041092A5033C
:100350001D9880916D0481FF03C01E981F9A03C0F1
:100360001D9A83FD1E9A82FF03C0C59AC79A0895FD
:1003700084FDC59A08951E981F98C798C698C59879
:100380001C981D98C398089587B9379A369A36995C
:10039000FECF369A3699FECF379824B135B189E130
:1003A00090E0AC01249FC001259F900D349F900DDB
:1003B000112496958795969587958A5C984008951F
:1003C00080916B04CC9B05C0826080936B04DE9AA5
:1003D00004C08D7F80936B04DE9880916B04CB9B6F
:1003E00005C0816080936B04DD9A08958E7F8093B1
:1003F0006B04DD98089510928A038091630080FF5A
:1004000011C08091B2038F5F8093B203813011F0ED
:10041000873051F493E090938A03873029F49093C6
:10042000B20302C01092B203C99B12C09091B103F3
:100430009F5F9093B103913011F0973059F484E0AD
:1004400080938A03973031F483E08093B10302C034
:100450001092B103CA9B12C09091B0039F5F90931A
:10046000B003913011F0973059F485E080938A03FE
:10047000973031F483E08093B00302C01092B00350
:1004800080916B04CB9B02C0816001C08E7F809302
:100490006B0480916B04CC9B02C0826001C08D7F95
:1004A00080936B04089520E030E0D901AD56BC4F35
:1004B0008C91F901E556FC4F80838C91D901A65EA1
:1004C000BF4F082E0E94B1152F5F3F4F28303105D6
:1004D00061F7089520E030E0D901A65EBF4F0E9489
:1004E000A415802DF901ED56FC4F8083D901AE5E35
:1004F000BF4F0E94A415802DF901E357FD4F808363
:100500002F5F3F4F2830310539F720E030E0D90127
:10051000AE5DBF4F0E94A415802DF901E256FB4F3E
:1005200080832F5F3F4F2034310589F720E030E092
:10053000D901AE59BF4F0E94AC15CF01F901E25964
:10054000FB4F918380832E5F3F4F2830310581F729
:10055000AFE0B0E00E94A415802D80938903A0E154
:10056000B0E00E94A415802D80937D04A1E1B0E04D
:100570000E94A415802D80938703089583E08EBD8B
:1005800008951F920F920FB60F9211242F938F93FD
:100590009F938091AE039091AF0301969093AF0328
:1005A0008093AE038436910549F480917904886084
:1005B000809379041092AF031092AE038091AC0344
:1005C0009091AD0301969093AD038093AC038E554B
:1005D000914049F480918604826080938604109251
:1005E000AD031092AC038091AA039091AB030196E6
:1005F0009093AB038093AA03845F914049F4809168
:1006000079048460809379041092AB031092AA035A
:100610008091A8039091A90301969093A9038093D8
:10062000A803885E934049F48091790481608093A7
:1006300079041092A9031092A8038091A6039091C7
:10064000A70301969093A7038093A603885893412C
:1006500049F4809179048260809379041092A70311
:100660001092A6039F918F912F910F900FBE0F9024
:100670001F901895EF92FF920F931F9333E6E32E8E
:1006800034E0F32E83E080936304A7014F5F5F4F54
:1006900086E08093640497012E5F3F4F82E0809351
:1006A000650487010D5F1F4F88E080936604B701E2
:1006B00080EA0E9427138CE08093670486E280938F
:1006C000680486E090E0E80EF91E10926904970134
:1006D0000894E108F108A7010894E108F108B701BE
:1006E00080EA0E948A121F910F91FF90EF90089567
:1006F0000F931F9380E091E00E94280F08E011E023
:10070000C8010E94280FC8010E94280F8FE091E0C5
:100710000E94280F89E191E00E94280F1F910F91FC
:1007200008958EE191E00E94280F86E291E00E94F8
:10073000280F81E391E00E94280F8BE391E00E9453
:10074000280F84E491E00E94280F8DE491E00E943C
:10075000280F89E191E00E94280F08950F931F93BD
:100760008C018BE591E00E94280F8CE20E94160F0D
:1007700082E691E00E94280F000F111F0F581C4FB6
:10078000F801808191810E94280F8CE20E94160F4F
:1007900089E191E00E94280F1F910F91089588230D
:1007A00041F4A2E0B0E00E94A415802D8A3A09F439
:1007B0003BC20E94911086E691E00E94B9108AEA3D
:1007C000A2E0B0E0082E0E94B1153AE0A3E0B0E04C
:1007D000032E0E94B11588E0A4E0B0E0082E0E942C
:1007E000B11580E442E150E0DA01082E0E94B11513
:1007F00082E44F5F5F4FDA01082E0E94B11584E456
:100800004F5F5F4FDA01082E0E94B11586E44F5FFB
:100810005F4FDA01082E0E94B11588E44F5F5F4FE9
:10082000DA01082E0E94B1158AE44F5F5F4FDA01AA
:10083000082E0E94B1158CE44F5F5F4FDA01082E3D
:100840000E94B1158EE44F5F5F4FDA01082E0E94BF
:10085000B11582E0A5E0B0E0082E0E94B11524E6B3
:10086000A6E0B0E0022E0E94B1159FEFA7E0B0E035
:10087000092E0E94B115A8E0B0E0092E0E94B11522
:10088000A9E0B0E0022E0E94B11585E0AAE0B0E038
:10089000082E0E94B115ABE0B0E0032E0E94B11506
:1008A00086EEACE0B0E0082E0E94B115ADE0B0E0FD
:1008B000092E0E94B115AEE0B0E0022E0E94B115E3
:1008C00022E630E08EEC9FEFD9010C010E94BD15AD
:1008D0002E5F3F4FB0E02A363B07A1F722E0AFE0A2
:1008E000B0E0022E0E94B11584EBA0E1B0E0082E2A
:1008F0000E94B1158EE3A1E1B0E0082E0E94B1156F
:1009000083E062E270E0DB01082E0E94B11585E110
:100910006F5F7F4FDB01082E0E94B1158FEF6F5F75
:100920007F4FDB01082E0E94B1156F5F7F4FDB0107
:10093000082E0E94B1156F5F7F4FDB01082E0E94C9
:10094000B1156F5F7F4FDB01082E0E94B1156F5FFD
:100950007F4FDB01082E0E94B1156F5F7F4FDB01D7
:10096000082E0E94B1156F5F7F4FDB01022E0E949F
:10097000B11594E16F5F7F4FDB01092E0E94B11525
:100980006F5F7F4FDB01082E0E94B1156F5F7F4FB5
:10099000DB01082E0E94B1156F5F7F4FDB01082E2F
:1009A0000E94B1156F5F7F4FDB01082E0E94B115C9
:1009B0006F5F7F4FDB01082E0E94B1156F5F7F4F85
:1009C000DB01082E0E94B11591E06F5F7F4FDB01C4
:1009D000092E0E94B11590E06F5F7F4FDB01092E59
:1009E0000E94B11597E06F5F7F4FDB01092E0E94D7
:1009F000B11595E06F5F7F4FDB01092E0E94B115A5
:100A000093E16F5F7F4FDB01092E0E94B11591E1E9
:100A10006F5F7F4FDB01092E0E94B11597E16F5F79
:100A20007F4FDB01092E0E94B1156F5F7F4FDB0105
:100A3000082E0E94B1156F5F7F4FDB01022E0E94CE
:100A4000B1156F5F7F4FDB01022E0E94B11596E05A
:100A50006F5F7F4FDB01092E0E94B11594E06F5F3D
:100A60007F4FDB01092E0E94B11592E16F5F7F4F2E
:100A7000DB01092E0E94B11590E16F5F7F4FDB0112
:100A8000092E0E94B11596E16F5F7F4FDB01092EA1
:100A90000E94B1156F5F7F4FDB01082E0E94B115D8
:100AA0006F5F7F4FDB01082E0E94B1156F5F7F4F94
:100AB000DB01082E0E94B1156F5F7F4FDB01082E0E
:100AC0000E94B1156F5F7F4FDB01082E0E94B115A8
:100AD0006F5F7F4FDB01082E0E94B1156F5F7F4F64
:100AE000DB01082E0E94B1156F5F7F4FDB01082EDE
:100AF0000E94B1156F5F7F4FDB01082E0E94B11578
:100B00006F5F7F4FDB01082E0E94B1156F5F7F4F33
:100B1000DB01082E0E94B1156F5F7F4FDB01082EAD
:100B20000E94B1156F5F7F4FDB01082E0E94B11547
:100B30006F5F7F4FDB01082E0E94B1156F5F7F4F03
:100B4000DB01082E0E94B1156F5F7F4FDB01082E7D
:100B50000E94B1156F5F7F4FDB01082E0E94B11517
:100B60006F5F7F4FDB01082E0E94B1156F5F7F4FD3
:100B7000DB01082E0E94B1156F5F7F4FDB01082E4D
:100B80000E94B1156F5F7F4FDB01082E0E94B115E7
:100B90006F5F7F4FDB01082E0E94B1156F5F7F4FA3
:100BA000DB01082E0E94B1156F5F7F4FDB01082E1D
:100BB0000E94B1156F5F7F4FDB01082E0E94B115B7
:100BC0006F5F7F4FDB01082E0E94B1156F5F7F4F73
:100BD000DB01082E0E94B1156F5F7F4FDB01082EED
:100BE0000E94B1156F5F7F4FDB01082E0E94B11587
:100BF0006F5F7F4FDB01082E0E94B1156F5F7F4F43
:100C0000DB01082E0E94B1156F5F7F4FDB01082EBC
:100C10000E94B1156F5F7F4FDB01082E0E94B11556
:100C200088E090E00E94AE03089582E791E00E9480
:100C3000280F87E090E00E94AE030895CF93DF93E2
:100C40008091620480FF34C0867009F04EC0C1E01C
:100C5000D0E0FE01ED56FC4F9081FE01E556FC4FC1
:100C60008081981779F0809162049FEF90935D02E4
:100C7000857F8460809362040E949F0183E090E0FE
:100C80000E94AE032196C830D10519F790919303C5
:100C900080919B03981749F1809162048A60809348
:100CA00062040E94920182E090E00E94AE031DC0A7
:100CB00040E050E020E030E0F901ED56FC4F80814B
:100CC000480F511D2F5F3F4F28303105A9F7809104
:100CD000B3039091B4034817590719F01D9A109265
:100CE00088035093B4034093B303DF91CF910895E9
:100CF00080916204807F809362048FEF80935D0215
:100D00000E94BB0186E090E00E94AE0308958091AE
:100D1000620488608093620485E090E00E94AE03E4
:100D200008958091620480FD0AC0877F80936204E9
:100D30008FEF80935D0284E090E00E94AE030895FF
:100D4000DF92EF92FF920F931F93CF93DF93D82EF2
:100D50005EE6E52E54E0F52ECEE7D4E000E010E0AC
:100D6000602F809187030E94BA13D701ED91FC9107
:100D7000EA5CF84029E130E0AC01429FC001439FAA
:100D8000900D529F900D112464E070E00E945B155D
:100D9000E60FF71F88819981E817F90714F4019786
:100DA00004C08E179F071CF4019699838883DD2069
:100DB00011F0F983E8830F5F1F4F82E090E0E80EA7
:100DC000F91E22960430110559F6DF91CF911F913B
:100DD0000F91FF90EF90DF90089590916B0490FF3A
:100DE0001CC080916D0491FF0BC080FD22C081600A
:100DF00080936D041D9889E090E00E94AE030895F1
:100E00008E7F80936D041D9A63E080E00E947D10C8
:100E10008EE891E00E94B910089580916D0480FFE2
:100E200008C08E7F80936D048AE090E00E94AE033C
:100E30001D9808950E9491108FE991E00E94B910C9
:100E400061E081E00E947D1080EB91E00E94B9108A
:100E5000089580918D020E946B1380938B03809183
:100E60008E020E946B1380938C0380918F020E94EC
:100E70006B1380938D03809190020E946B1380937B
:100E80008E0310928F031092900310929103109290
:100E900092030895EF92FF920F931F9366E6E62E5A
:100EA00064E0F62E970121503040A7014250504097
:100EB000B70163507040870180EA0E94E111A701E9
:100EC0004E5F5F4FB7016F5F7F4F83E090E0E80EAA
:100ED000F91E970180EA0E9477111F910F91FF90F0
:100EE000EF9008950F931F93CF93DF93CDB7DEB7A5
:100EF00026970FB6F894DEBF0FBECDBF4AE050E094
:100F00008E010F5F1F4FB8010E941615C8010E9485
:100F1000B91026960FB6F894DEBF0FBECDBFDF9195
:100F2000CF911F910F9108950F931F93CF93DF934C
:100F3000CDB7DEB726970FB6F894DEBF0FBECDBF94
:100F40004AE050E08E010F5F1F4FB8010E94161556
:100F5000C8010E94280F26960FB6F894DEBF0FBE78
:100F6000CDBFDF91CF911F910F9108958FEB91E04D
:100F70000E94280F8CE20E94160F809162048170FB
:100F800090E00E9494078CE20E94160F8091620408
:100F90008695817090E00E9494078CE20E94160F63
:100FA0008091620486958695817090E00E949407F6
:100FB0008CE20E94160F80915D0290E00E949407DF
:100FC0008CE20E94160F89E191E00E94280F08959B
:100FD00080915D028F3F39F4A3E0B0E00E94A41538
:100FE000802D80935D020E94B60780915D02815042
:100FF00080935D028F3F01F580916204982F977F67
:101000009093620480FD0CC09160997F909362047C
:101010000E945302C69A81E090E00E94AE030895B8
:1010200081FF0AC0857F8460809362040E949F01D3
:1010300083E090E00E94AE0308954F925F926F921A
:101040007F928F929F92AF92BF92CF92DF92FF9248
:101050000F931F93CF93DF93AA24BB248824992452
:10106000E6EC4E2EE1E05E2E79E1672E71E0772E00
:10107000CC24DD248601080D191DE801C256DB4F82
:1010800088818881F880C2010E94280F8CE20E942A
:10109000160FC8010E9494078CE20E94160FC5012A
:1010A0000E9494078CE20E94160FC6010E949407CA
:1010B0008CE20E94160F80E090E00E9494078CE280
:1010C0000E94160F80E090E0FF2011F081E090E098
:1010D0000E9494078CE20E94160F888190E00E9483
:1010E00094078CE20E94160FC3010E94280F0894F7
:1010F000C11CD11C88E0C816D10409F0BBCF0894EC
:10110000A11CB11C88E090E0880E991E98E0A916F9
:10111000B10409F0ADCFDF91CF911F910F91FF90F6
:10112000DF90CF90BF90AF909F908F907F906F9007
:101130005F904F900895AF92BF92CF92DF92FF924F
:101140000F931F93CF93DF93CDB7DEB726970FB6DC
:10115000F894DEBF0FBECDBF8C01D62EF42E1092B8
:1011600088044AE050E0BE016F5F7F4F0E94161571
:101170001016110644F4FF2031F06DEC71E088E8A0
:1011800094E00E940B15DD2001F1DE011196FD01B6
:1011900001900020E9F73197FE2EFA1A0D2D10E08C
:1011A00001501040AFECAA2EA1E0BA2EF8E8CF2EE5
:1011B000F4E0DF2E05C0B501C6010E940B15F394C3
:1011C0008F2D90E008171907B4F7BE016F5F7F4FAE
:1011D00088E894E00E940B1526960FB6F894DEBFBF
:1011E0000FBECDBFDF91CF911F910F91FF90DF9088
:1011F000CF90BF90AF9008950F931F938091640498
:1012000040E062E090E00E949B0808E814E0C8011A
:101210000E94280F8EE20E94160F8091650440E024
:1012200062E090E00E949B08C8010E94280F8EE2B5
:101230000E94160F8091660440E062E090E00E94F8
:101240009B08C8010E94280F80E20E94160F80911F
:10125000670440E062E090E00E949B08C8010E94A1
:10126000280F8AE30E94160F8091680440E062E034
:1012700090E00E949B08C8010E94280F8AE30E9408
:10128000160F8091690440E062E090E00E949B08A4
:10129000C8010E94280F8CE20E94160F80E890E09F
:1012A0001F910F9108950F931F9381ED91E00E947C
:1012B000280F8CE20E94160F0E94FC0860E08091CB
:1012C00087030E94BA1309E110E09C01209FC0012E
:1012D000219F900D309F900D112464E070E00E94DA
:1012E0005B15CB018A5C98400E9494078CE20E94B7
:1012F000160F61E0809187030E94BA139C01209F22
:10130000C001219F900D309F900D112464E070E08A
:101310000E945B15CB018A5C98400E9494078CE286
:101320000E94160F62E0809187030E94BA139C010D
:10133000209FC001219F900D309F900D112464E0EB
:1013400070E00E945B15CB018A5C98400E94940774
:101350008CE20E94160F63E0809187030E94BA130B
:101360009C01209FC001219F900D309F900D112462
:1013700064E070E00E945B15CB018A5C98400E949B
:1013800094078CE20E94160F89E191E00E94280FD9
:101390001F910F910895CF93DF9381ED91E00E940B
:1013A000280F8CE20E94160F0E94FC08CEE7D4E0C2
:1013B000899199910E9494078CE20E94160F84E013
:1013C000C638D807A9F789E191E00E94280FDF917C
:1013D000CF910895CF93DF9388ED91E00E94280F7D
:1013E0008CE20E94160F0E94FC08809162048170BA
:1013F00090E00E9494078CE20E94160F8091620494
:101400008695817090E00E9494078CE20E94160FEE
:101410008091620486958695817090E00E94940781
:101420008CE20E94160F80916D04817090E00E9402
:1014300094078CE20E94160F80916D04869581704E
:1014400090E00E9494078CE20E94160F80916D0438
:1014500086958695817090E00E9494078CE20E94A8
:10146000160F80916D04869586958695817090E023
:101470000E9494078CE20E94160F80916D04829561
:10148000817090E00E9494078CE20E94160F809178
:101490006D0482958695817090E00E9494078CE29D
:1014A0000E94160F80E30E94160F8CE20E94160F16
:1014B000C0E0D0E0FE01ED56FC4F808190E00E943C
:1014C00094078CE20E94160F2196C830D10591F73F
:1014D00089E191E00E94280FDF91CF9108958091DA
:1014E000860481FFD5C0DD98DE98DF980E949110B8
:1014F00060E080E00E947D10E0916304F0E0EE0F78
:10150000FF1FED58FD4F808191810E94B91080E24C
:101510000E9499108091640440E062E090E00E9493
:101520009B0888E894E00E94B9108EE20E9499100E
:101530008091650440E062E090E00E949B0888E8AA
:1015400094E00E94B91080E20E94991080E20E940B
:10155000991080E20E9499108091670440E062E057
:1015600090E00E949B0888E894E00E94B9108AE30A
:101570000E9499108091680440E062E090E00E942F
:101580009B0888E894E00E94B91061E080E00E9426
:101590007D108FED91E00E94B9108091620480FF70
:1015A00006C086EE91E00E94B910DE9A09C083FF62
:1015B00003C08DEE91E002C087EF91E00E94B91068
:1015C00061E086E00E947D108091620481FF04C08A
:1015D00080E092E00E94B9108091620482FF0BC00B
:1015E0008BE092E00E94B9108091B503882311F03E
:1015F000DE9A01C0DE9880916D0480FF0AC062E02F
:1016000080E00E947D1086E192E00E94B910DD9A90
:1016100009C062E080E00E947D1086E292E00E94B4
:10162000B910DD988091620483FF1BC063E080E005
:101630000E947D1086E392E00E94B91080915D02C5
:1016400040E063E090E00E949B0888E894E00E94FC
:10165000B91082E492E00E94B9108091B503811123
:10166000DE9A60E08DE00E947D108091B5038823B2
:1016700021F01092B5038AE304C081E08093B503A2
:1016800080E20E949910809186048D7F8093860469
:1016900080918A038350823040F48FEF80935C0204
:1016A0008091860488608093860408950E946F0A62
:1016B00008950F931F93CF93DF93CDB7DEB7259790
:1016C0000FB6F894DEBF0FBECDBF8091C903833241
:1016D00009F007C120E030E0AE014F5F5F4FF90134
:1016E000E653FC4F8081FA01E20FF31F80832F5FE6
:1016F0003F4F2530310599F7CA010E94ED148C0146
:1017000020E030E0AE014F5F5F4FF901E153FC4F45
:101710008081FA01E20FF31F80832F5F3F4F253056
:10172000310599F7CA010E94ED14BC0181E0083F20
:10173000180709F470C081E0093F180760F5023D01
:10174000110509F47CC0033D110568F40636110546
:1017500009F48DC00736110509F48CC00536110552
:1017600009F08EC069C081E0053F180709F447C041
:1017700081E0063F180728F40C3D110509F080C0F0
:101780007CC081E0063F1807F1F181E0073F1807B0
:1017900009F076C03CC082E00436180709F458C04E
:1017A00082E00536180790F481E00A3F1807E1F15E
:1017B00081E00A3F1807A0F181E00B3F1807C1F153
:1017C00082E00336180709F05BC03FC082E00D36A7
:1017D000180709F443C082E00E36180730F482E09F
:1017E0000536180709F04CC036C082E00E361807DF
:1017F000C1F182E00F36180709F042C035C080EA17
:101800000E940A1372C080EA0E94ED126EC080EA44
:101810000E94D0126AC0605D80EA0E94A61265C074
:1018200080EA0E94761261C080EA0E9462125DC066
:1018300080EA0E944E1259C0A3E0B0E002C0A4E0CA
:10184000B0E0062E0E94B11550C0A7E0B0E0F9CF7D
:10185000A8E0B0E0F6CFA9E0B0E0F3CFACE0B0E0B4
:10186000F0CFADE0B0E0EDCFAEE0B0E0EACFAFE07A
:10187000B0E0E7CFA0E1B0E0E4CFA1E1B0E0E1CF9C
:10188000C801885C9040089720F4D801A65BB0405E
:10189000D8CFF801EC52F140E034F10550F4D80112
:1018A000AA50B140062E0E94B115E256FB4F60834C
:1018B0001CC0F801E655F440E430F10578F4D80195
:1018C000AA0FBB1FAA54B8400B010E94BD15EE0F12
:1018D000FF1FE259FB4F7183608307C087E492E0EA
:1018E00002C083E592E00E94280F25960FB6F89477
:1018F000DEBF0FBECDBFDF91CF911F910F91089535
:10190000982F863211F41092B603E091B603F0E0FE
:10191000E854FC4F90838091B6038F5F8093B603A9
:101920008091B603803111F41092B6039A30D1F44D
:1019300020E030E008C0F0E0DF01A854BC4F8C91FB
:10194000E853FC4F8083E22F8091B6032F5F3F4F17
:10195000E81788F38091B6038093B7031092B6031B
:101960000E94590B0895CF93DF930E94FB0EEC0168
:1019700090FD8BC0FC01BB97E035F10508F082C0FB
:10198000EA5BFF4FEE0FFF1F0590F491E02D0994E5
:101990000E94870677C00E94780674C00E94910654
:1019A00071C080916C04826003C080916C0481607E
:1019B00080936C0467C01E9A65C01E9863C01F9A0E
:1019C00061C01F985FC0C79A5DC0C7985BC0C69AC8
:1019D00059C0C69857C0C59A55C0C59853C01C9ADF
:1019E00051C01C984FC01D9A4DC01D984BC0C39A42
:1019F00049C0C39847C080916D04826003C0809144
:101A00006D048D7F80936D043DC080916D04846072
:101A1000F9CF80916D048B7FF5CF80916D04886044
:101A2000F1CF80916D04877FEDCF80916D0480614F
:101A3000E9CF80916D048F7EE5CF80916D04806247
:101A4000E1CF80916D048F7DDDCF809187048F5F22
:101A50008093870480917A04815080937A048091E6
:101A60006A0481500DC0809187048150809387045F
:101A700080917A048F5F80937A0480916A048F5FEB
:101A800080936A048C2F0E94800CDF91CF9108957F
:101A900081E0809363048FE1809364048CE0809301
:101AA000650487E08093660487E1809367048BE395
:101AB000809368048FE2809369040E9407018CE0A0
:101AC0000E94D3108FE290E00E94E00E789480E0B4
:101AD0000E94CF03CA9B03C081E00E94CF030E94F3
:101AE0005F1484E886B983B7896683BF8CE085BDBF
:101AF00080E383BD87B7806887BF83E08EBD0E9487
:101B000015060E941A07809162048E7F80936204FA
:101B100080916D048F618F7D80936D040E946A02B5
:101B200041E060E0809187030E94D61341E061E0CC
:101B3000809187030E94D61341E062E08091870381
:101B40000E94D61341E063E0809187030E94D61380
:101B500041E062E0809187030E94591441E062E015
:101B6000809187030E941F1441E063E08091870306
:101B70000E94591440E063E0809187030E941F1483
:101B800081E00E94A0060E94560B0E94FB010E9469
:101B9000ED060E9429070E9432010E941E06209134
:101BA000620422FF10C080916D0481FF02C01F9A61
:101BB00003C01D9A83FD1E9A82FF03C0C59AC79A6F
:101BC00002C084FDC59A80916D0480FF03C00E940D
:101BD000B30C17C080916B04922F917081FF07C0E6
:101BE000992379F423FD0DC00E9487060AC099232A
:101BF00011F00E9478068091620483FF02C00E9467
:101C000091069091620490FF02C0939801C0939A4C
:101C10008091790483FF20C091FF19C08091A303B4
:101C2000882311F41D9A1E9A9091A3038091780441
:101C3000981711F40E94BB018091A3038F5F8093DA
:101C4000A3038091A3038A3011F41092A30380911F
:101C50007904877F809379048091790480FF2EC076
:101C600080916C04816080936C048091620483FF96
:101C700002C00E94E8070E944A0780918803909161
:101C80008903981730F08F5F80938803891708F0D5
:101C90001D988091620482FF0CC08091A5038F5F24
:101CA0008093A50390917D04891719F41F981092D1
:101CB000A503809179048E7F8093790480917904C3
:101CC00081FF0DC080E00E94A00680916C048460BA
:101CD00080936C04809179048D7F80937904809146
:101CE0006C0480FF07C00E94EA0980916C048E7F1B
:101CF00080936C0480916C0482FF07C00E94CB0922
:101D000080916C048B7F80936C0480916C0481FFC4
:101D10003ACF0E941D0880916C048D7F80936C04E3
:101D200032CF1F920F920FB60F9211242F938F93E1
:101D30009F93EF93FF939BB12CB1E0911A04EF5F57
:101D4000EF7180911B04E81711F482E008C0892F1D
:101D50008871E0931A04F0E0E850FC4F20838093F0
:101D60001C04FF91EF919F918F912F910F900FBEC7
:101D70000F901F9018951F920F920FB60F9211247B
:101D80008F939F93EF93FF93909118048091190480
:101D9000981761F0E0911904EF5FEF71E093190477
:101DA000F0E0E852FC4F80818CB901C05598FF915A
:101DB000EF919F918F910F900FBE0F901F901895EC
:101DC0009C01109218041092190410921A04109297
:101DD0001B04129A1A9A97FF03C082E08BB93F77CF
:101DE000832F99278093900029B988E98AB986E0E2
:101DF00080939500089590911A0480911B04981780
:101E000019F480E091E00895E0911B04EF5FEF7119
:101E1000E0931B04F0E0E850FC4F208180911C040B
:101E200090E0982F8827820F911D0895282F909178
:101E300018049F5F9F71809119049817E1F3E92FAF
:101E4000F0E0E852FC4F208390931804559A0895CF
:101E5000CF93DF93EC0103C021960E94160F888177
:101E60008823D1F7DF91CF910895CF93DF93EC01D1
:101E700002C00E94160FFE01219684918823C9F7A3
:101E8000DF91CF9108951F920F920FB60F921124F8
:101E90002F938F939F93EF93FF9390919B002091AB
:101EA0009C00E0915F04EF5FEF7180916004E817A0
:101EB00011F482E008C0892F8871E0935F04F0E09C
:101EC000E35CFB4F208380936104FF91EF919F912E
:101ED0008F912F910F900FBE0F901F9018951F920A
:101EE0000F920FB60F9211248F939F93EF93FF934E
:101EF00090915D0480915E04981769F0E0915E0412
:101F0000EF5FEF71E0935E04F0E0E35EFB4F8081F2
:101F100080939C0005C080919A008F7D80939A00E9
:101F2000FF91EF919F918F910F900FBE0F901F9097
:101F300018959C0110925D0410925E0410925F044B
:101F40001092600497FF04C082E080939B003F776B
:101F5000832F9927809398002093990088E9809394
:101F60009A0086E080939D00089590915F0480918F
:101F70006004981719F480E091E00895E0916004FE
:101F8000EF5FEF71E0936004F0E0E35CFB4F2081D2
:101F90008091610490E0982F8827820F911D089509
:101FA000282F90915D049F5F9F7180915E04981728
:101FB000E1F3E92FF0E0E35EFB4F208390935D04B3
:101FC00080919A00806280939A000895CF93DF9366
:101FD000EC0103C021960E94D00F88818823D1F79D
:101FE000DF91CF910895CF93DF93EC0102C00E945F
:101FF000D00FFE01219684918823C9F7DF91CF91FC
:102000000895AC9A00C0AC980895CF93DF936623EF
:1020100011F0AE9A01C0AE98AD98A39AA29AA19A77
:10202000A09AA898A998AA98AB9887FDA89AC82FB3
:1020300086FDA99AC5FDAA9AC4FDAB9A0E9401101B
:10204000A898A998AA98AB98C3FDA89AC2FDA99A86
:10205000C1FDAA9AC0FDAB9A0E940110AB9AAA9A40
:10206000A99AA89ADF91CF910895882311F0AE9A8A
:1020700001C0AE98AD9AA398A298A198A098AC9AE6
:1020800000C09B9B02C080E101C080E09A99806201
:102090009999806498998068AC9800C0AC9A00C007
:1020A0009B9981609A9982609999846098998860D7
:1020B000AC9890E0089580E00E94351087FDFBCF3A
:1020C00087E090E00197F1F780E00E94351090E002
:1020D00008951F93182F0E945B1060E0812F0E94CB
:1020E00005101F9108951F93182F0E945B1061E047
:1020F000812F0E9405101F910895662311F48058C6
:1021000009C0613011F4805405C0623011F4805769
:1021100001C080530E94691008950E945B1090E0F6
:10212000089581E00E946910089582E00E9469107C
:1021300008951F93182F0E945B10982F1A3099F45E
:10214000803110F480E40BC08054803110F480E1C1
:1021500006C09051903310F480E501C080E08058B3
:102160000E94691004C061E0812F0E9405101F9138
:102170000895CF93DF93EC0102C00E9499108991DA
:102180008823D9F7DF91CF910895CF93DF93EC01A6
:1021900002C00E949910FE01219684918823C9F7FC
:1021A000DF91CF910895FF920F931F93F82EA69A77
:1021B000A59AA49AA39AA29AA19AA09A80E696EECA
:1021C0000197F1F7AA9AAB9A0E94011080EE97E46A
:1021D0000197F1F70E9401100BEE10E0C801019782
:1021E000F1F70E940110C8010197F1F7AB980E9426
:1021F0000110C8010197F1F788E20E94691088E098
:102200000E9469100E94911086E00E9469108F2D33
:102210000E9469101F910F91FF900895282F229519
:102220002F709AE0299F900111248F70820F90E007
:102230000895282F6AE00E944F15482F50E084E04F
:10224000440F551F8A95E1F7822F0E944F15940F76
:10225000892F90E008950F931F93162F042F0E944B
:102260008F14812F0E94C314802F0E94C3140E94D8
:10227000BB141F910F9108950E942B1108950F9385
:102280001F93082F162F0E948F14812F0E94C314B2
:10229000802F8F5F0E94B7140E94E214182F0E94B3
:1022A000BB14812F90E01F910F9108950E943F1160
:1022B00090E0089561E00E943F110E940E1190E0AD
:1022C000089562E00E943F110E940E1190E008956F
:1022D00063E00E943F110E940E1190E0089564E0B7
:1022E0000E943F118F730E940E1190E00895AF92EB
:1022F000BF92CF92DF92EF92FF921F93182F7B0134
:102300006A0159010E946F11F7018083812F0E9499
:102310006811F6018083812F0E946111F50180838D
:102320001F91FF90EF90DF90CF90BF90AF900895F6
:10233000FF920F931F93F82E65E00E943F11182F14
:10234000129516951695137065E08F2D0E943F111A
:10235000082F0295069506950370101779F0402F07
:1023600063E18F2D0E942B1161E18F2D0E943F119F
:102370008F5F482F61E18F2D0E942B1161E18F2D1E
:102380000E943F11080F802F90E01F910F91FF9046
:10239000089566E00E943F118F710E940E1190E037
:1023A000089565E00E943F118F730E940E1190E026
:1023B000089566E00E943F1182958695877090E0AF
:1023C00008958F929F92AF92BF92CF92DF92FF9229
:1023D0000F931F93F82E6B015A0149010E94D911E6
:1023E000F60180838F2D0E94D111F50180838F2DFE
:1023F0000E94C911F40180838F2D0E949811F80169
:1024000080831F910F91FF90DF90CF90BF90AF908E
:102410009F908F9008951F93182F40E060E00E94D6
:102420002B1165E0812F0E943F118295869586953C
:102430008370482F63E1812F0E942B111F91089513
:102440001F93182F60E00E943F118F77482F60E0A4
:10245000812F0E942B111F9108951F93182F60E068
:102460000E943F118068482F60E0812F0E942B114D
:102470001F9108950F931F93182F062F0E942D125E
:10248000802F0E941911482F61E0812F0E942B118B
:10249000812F0E9420121F910F9108950F931F9377
:1024A000182F062F0E942D12802F0E941911482FDD
:1024B00062E0812F0E942B11812F0E9420121F9118
:1024C0000F9108950F931F93182F062F0E942D121E
:1024D000802F0E941911482F63E0812F0E942B1139
:1024E000812F0E9420121F910F9108950F931F9327
:1024F000182F062F0E942D12802F0E941911482F8D
:1025000064E0812F0E942B11812F0E9420121F91C5
:102510000F910895CF92DF92FF920F931F93F82EA1
:10252000FB018A01690160810E947612F8016081D5
:102530008F2D0E946212F60160818F2D0E944E1233
:102540001F910F91FF90DF90CF900895FF920F930E
:102550001F93F82E462F062F0370401B61E10E9447
:102560002B110295000F000F007C402F63E18F2D8F
:102570000E942B1165E08F2D0E943F11182F1F73B1
:102580008F2D0E942D12102B412F65E08F2D0E9460
:102590002B118F2D0E9420121F910F91FF900895F3
:1025A000FF920F931F93182FF62E66E00E943F11A3
:1025B000082F007E812F0E942D128F2D0E9419114D
:1025C000082B402F66E0812F0E942B11812F0E9443
:1025D00020121F910F91FF900895FF920F931F9368
:1025E000182FF62E65E00E943F11082F007C812FE6
:1025F0000E942D128F2D0E941911082B402F65E08B
:10260000812F0E942B11812F0E9420121F910F9168
:10261000FF900895FF920F931F93F82E062F66E008
:102620000E943F11182F1F718F2D0E942D120295AD
:10263000000F007E102B412F66E08F2D0E942B1182
:102640008F2D0E9420121F910F91FF900895AF923D
:10265000BF92CF92DF92FF920F931F93F82EFB0150
:102660006A01590160810E940A13F60160818F2D71
:102670000E94ED12F50160818F2D0E94D012F801A9
:1026800060818F2D0E94A6121F910F91FF90DF9005
:10269000CF90BF90AF9008951F93162F0E948F1474
:1026A000812F0E94C3140E94BB141F9108950E94A1
:1026B0004C1308951F93182F0E948F14812F8F5F42
:1026C0000E94B7140E94E214182F0E94BB14812F9D
:1026D00090E01F9108950E945A1390E00895CF93BF
:1026E000DF938F5F0E948F14CEEDD4E00E94D71449
:1026F000899384E0C13ED807C9F70E94E214809311
:10270000E1040E94BB14DF91CF910895CF93DF9332
:102710000E948F14C2EED4E089910E94C31484E019
:10272000C63ED807C9F70E94BB14DF91CF91089528
:102730001F93182F84EB8093E2046093E3041092BC
:10274000E4041092E504812F0E948613812F0E94D9
:102750006F138091DF0490E01F91089595EB9093A3
:10276000E2046093E3044093E4041092E5040E94C1
:10277000861308951F93182F84E68093E2046093D4
:10278000E3041092E4041092E504812F0E94861362
:10279000812F0E946F138091DF0490E0982F88278B
:1027A0002091E004820F911D1F9108959EE6909361
:1027B000E2046093E3044093E4041092E5040E9471
:1027C000861308951F93182F6093E2044093E30447
:1027D0001092E4041092E5040E948613812F0E9457
:1027E0006F138091DF0490E01F910895462F6FE8EA
:1027F0000E94E21390E00895462F65E80E94E213DC
:1028000090E00895462F6BE70E94E21390E0089550
:102810006093E2044093E3042093E4041092E504FF
:102820000E9486130895242F462F6EE80E940814F4
:102830000895242F462F64E80E9408140895242F39
:10284000462F6AE70E94081408956093E2044093BB
:10285000E3042093E4041092E5040E948613089593
:10286000242F462F6DE80E9425140895242F462F0B
:1028700063E80E9425140895242F462F69E70E94DB
:10288000251408956093E2044093E3042093E40444
:102890001092E5040E9486130895242F462F6CE8B9
:1028A0000E9442140895242F462F62E80E94421489
:1028B0000895242F462F68E70E944214089510922D
:1028C000710081E4809370000895982F84EA8093CA
:1028D00074008091740087FFFCCF80917100887F25
:1028E000883029F0803119F081E090E008959093CC
:1028F000730084E8809374008091740087FFFCCF9C
:1029000020917100287F283119F480E090E008952B
:1029100080E090E0203411F081E090E00895982F5D
:1029200084EA809374008091740087FFFCCF8091CB
:102930007100887F883011F0803191F79093730097
:1029400084E8809374008091740087FFFCCF8091AD
:102950007100887F803211F0883541F484E98093DA
:1029600074008091740084FFDBCFFBCF08950E9438
:10297000651490E0089584E9809374008091740058
:1029800084FDFCCF08958093730084E880937400E5
:102990008091740087FFFCCF8091710020E030E0CF
:1029A000887F883211F021E030E0C901089584EC7D
:1029B000809374008091740087FFFCCF8091730036
:1029C00090E0089584E8809374008091740087FFFC
:1029D000FCCF8091730090E00895FC01882799272F
:1029E000E89421912032E9F3293010F02E30C8F319
:1029F0002B3241F02D3239F4689404C00E9437150F
:102A0000820F911D219120532A30C0F31EF490951E
:102A100081959F4F0895FB01DC010D900020E9F79F
:102A2000119701900D920020E1F70895FB019F019D
:102A3000E8944230C4F04532B4F44A3029F497FBAC
:102A40001EF4909581959F4F642F77270E949015D3
:102A5000805D8A330CF0895D8193CB010097A1F7EB
:102A600016F45DE251931082C9010C943F157AE08F
:102A7000979F902D879F802D910D11240895DC0143
:102A8000FC01672F71917723E1F7329704C07C91A5
:102A90006D9370836291AE17BF07C8F30895991BB9
:102AA00079E004C0991F961708F0961B881F7A9545
:102AB000C9F78095089597FB092E07260AD077FD60
:102AC00004D02ED006D000201AF4709561957F4F67
:102AD0000895F6F7909581959F4F0895A1E21A2EDB
:102AE000AA1BBB1BFD010DC0AA1FBB1FEE1FFF1FB2
:102AF000A217B307E407F50720F0A21BB30BE40B02
:102B0000F50B661F771F881F991F1A9469F7609548
:102B10007095809590959B01AC01BD01CF01089502
:102B2000AA1BBB1B51E107C0AA1FBB1FA617B707F3
:102B300010F0A61BB70B881F991F5A95A9F780950F
:102B40009095BC01CD010895E199FECFBFBBAEBB0E
:102B5000E09A11960DB20895F7DFE02DF5DFF02D24
:102B60000895E199FECFBFBBAEBB0DBA11960FB66B
:102B7000F894E29AE19A0FBE0895F3DF012CF1DF99
:062B800011240895FFCFAF
:102B86002441435357313B0030302E30313B0078DF
:102B9600783B78783B78783B002A45410D00244104
:102BA600434857313B0041544D4547413132383B4C
:102BB6000031343734353630303B00485730322E0A
:102BC60030303B00535730322E31643B00323030C8
:102BD6003930353330323230303B002441434D53A7
:102BE600470041432000454550524F4D20494E492C
:102BF6005400416C61726D20436F6E74726F6C206D
:102C0600566572733A204143303231630D00457286
:102C1600723A2052656D6F7465626574722E00415A
:102C26006C61726D4374726C2041433032316300C3
:102C3600535541524B2E434F4D2C323030380024E1
:102C46004143434E5400244143524F54002B00301D
:102C560000244B4C53544100244143535441004DEE
:102C66004F44453A20005343484152460053434897
:102C760041455246454E00554E5343484152460043
:102C8600564F52414C41524D202000415553474525
:102C96004C4F4553540042656469656E756E673ADC
:102CA600204645524E0042656469656E756E673A08
:102CB6002048414E4400434F554E54444F574E3AD8
:102CC60020002073656300434D44204552524F5205
:102CD6000D0A004E4F20434D440D0A00FFFF4D6F75
:102CE600004469004D6900446F004672005361005C
:102CF600536F005E026102640267026A026D02702F
:102D0600024155530045494E008102850240414229
:102D16004300000000554E42454B414E4E5445522D
:102D2600204645484C45520053434841524653437A
:102D360048414C54554E47204552464F4C47540047
:102D4600564F52414C41524D2041555347454C4FE9
:102D560045535400414C41524D494552554E47202A
:102D660041555347454C4F45535400414B544956E2
:102D7600494552554E47204142474542524F4348E6
:102D8600454E00414B544956494552554E472047FA
:102D96004553544152544554004445414B544956B9
:102DA600494552554E470053595354454D204745C2
:102DB6005354415254455400454550524F4D2049B5
:102DC6004E495449414C4953494552540052454D88
:102DD6004F5445424554524945422045494E0052BA
:102DE600454D4F544542455452494542204155535D
:102DF600009502A802C002D402EB020303190327BE
:0A2E06000338034D035F033EFF0194
:00000001FF
