:100000000C9496000C94B5000C94B5000C94B500BB
:100010000C94B5000C94B5000C94B5000C94B5008C
:100020000C94B5000C9428020C94B5000C94B50007
:100030000C94B5000C94B5000C94C3000C94B5005E
:100040000C94B5000C94B5000C944C0E0C947A0EE4
:100050000C94B5000C94B5000C94B5000C94B5004C
:100060000C94B5000C94B5000C94B5000C94B5003C
:100070000C94B5000C94B5000C94060F0C94360F3C
:100080000C94B5000C94B5000C94B500EE0CFD0C6E
:10009000E00CFD0CFD0CFD0CFD0CFD0CFD0CFD0C35
:1000A000FD0CFD0CFD0CFD0CFD0CFD0CFD0CFD0C08
:1000B000FD0CFD0CFD0CFD0CFD0CFD0CFD0CFD0CF8
:1000C000A60CB60CC00CFD0CFD0CD00CD80CFD0C15
:1000D000FD0CFD0CB20CFD0C9A0CAA0CFD0CA20C34
:1000E000AE0CC80C960CFD0CFD0C9E0CFD0CFD0C12
:1000F000FD0CFD0CFD0CFD0C890CFD0CFD0C8C0C9D
:10010000A80CBA0CC40C900C860CD40CDC0CFD0CA6
:10011000FD0CFD0CB40CFD0C9C0CAC0C830CA40C65
:10012000B00CCC0C980CFD0CFD0CA00C11241FBEC7
:10013000CFEFD0E1DEBFCDBF13E0A0E0B1E0EEE055
:10014000FBE200E00BBF02C007900D92A638B1079A
:10015000D9F714E0A6E8B3E001C01D92A33EB107B1
:10016000E1F70E94030D0C9485150C94000083B7F1
:10017000896683BF08958CE085BD80E383BD87B722
:10018000806887BF08951F920F920FB60F920BB62B
:100190000F9211242F933F934F935F936F937F930D
:1001A0008F939F93AF93BF93EF93FF93209173042B
:1001B0003091740440E050E060E074E883E090E047
:1001C0000E94BD14209530953DBD2CBD8091A003AB
:1001D0008F5F8093A0038091A00381BF9091A003C3
:1001E00080916704891720F4809177048093A0039D
:1001F000FF91EF91BF91AF919F918F917F916F91FF
:100200005F914F913F912F910F900BBE0F900FBEBA
:100210000F901F901895E4E6F0E080818E7F808338
:10022000E5E6F0E080818E7F8083D198D998D298DE
:10023000DA98D498DC98D398DB98D59ADD9AD69A38
:10024000DE9AD79ADF9A8B9A939A159A1D98BB9A41
:10025000C398179A1F98169A1E98BE9AC698BD9A68
:10026000C598BF9AC798149A1C980895EF92FF9268
:100270000F931F93CF93DF9380E090E0FC01E15751
:10028000FC4F1082019688309105C1F760E070E064
:10029000C0E0D0E081E0E82EF12C40E050E08B019E
:1002A00001571C4FDA01AC0FBD1FA556BB4F8C91F7
:1002B000EC912C91E295EF70F0E0E957FC4F8081D2
:1002C00090E02F7002C0959587952A95E2F780FF00
:1002D0000BC0F8012081C701042E02C0880F991FAE
:1002E0000A94E2F7282B20834F5F5F4F4830510577
:1002F000C9F66F5F7F4F28966830710571F6DF9100
:10030000CF911F910F91FF90EF9008951D9A1E9A23
:1003100008951E981F98C798C698C5981C981D9850
:10032000C398089587B9379A369A3699FECF369A88
:100330003699FECF379824B135B189E190E0A90113
:10034000489F9001499F300D589F300D11243695DC
:100350002795369527952A5C3840C90108958091E4
:100360006804CC9B05C0826080936804DE9A04C058
:100370008D7F80936804DE9880916804CB9B05C0D4
:10038000816080936804DD9A08958E7F809368046D
:10039000DD980895109286038091630080FF12C05B
:1003A0008091AE03982F9F5F9093AE03882311F046
:1003B000973051F483E080938603973029F480933B
:1003C000AE0302C01092AE03C99B13C08091AD036F
:1003D000982F9F5F9093AD03882311F0973059F4C5
:1003E00084E080938603973031F483E08093AD03FB
:1003F00002C01092AD03CA9B13C08091AC03982F2A
:100400009F5F9093AC03882311F0973059F485E0F7
:1004100080938603973031F483E08093AC0302C06D
:100420001092AC0380916804CB9B02C0816001C034
:100430008E7F8093680480916804CC9B02C08260A8
:1004400001C08D7F80936804089583E08EBD089578
:100450001F920F920FB60F9211242F938F939F9399
:100460008091AA039091AB0301969093AB03809384
:10047000AA038436910549F48091760488608093BC
:1004800076041092AB031092AA038091A803909176
:10049000A90301969093A9038093A8038E559140D8
:1004A00049F4809183048260809383041092A903AD
:1004B0001092A8038091A6039091A70301969093B0
:1004C000A7038093A603845F914049F4809176044A
:1004D0008460809376041092A7031092A603809103
:1004E000A4039091A50301969093A5038093A40380
:1004F000885E934049F4809176048160809376040D
:100500001092A5031092A4038091A2039091A303DB
:1005100001969093A3038093A2038858934149F4D2
:10052000809176048260809376041092A3031092E7
:10053000A2039F918F912F910F900FBE0F901F904C
:100540001895EF92FF920F931F9320E6E22E24E07E
:10055000F22E83E080936004A7014F5F5F4F86E037
:100560008093610497012E5F3F4F82E08093620485
:1005700087010D5F1F4F88E08093630480EAB70115
:100580000E94DE128CE080936404A7014B5F5F4FF2
:1005900086E28093650497012A5F3F4F10926604BC
:1005A00080EA64E070E0E60EF71EB7010E943F1299
:1005B0001F910F91FF90EF9008958AE090E00E94C4
:1005C0004515809375041092A1031D9880916A04CB
:1005D00081FF03C01E981F9A03C01D9A83FD1E9AB7
:1005E00082FF03C0C59AC79A089584FDC59A0895ED
:1005F00085E090E00E944515809375041D9A1E9A2F
:100600000895CF93DF93C0E0D0E0DE01A157BC4F47
:100610008C91FE01E956FC4F80836C91CE01855E82
:100620009F4F0E9453152196C830D10571F7DF9175
:10063000CF910895CF93DF93C0E0D0E0CE01855EE7
:100640009F4F0E944515FE01E157FC4F8083CE016C
:100650008D5E9F4F0E944515FE01E558FC4F80833B
:100660002196C830D10551F7C0E0D0E0CE018D5DB4
:100670009F4F0E944515FE01E556FB4F8083219652
:10068000C034D10599F7C0E0D0E0CE018D599F4F1D
:100690000E944D15FE01E559FB4F91838083229600
:1006A000C830D10591F78FE090E00E944515809306
:1006B000850380E190E00E94451580937A0481E1F2
:1006C00090E00E94451580938303DF91CF910895B8
:1006D00080E091E00E94EB0E88E091E00E94EB0E3A
:1006E0008CE20E94D90E80E191E00E94EB0E8CE238
:1006F0000E94D90E88E191E00E94EB0E82E291E027
:100700000E94EB0E089587E291E00E94EB0E8FE2CB
:1007100091E00E94EB0E8CE20E94D90E89E391E0F9
:100720000E94EB0E8CE20E94D90E82E491E00E94BE
:10073000EB0E8CE20E94D90E88E091E00E94EB0E55
:100740008CE20E94D90E8AE491E00E94EB0E8CE2CA
:100750000E94D90E82E291E00E94EB0E08950F9361
:100760001F938C0187E591E00E94EB0E8CE20E94C2
:10077000D90E8EE591E00E94EB0E000F111F0C5C6C
:100780001C4FF801808191810E94EB0E8CE20E9447
:10079000D90E82E291E00E94EB0E1F910F91089515
:1007A000882339F482E090E00E9445158A3A09F4E2
:1007B000DAC10E94531082E691E00E947B1082E031
:1007C00090E06AEA0E94531583E090E06AE00E949C
:1007D000531584E090E068E00E94531583E190E0B7
:1007E00060E40E94531584E190E062E40E94531596
:1007F00085E190E064E40E94531586E190E066E4B0
:100800000E94531587E190E068E40E94531588E147
:1008100090E06AE40E94531589E190E06CE40E9444
:1008200053158AE190E06EE40E94531585E090E054
:1008300062E00E94531586E090E064E60E94531542
:1008400087E090E06FEF0E94531588E090E06FEF33
:100850000E94531589E090E064E60E9453158AE0F7
:1008600090E065E00E9453158BE090E06AE00E9402
:1008700053158CE090E066EE0E9453158DE090E0F9
:100880006FEF0E9453158EE090E064E60E945315CE
:1008900083E690E06EEC7FEF0E94601585E690E0C5
:1008A0006EEC7FEF0E94601587E690E06EEC7FEFC4
:1008B0000E94601589E690E06EEC7FEF0E94601563
:1008C0008FE090E062E00E94531580E190E064EBDD
:1008D0000E94531581E190E06EE30E94531583E27C
:1008E00090E063E00E94531584E290E065E10E948D
:1008F000531585E290E06FEF0E94531586E290E079
:100900006FEF0E94531587E290E06FEF0E9453153E
:1009100088E290E06FEF0E94531589E290E06FEF5C
:100920000E9453158AE290E06FEF0E9453158BE20C
:1009300090E062E00E9453158CE290E064E10E9436
:1009400053158DE290E06FEF0E9453158EE290E018
:100950006FEF0E9453158FE290E06FEF0E945315E6
:1009600080E390E06FEF0E94531581E390E06FEF1A
:100970000E94531582E390E06FEF0E94531583E3CA
:1009800090E061E00E94531584E390E060E00E94F3
:10099000531585E390E067E00E94531586E390E0ED
:1009A00065E00E94531587E390E063E10E945315D0
:1009B00088E390E061E10E94531589E390E067E1EC
:1009C0000E9453158AE390E06FEF0E9453158BE36A
:1009D00090E062E00E9453158CE390E062E00E9498
:1009E00053158DE390E066E00E9453158EE390E08E
:1009F00064E00E9453158FE390E062E10E9453157A
:100A000080E490E060E10E94531581E490E066E1AB
:100A10000E94531582E490E06FEF0E94531583E427
:100A200090E06FEF0E94531584E490E06FEF0E9416
:100A3000531585E490E06FEF0E94531586E490E033
:100A40006FEF0E94531587E490E06FEF0E945315FB
:100A500088E490E06FEF0E94531589E490E06FEF17
:100A60000E9453158AE490E06FEF0E9453158BE4C7
:100A700090E06FEF0E9453158CE490E06FEF0E94BE
:100A800053158DE490E06FEF0E9453158EE490E0D3
:100A90006FEF0E9453158FE490E06FEF0E945315A3
:100AA00080E590E06FEF0E94531581E590E06FEFD5
:100AB0000E94531582E590E06FEF0E94531583E585
:100AC00090E06FEF0E94531584E590E06FEF0E9475
:100AD000531585E590E06FEF0E94531586E590E091
:100AE0006FEF0E94531587E590E06FEF0E9453155A
:100AF00088E590E06FEF0E94531589E590E06FEF75
:100B00000E9453158AE590E06FEF0E9453158BE524
:100B100090E06FEF0E9453158CE590E06FEF0E941C
:100B200053158DE590E06FEF0E9453158EE590E030
:100B30006FEF0E9453158FE590E06FEF0E94531501
:100B400080E690E06FEF0E94531581E690E06FEF32
:100B50000E94531582E690E06FEF0E94531588E0E3
:100B600090E00E94AF0308958EE691E00E94EB0EA4
:100B700087E090E00E94AF03089580915F04807F3A
:100B800080935F048FEF80934B030E94890186E07E
:100B900090E00E94AF03089580915F048860809385
:100BA0005F0485E090E00E94AF03089580915F04A8
:100BB00080FD0AC0877F80935F048FEF80934B0393
:100BC00084E090E00E94AF030895CF92DF92EF920D
:100BD000FF920F931F93CF93DF93E82E0BE614E061
:100BE000CBE7D4E0FF2449E1C42ED12C80918303CC
:100BF0006F2D0E9470139C012C9DC0012D9D900DA6
:100C00003C9D900D112464E070E00E94AA14F8014C
:100C1000208131812A5C3840260F371F88819981D5
:100C20002817390714F4019704C0821793071CF49E
:100C3000019699838883EE2011F039832883F394F9
:100C40000E5F1F4F2296F4E0FF1681F6DF91CF91E1
:100C50001F910F91FF90EF90DF90CF9008959091AA
:100C6000680490FF1CC080916A0491FF0BC080FD56
:100C700022C0816080936A041D9889E090E00E9400
:100C8000AF0308958E7F80936A041D9A80E063E02D
:100C90000E943F108AE891E00E947B1008958091A5
:100CA0006A0480FF08C08E7F80936A048AE090E027
:100CB0000E94AF031D9808950E9453108BE991E0A4
:100CC0000E947B1081E061E00E943F108CEA91E07D
:100CD0000E947B10089580917B030E9421138093D2
:100CE000870380917C030E94211380938803809165
:100CF0007D030E9421138093890380917E030E94CB
:100D0000211380938A0310928B0310928C0310920C
:100D10008D0310928E030895EF92FF920F931F930D
:100D200050E6E52E54E0F52EA7014F5F5F4F970187
:100D30002E5F3F4F87010D5F1F4F80EAB7010E9472
:100D40009611A7014B5F5F4F97012A5F3F4F80EAE3
:100D500064E070E0E60EF71EB7010E9430111F91AB
:100D60000F91FF90EF9008950F931F93DF93CF9310
:100D700000D000D000D0CDB7DEB78E010F5F1F4F7F
:100D8000B8014AE050E00E941C15C8010E947B1087
:100D900026960FB6F894DEBF0FBECDBFCF91DF9180
:100DA0001F910F9108950F931F93DF93CF9300D05E
:100DB00000D000D0CDB7DEB78E010F5F1F4FB80156
:100DC0004AE050E00E941C15C8010E94EB0E2696D6
:100DD0000FB6F894DEBF0FBECDBFCF91DF911F914C
:100DE0000F9108958BEB91E00E94EB0E8CE20E9434
:100DF000D90E80915F04817090E00E94D3068CE24E
:100E00000E94D90E80915F048695817090E00E94C7
:100E1000D3068CE20E94D90E80915F048695869558
:100E2000817090E00E94D3068CE20E94D90E8091DE
:100E30004B0390E00E94D3068CE20E94D90E82E21E
:100E400091E00E94EB0E089580914B038F3F31F4A7
:100E500083E090E00E94451580934B030E94F206C8
:100E600080914B03815080934B038F3F01F580911C
:100E70005F04982F977F90935F0480FD0CC0916072
:100E8000997F90935F040E940103C69A81E090E0ED
:100E90000E94AF03089581FF0AC0857F846080931C
:100EA0005F040E94DD0283E090E00E94AF0308959A
:100EB0009F92AF92BF92CF92DF92EF92FF920F93E9
:100EC0001F93CF93DF93CC24DD24AA24BB249C2C36
:100ED0000D2DEE24FF24E701CA0DDB1DFE01E556B2
:100EE000FB4F80818081108182EC91E00E94EB0EAB
:100EF0008CE20E94D90ECE010E94D3068CE20E94A1
:100F0000D90E892D902F0E94D3068CE20E94D90E13
:100F1000C7010E94D3068CE20E94D90E80E090E0C7
:100F20000E94D3068CE20E94D90E80E090E011234B
:100F300011F081E090E00E94D3068CE20E94D90E6D
:100F4000C556DB4F888190E00E94D3068CE20E9458
:100F5000D90E82E291E00E94EB0E0894E11CF11C94
:100F600088E0E816F10409F0B6CF0894C11CD11C42
:100F700088E090E0A80EB91E98E0C916D10409F0E7
:100F8000A6CFDF91CF911F910F91FF90EF90DF904F
:100F9000CF90BF90AF909F900895EF92FF920F93E4
:100FA0001F93DF93CF9300D000D000D0CDB7DEB732
:100FB0008C01E62EF42E10928504BE016F5F7F4FE8
:100FC0004AE050E00E941C151016110644F4FF2060
:100FD00031F085E894E069EC71E00E941115EE2093
:100FE000B9F0DE011196FD0101900020E9F731977B
:100FF0000E2F0A1BFF2407C085E894E06BEC71E01C
:101000000E9411150F5F802F90E08E159F05A4F3AD
:1010100085E894E0BE016F5F7F4F0E941115269610
:101020000FB6F894DEBF0FBECDBFCF91DF911F91F9
:101030000F91FF90EF9008950F931F93809161049B
:1010400090E062E040E00E94CD0705E814E0C801AE
:101050000E94EB0E8EE20E94D90E8091620490E015
:1010600062E040E00E94CD07C8010E94EB0E8EE2D4
:101070000E94D90E8091630490E062E040E00E94FB
:10108000CD07C8010E94EB0E80E20E94D90E80912C
:10109000640490E062E040E00E94CD07C8010E9435
:1010A000EB0E8AE30E94D90E8091650490E062E025
:1010B00040E00E94CD07C8010E94EB0E8AE30E9427
:1010C000D90E8091660490E062E040E00E94CD0776
:1010D000C8010E94EB0E8CE20E94D90E80E81F919D
:1010E0000F9108950F931F938DEC91E00E94EB0EEA
:1010F0008CE20E94D90E0E941C088091830360E05C
:101100000E94701309E110E09C01209FC001219F03
:10111000900D309F900D112464E070E00E94AA149D
:10112000CB018A5C98400E94D3068CE20E94D90EC3
:101130008091830361E00E9470139C01209FC00195
:10114000219F900D309F900D112464E070E00E946B
:10115000AA14CB018A5C98400E94D3068CE20E94BC
:10116000D90E8091830362E00E9470139C01209F3E
:10117000C001219F900D309F900D112464E070E01C
:101180000E94AA14CB018A5C98400E94D3068CE28C
:101190000E94D90E8091830363E00E9470139C012A
:1011A000209FC001219F900D309F900D112464E07D
:1011B00070E00E94AA14CB018A5C98400E94D3067A
:1011C0008CE20E94D90E82E291E00E94EB0E1F9108
:1011D0000F9108958DEC91E00E94EB0E8CE20E943D
:1011E000D90E0E941C0880917B0490917C040E947F
:1011F000D3068CE20E94D90E80917D0490917E04EA
:101200000E94D3068CE20E94D90E80917F049091B7
:1012100080040E94D3068CE20E94D90E8091810442
:10122000909182040E94D3068CE20E94D90E82E241
:1012300091E00E94EB0E0895CF93DF9384ED91E04F
:101240000E94EB0E8CE20E94D90E0E941C08809135
:101250005F04817090E00E94D3068CE20E94D90E58
:1012600080915F048695817090E00E94D3068CE2A5
:101270000E94D90E80915F0486958695817090E0DA
:101280000E94D3068CE20E94D90E80916A0481707C
:1012900090E00E94D3068CE20E94D90E80916A04ED
:1012A0008695817090E00E94D3068CE20E94D90E50
:1012B00080916A0486958695817090E00E94D3069D
:1012C0008CE20E94D90E80916A0486958695869557
:1012D000817090E00E94D3068CE20E94D90E80912A
:1012E0006A048295817090E00E94D3068CE20E948D
:1012F000D90E80916A0482958695817090E00E9453
:10130000D3068CE20E94D90E80E30E94D90E8CE2B3
:101310000E94D90EC0E0D0E0FE01E157FC4F808171
:1013200090E00E94D3068CE20E94D90E2196C8302C
:10133000D10591F782E291E00E94EB0EDF91CF910F
:1013400008950F931F93CF93DF9380915F0480FFE5
:101350004DC0867009F067C010E0C1E0D0E00FEF2B
:10136000FE01E157FC4F9081FE01E956FC4F808160
:101370009817A9F01F5F8091AF038A3081F48091A4
:101380005F0400934B03857F846080935F040E9419
:10139000DD0283E090E00E94AF030E941C092196C9
:1013A000C830D105E9F690918F0380919703981783
:1013B00091F01F5F8091AF038A3069F480915F04E0
:1013C0008A6080935F040E94F80282E090E00E94AD
:1013D000AF030E941C09112331F08091AF038F5F8E
:1013E0008093AF0320C01092AF031DC040E050E0D7
:1013F00020E030E0F901E157FC4F8081480F511D9A
:101400002F5F3F4F28303105A9F78091B0039091AD
:10141000B1034817590719F01D9A1092840350938D
:10142000B1034093B003DF91CF911F910F910895C5
:101430008091830481FFD5C0DD98DE98DF980E94FB
:10144000531080E060E00E943F10E0916004F0E003
:10145000EE0FFF1FEF59FC4F808191810E947B109E
:1014600080E20E945B108091610490E062E040E0C5
:101470000E94CD0785E894E00E947B108EE20E94D6
:101480005B108091620490E062E040E00E94CD0732
:1014900085E894E00E947B1080E20E945B1080E26D
:1014A0000E945B1080E20E945B108091640490E0D7
:1014B00062E040E00E94CD0785E894E00E947B1046
:1014C0008AE30E945B108091650490E062E040E056
:1014D0000E94CD0785E894E00E947B1080E061E0E7
:1014E0000E943F108BED91E00E947B1080915F0481
:1014F00080FF06C082EE91E00E947B10DE9A09C058
:1015000083FF03C089EE91E002C083EF91E00E9467
:101510007B1086E061E00E943F1080915F0481FFB4
:1015200004C08CEF91E00E947B1080915F0482FFE9
:101530000BC087E092E00E947B108091B203882369
:1015400011F0DE9A01C0DE9880916A0480FF0AC023
:1015500080E062E00E943F1082E192E00E947B10F6
:10156000DD9A09C080E062E00E943F1082E292E0D2
:101570000E947B10DD9880915F0483FF1BC080E098
:1015800063E00E943F1082E392E00E947B10809112
:101590004B0390E063E040E00E94CD0785E894E0D3
:1015A0000E947B108EE392E00E947B108091B20338
:1015B0008111DE9A8DE060E00E943F108091B203BD
:1015C000882321F01092B2038AE304C081E0809363
:1015D000B20380E20E945B10809183048D7F809330
:1015E0008304809186038350823040F48FEF809390
:1015F0004A038091830488608093830408950E9445
:10160000180A0895CF92DF92EF92FF920F931F93E3
:10161000DF93CF9300D000D00F92CDB7DEB780918B
:10162000C603833209F017C17E010894E11CF11C46
:10163000D70122E030E0F901EB53FC4F80818D931C
:101640002F5F3F4F27303105B1F7CE0101960E9441
:10165000F3148C0127E030E0F901EB53FC4F80815B
:10166000F70181937F012F5F3F4F2C303105A1F7A8
:10167000CE0101960E94F314D82EC92EF1E0083F46
:101680001F0709F477C081E0093F180768F5023D9C
:10169000110509F488C0033D110568F406361105EB
:1016A00009F499C00736110509F498C005361105EB
:1016B00009F09AC075C091E0053F190709F44BC0C5
:1016C000E1E0063F1E0728F40C3D110509F08CC02F
:1016D00088C0F1E0063F1F0709F442C081E0073FE0
:1016E000180709F081C041C092E00436190709F4D7
:1016F00063C0E2E005361E07A0F4F1E00A3F1F07D1
:1017000009F444C081E00A3F1807D8F191E00B3F8B
:10171000190709F440C0E2E003361E0709F064C06F
:1017200048C0F2E00D361F0709F44CC082E00E36C7
:10173000180730F492E00536190709F055C03FC08C
:10174000E2E00E361E0709F440C0F2E00F361F0734
:1017500009F04AC03DC080EA6D2D0E94C1127FC0D1
:1017600080EA6D2D0E94A3127AC080EA6D2D0E943E
:10177000851275C080E3D80E80EA6D2D0E945B1241
:101780006EC080EA6D2D0E942B1269C080EA6D2D1B
:101790000E94171264C080EA6D2D0E9403125FC080
:1017A00083E090E002C084E090E06D2D0E9453152C
:1017B00056C087E090E0F9CF88E090E0F6CF89E06E
:1017C00090E0F3CF8CE090E0F0CF8DE090E0EDCFB3
:1017D0008EE090E0EACF8FE090E0E7CF80E190E00C
:1017E000E4CF81E190E0E1CFC801885C904088308F
:1017F000910518F48D5E9F4FD8CFE4EDEE2EEEEFFD
:10180000FE2EE00EF11E90E4E916F10468F4C70123
:101810008D5D9F4F6D2D0E945315EBE9F4E0EE0EA8
:10182000FF1EF701D0821BC006551440043011057D
:1018300078F4000F111FC8018D599F4F6D2D7C2D1D
:101840000E94601505591B4FF801D082C18207C064
:1018500083E492E002C08FE492E00E94EB0E0F90CE
:101860000F900F900F900F90CF91DF911F910F91DC
:10187000FF90EF90DF90CF900895982F863211F46B
:101880001092B303E091B303F0E0EB54FC4F90836C
:101890008091B3038F5F8093B3038091B303803152
:1018A00011F41092B3039A30C1F490E00AC0E92F0A
:1018B000F0E0DF01AB54BC4F8C91EB53FC4F8083C5
:1018C0009F5F8091B303981790F38091B303809347
:1018D000B4031092B3030E94020B0895CF93DF93D9
:1018E0000E94BC0EEC0190FD8BC0FC01BB97E03563
:1018F000F10508F082C0EA5BFF4FEE0FFF1F059075
:10190000F491E02D09940E94CC0577C00E94BD059A
:1019100074C00E94D60571C080916904826003C0C2
:101920008091690481608093690467C01E9A65C0D4
:101930001E9863C01F9A61C01F985FC0C79A5DC0A0
:10194000C7985BC0C69A59C0C69857C0C59A55C0BB
:10195000C59853C01C9A51C01C984FC01D9A4DC0C9
:101960001D984BC0C39A49C0C39847C080916A0470
:10197000826003C080916A048D7F80936A043DC0B9
:1019800080916A048460F9CF80916A048B7FF5CFDF
:1019900080916A048860F1CF80916A04877FEDCFDF
:1019A00080916A048061E9CF80916A048F7EE5CFDF
:1019B00080916A048062E1CF80916A048F7DDDCFDF
:1019C000809184048F5F8093840480917704815098
:1019D000809377048091670481500DC080918404C6
:1019E000815080938404809177048F5F8093770483
:1019F000809167048F5F809367048C2F0E943D0C59
:101A0000DF91CF91089581E0809360048FE180930E
:101A100061048CE08093620487E08093630487E133
:101A2000809364048BE3809365048FE28093660463
:101A30000E940B018CE00E9495108FE290E00E94C2
:101A4000A30E789480E00E94D003CA9B03C081E07B
:101A50000E94D0030E94191484E886B983B789666E
:101A600083BF8CE085BD80E383BD87B7806887BF77
:101A700083E08EBD0E94B4050E945C0680915F04E5
:101A80008E7F80935F0480916A048F618F7D809345
:101A90006A040E941A038091830360E041E00E947F
:101AA0008B138091830361E041E00E948B1380914E
:101AB000830362E041E00E948B138091830363E023
:101AC00041E00E948B138091830362E041E00E9419
:101AD00012148091830362E041E00E94D21380914E
:101AE000830363E041E00E9412148091830363E06A
:101AF00040E00E94D21381E00E94E5050E94180A8E
:101B00000E94CA010E942F060E946B060E943601A5
:101B10000E94A10920915F0422FF10C080916A04F5
:101B200081FF02C01F9A03C01D9A83FD1E9A82FF87
:101B300003C0C59AC79A02C084FDC59A80916A0401
:101B400080FF03C00E946E0C17C080916804922F22
:101B5000917081FF07C0992379F423FD0DC00E9485
:101B6000CC050AC0992311F00E94BD0580915F0445
:101B700083FF02C00E94D60590915F0490FF02C0CF
:101B8000939801C0939A8091760483FF20C091FFBF
:101B900019C080919F03882311F41D9A1E9A909179
:101BA0009F0380917504981711F40E948901809118
:101BB0009F038F5F80939F0380919F038A3011F46E
:101BC00010929F0380917604877F809376048091A2
:101BD000760480FF2EC0809169048160809369043F
:101BE00080915F0483FF02C00E9424070E948C063C
:101BF0008091840390918503981730F08F5F8093D4
:101C00008403891708F01D9880915F0482FF0CC03F
:101C10008091A1038F5F8093A10390917A0489172B
:101C200019F41F981092A103809176048E7F8093FF
:101C300076048091760481FF0DC080E00E94E50566
:101C400080916904846080936904809176048D7F1B
:101C5000809376048091690480FF07C00E941C096C
:101C6000809169048E7F809369048091690482FF6A
:101C700007C00E94EA08809169048B7F8093690401
:101C80008091690481FF3ACF0E94580780916904CE
:101C90008D7F8093690432CF1F920F920FB60F92FF
:101CA0000BB60F9211242F938F939F93EF93FF9373
:101CB0009BB12CB1E0911704EF5FEF718091180494
:101CC000E81711F482E008C0892F8871E0931704A7
:101CD000F0E0EB50FC4F208380931904FF91EF91CB
:101CE0009F918F912F910F900BBE0F900FBE0F9071
:101CF0001F9018951F920F920FB60F920BB60F926E
:101D000011248F939F93EF93FF93909115048091EB
:101D10001604981761F0E0911604EF5FEF71E093FD
:101D20001604F0E0EB52FC4F80818CB901C055984D
:101D3000FF91EF919F918F910F900BBE0F900FBE6F
:101D40000F901F9018959C01109215041092160484
:101D50001092170410921804129A1A9A97FF03C04F
:101D600082E08BB93F773093900029B988E98AB92E
:101D700086E080939500089590911704809118044F
:101D8000981719F420E031E012C0E0911804EF5FD9
:101D9000EF71E0931804F0E0EB50FC4F308120919C
:101DA0001904922F80E0AC01430F511D9A01C90123
:101DB0000895282F909115049F5F9F7180911604BC
:101DC0009817E1F3E92FF0E0EB52FC4F208390935A
:101DD0001504559A0895CF93DF93EC0103C0219623
:101DE0000E94D90E88818823D1F7DF91CF91089581
:101DF000CF93DF93EC0102C00E94D90EFE01219621
:101E000084918823C9F7DF91CF9108951F920F9293
:101E10000FB60F920BB60F9211242F938F939F93AF
:101E2000EF93FF9390919B0020919C00E0915C04C4
:101E3000EF5FEF7180915D04E81711F482E008C054
:101E4000892F8871E0935C04F0E0E65CFB4F20830F
:101E500080935E04FF91EF919F918F912F910F904E
:101E60000BBE0F900FBE0F901F9018951F920F92F0
:101E70000FB60F920BB60F9211248F939F93EF938F
:101E8000FF9390915A0480915B04981769F0E09158
:101E90005B04EF5FEF71E0935B04F0E0E65EFB4F05
:101EA000808180939C0005C080919A008F7D8093F3
:101EB0009A00FF91EF919F918F910F900BBE0F9021
:101EC0000FBE0F901F9018959C0110925A0410920B
:101ED0005B0410925C0410925D0497FF04C082E0E2
:101EE00080939B003F77309398002093990088E976
:101EF00080939A0086E080939D00089590915C0401
:101F000080915D04981719F420E031E012C0E0914F
:101F10005D04EF5FEF71E0935D04F0E0E65CFB4F82
:101F2000308120915E04922F80E0AC01430F511D5F
:101F30009A01C9010895282F90915A049F5F9F71BB
:101F400080915B049817E1F3E92FF0E0E65EFB4F28
:101F5000208390935A0480919A00806280939A0023
:101F60000895CF93DF93EC0103C021960E949B0F4D
:101F700088818823D1F7DF91CF910895CF93DF93A4
:101F8000EC0102C00E949B0FFE01219684918823E0
:101F9000C9F7DF91CF910895662311F0AE9A01C081
:101FA000AE98AD98A39AA29AA19AA09AA898A99837
:101FB000AA98AB9887FDA89A86FDA99A85FDAA9A4A
:101FC00084FDAB9AAC9A00C0AC98A898A998AA983E
:101FD000AB9883FDA89A82FDA99A81FDAA9A80FDFB
:101FE000AB9AAC9A00C0AC98AB9AAA9AA99AA89A54
:101FF0000895882311F0AE9A01C0AE98AD9AA398C7
:10200000A298A198A098AC9A00C09B9B02C080E1C6
:1020100001C080E09A99806299998064989980685B
:10202000AC9800C0AC9A00C09B9981609A9982607C
:102030009999846098998860AC98089580E00E948E
:10204000F90F87FDFBCF87E090E00197F1F780E083
:102050000E94F90F08951F93182F0E941E10812FC0
:1020600060E00E94CC0F1F9108951F93182F0E94CB
:102070001E10812F61E00E94CC0F1F9108956623EE
:1020800011F4805809C0613011F4805405C06230E9
:1020900011F4805701C080530E942B1008950E94B4
:1020A0001E1090E0089581E00E942B10089582E0B8
:1020B0000E942B1008951F93182F0E941E10982F16
:1020C0001A3099F4803110F480E40BC080548031D0
:1020D00010F480E106C09051903310F080E001C010
:1020E00080E580580E942B1004C0812F61E00E947F
:1020F000CC0F1F910895CF93DF93EC0102C00E9493
:102100005B1089918823D9F7DF91CF910895CF9300
:10211000DF93EC0102C00E945B10FE0121968491C6
:102120008823C9F7DF91CF9108951F93182FA69A9E
:10213000A59AA49AA39AA29AA19AA09A80E696EE4A
:102140000197F1F7AA9AAB9AAC9A00C0AC9880EECE
:1021500097E40197F1F7AC9A00C0AC988BEE90E051
:10216000FC013197F1F7AC9A00C0AC98FC013197B3
:10217000F1F7AB98AC9A00C0AC980197F1F788E200
:102180000E942B1088E00E942B100E94531086E0C2
:102190000E942B10812F0E942B101F910895282F31
:1021A00022952F709AE0299F900111248F70820F41
:1021B0000895482F6AE00E949E14282F30E084E0A2
:1021C000220F331F8A95E1F7842F0E949E14892FD6
:1021D000820F08950F931F93162F042F0E9445140A
:1021E000812F0E947814802F0E9478140E9470140E
:1021F0001F910F9108950E94EA1008950F931F9365
:10220000082F162F0E944514812F0E947814802FCA
:102210008F5F0E946D140E949414182F0E947014F6
:10222000812F1F910F9108950E94FE10089561E083
:102230000E94FE100E94CF10089562E00E94FE10DE
:102240000E94CF10089563E00E94FE100E94CF10FC
:10225000089564E00E94FE108F730E94CF100895CD
:10226000AF92BF92CF92DF92EF92FF921F93182FFF
:102270007B016A0159010E942911F7018083812F96
:102280000E942311F6018083812F0E941D11F50108
:1022900080831F91FF90EF90DF90CF90BF90AF9021
:1022A0000895FF920F931F93082F65E00E94FE1080
:1022B000182F802F65E00E94FE10F82EF294F694FD
:1022C000F69493E0F92212951695169513701F1542
:1022D00079F0802F63E14F2D0E94EA10802F61E199
:1022E0000E94FE10482F4F5F802F61E10E94EA108C
:1022F000802F61E10E94FE108F0D1F910F91FF90C2
:10230000089566E00E94FE108F710E94CF1008951C
:1023100065E00E94FE108F730E94CF10089566E062
:102320000E94FE1082958695877008958F929F92E5
:10233000AF92BF92CF92DF92FF920F931F93F82E2E
:102340006B015A0149010E948F11F60180838F2D84
:102350000E948811F50180838F2D0E948111F40164
:1023600080838F2D0E945111F80180831F910F915E
:10237000FF90DF90CF90BF90AF909F908F90089587
:102380001F93182F60E040E00E94EA10812F65E063
:102390000E94FE10482F4295469546954370812F26
:1023A00063E10E94EA101F9108951F93182F60E0C7
:1023B0000E94FE10482F4F77812F60E00E94EA10A4
:1023C0001F9108951F93182F60E00E94FE10482F60
:1023D0004068812F60E00E94EA101F9108950F93DA
:1023E0001F93182F062F0E94E211802F0E94D910F0
:1023F000482F812F61E00E94EA10812F0E94D511A1
:102400001F910F9108950F931F93182F062F0E946D
:10241000E211802F0E94D910482F812F62E00E9484
:10242000EA10812F0E94D5111F910F9108950F93EB
:102430001F93182F062F0E94E211802F0E94D9109F
:10244000482F812F63E00E94EA10812F0E94D5114E
:102450001F910F9108950F931F93182F062F0E941D
:10246000E211802F0E94D910482F812F64E00E9432
:10247000EA10812F0E94D5111F910F910895CF92DC
:10248000DF92EF92FF921F93182FFB017A016901EF
:1024900060810E942B12812FF70160810E94171228
:1024A000812FF60160810E9403121F91FF90EF902F
:1024B000DF90CF900895FF920F931F93F82E462F31
:1024C000162F1370411B61E10E94EA101295110F43
:1024D000110F107C8F2D63E1412F0E94EA108F2D88
:1024E00065E00E94FE10082F0F738F2D0E94E211ED
:1024F000102B8F2D65E0412F0E94EA108F2D0E9436
:10250000D5111F910F91FF900895FF920F931F9384
:10251000F82E062F66E00E94FE10182F107E802FE6
:102520000E94D910082F8F2D0E94E211102B8F2DA1
:1025300066E0412F0E94EA108F2D0E94D5111F9155
:102540000F91FF900895FF920F931F93F82E062F7F
:1025500065E00E94FE10182F107C802F0E94D91079
:10256000082F8F2D0E94E211102B8F2D65E0412F37
:102570000E94EA108F2D0E94D5111F910F91FF909C
:102580000895FF920F931F93F82E062F66E00E9486
:10259000FE10182F1F718F2D0E94E2110295000F5F
:1025A000007E102B8F2D66E0412F0E94EA108F2DA8
:1025B0000E94D5111F910F91FF900895AF92BF9285
:1025C000CF92DF92FF920F931F93F82EFB016A01C7
:1025D000590160810E94C1128F2DF60160810E9415
:1025E000A3128F2DF50160810E9485128F2DF801B5
:1025F00060810E945B121F910F91FF90DF90CF903E
:10260000BF90AF9008951F93162F0E944514812FFD
:102610000E9478140E9470141F9108950E94031361
:1026200008951F93182F0E944514812F8F5F0E94D9
:102630006D140E949414182F0E947014812F1F9102
:1026400008950E94111308958F5F0E9445140E94FF
:102650008A148093DB040E948A148093DC040E9415
:102660008A148093DD040E9494148093DE040E94F7
:10267000701408950E9445148091DF040E9478141C
:102680008091E0040E9478148091E1040E94781403
:102690008091E2040E9478140E94701408951F93A0
:1026A000182F84EB8093DF046093E0041092E10420
:1026B0001092E204812F0E943A13812F0E9424136A
:1026C0008091DC041F91089595EB9093DF04609353
:1026D000E0044093E1041092E2040E943A1308954A
:1026E0001F93182F84E68093DF046093E004109218
:1026F000E1041092E204812F0E943A13812F0E947C
:1027000024133091DC0420E08091DD04280F311D7A
:10271000C9011F9108959EE69093DF046093E00441
:102720004093E1041092E2040E943A1308951F932B
:10273000182F6093DF044093E0041092E10410929C
:10274000E2040E943A13812F0E9424138091DC043A
:102750001F910895462F6FE80E9497130895462F02
:1027600065E80E9497130895462F6BE70E94971320
:1027700008956093DF044093E0042093E1041092F5
:10278000E2040E943A130895962F242F6EE8492FF1
:102790000E94B9130895962F242F64E8492F0E94B0
:1027A000B9130895962F242F6AE7492F0E94B91371
:1027B00008956093DF044093E0042093E1041092B5
:1027C000E2040E943A130895962F242F6DE8492FB2
:1027D0000E94D9130895962F242F63E8492F0E9451
:1027E000D9130895962F242F69E7492F0E94D913F2
:1027F00008956093DF044093E0042093E104109275
:10280000E2040E943A130895962F242F6CE8492F72
:102810000E94F9130895962F242F62E8492F0E94F1
:10282000F9130895962F242F68E7492F0E94F91372
:1028300008951092710081E4809370000895982F9C
:1028400084EA809374008091740087FFFCCF8091AC
:102850007100887F883021F0803111F081E0089587
:102860009093730084E8809374008091740087FFD4
:10287000FCCF90917100987F983111F480E0089519
:1028800080E0903409F081E00895982F44EA34E81C
:1028900024E9409374008091740087FFFCCF8091FD
:1028A0007100887F883011F0803199F79093730020
:1028B000309374008091740087FFFCCF8091710089
:1028C000887F803211F0883539F42093740080912C
:1028D000740084FDFCCFDDCF08950E941F1408957D
:1028E00084E9809374008091740084FDFCCF089586
:1028F0008093730084E8809374008091740087FF54
:10290000FCCF8091710090E0887F883209F091E0DF
:10291000892F089584EC809374008091740087FF60
:10292000FCCF80917300089584E8809374008091B7
:10293000740087FFFCCF809173000895991B79E0A4
:1029400004C0991F961708F0961B881F7A95C9F73F
:102950008095089597FB092E07260AD077FD04D0AD
:102960002ED006D000201AF4709561957F4F0895FF
:10297000F6F7909581959F4F0895A1E21A2EAA1B14
:10298000BB1BFD010DC0AA1FBB1FEE1FFF1FA2171F
:10299000B307E407F50720F0A21BB30BE40BF50B1C
:1029A000661F771F881F991F1A9469F760957095A5
:1029B000809590959B01AC01BD01CF010895AA1BA4
:1029C000BB1B51E107C0AA1FBB1FA617B70710F01A
:1029D000A61BB70B881F991F5A95A9F7809590954C
:1029E000BC01CD010895FC0188279927E894219125
:1029F0002032E9F3293010F02E30C8F32B3241F0A9
:102A00002D3239F4689404C00E943D15820F911D47
:102A1000219120532A30C0F31EF4909581959F4F49
:102A20000895FB01DC010D900020E9F7119701905A
:102A30000D920020E1F70895FB019F01E8944230D8
:102A4000C4F04532B4F44A3029F497FB1EF4909553
:102A500081959F4F642F77270E94DF14805D8A3312
:102A60000CF0895D8193CB010097A1F716F45DE22C
:102A700051931082C9010C9465157AE0979F902DAF
:102A8000879F802D910D11240895E199FECF9FBB62
:102A90008EBBE09A99278DB30895A8E1B0E042E09B
:102AA00050E00C947715262FE199FECF9FBB8EBB8B
:102AB0002DBB0FB6F894E29AE19A0FBE01960895E5
:102AC0000E945315272F0C945415DC01FC01672F2D
:102AD00071917723E1F7329704C07C916D937083F5
:102AE0006291AE17BF07C8F30895DC01CB01FC016A
:102AF000E199FECF06C0FFBBEEBBE09A31960DB266
:0E2B00000D9241505040B8F70895F894FFCF61
:102B0E002441435357313B00535730322E3261002C
:102B1E00507230302E31610078783B78783B78787F
:102B2E003B002A45410D002441434857313B0041AB
:102B3E00544D454741313238003134373435363013
:102B4E003000485730322E30300032303039303588
:102B5E00333032323030002441434D53470041432D
:102B6E002000454550524F4D20494E495400416C6E
:102B7E0061726D20436F6E74726F6C205665727346
:102B8E003A204143303232610D004572723A205282
:102B9E00656D6F7465626574722E00416C61726D45
:102BAE004374726C204143303232610053554152AE
:102BBE004B2E434F4D2C3230313000244143434E87
:102BCE005400244143524F54002B003000244B4CF0
:102BDE0053544100244143535441004D4F44453A10
:102BEE002000534348415246005343484145524604
:102BFE00454E00554E53434841524600564F5241A2
:102C0E004C41524D20200041555347454C4F4553A2
:102C1E00540042656469656E756E673A204645528A
:102C2E004E0042656469656E756E673A2048414E86
:102C3E004400434F554E54444F574E3A2000207394
:102C4E00656300434D44204552524F520D0A004ECB
:102C5E004F20434D440D0A00554E42454B414E4EBA
:102C6E00544552204645484C455200534348415224
:102C7E0046534348414C54554E47204552464F4CBF
:102C8E00475400564F52414C41524D2041555347E7
:102C9E00454C4F45535400414C41524D49455255B8
:102CAE004E472041555347454C4F45535400414BD9
:102CBE00544956494552554E472041424745425286
:102CCE004F4348454E00414B544956494552554E87
:102CDE004720474553544152544554004445414BB7
:102CEE00544956494552554E470053595354454D34
:102CFE002047455354415254455400454550524F78
:102D0E004D20494E495449414C495349455254006E
:102D1E0052454D4F5445424554524945422045492E
:102D2E004E0052454D4F544542455452494542205E
:102D3E004155530058026B0283029702AE02C6023F
:102D4E00DC02EA02FB0210032203FFFF4D6F004478
:102D5E0069004D6900446F00467200536100536F65
:102D6E00004C034F035203550358035B035E0341AC
:102D7E0055530045494E006F0373034041424300D3
:062D8E000000003EFF0101
:00000001FF
